{
  "contractName": "Liquor",
  "abi": [
    {
      "inputs": [],
      "payable": false,
      "stateMutability": "nonpayable",
      "type": "constructor"
    },
    {
      "anonymous": false,
      "inputs": [
        {
          "indexed": true,
          "internalType": "address",
          "name": "owner",
          "type": "address"
        },
        {
          "indexed": true,
          "internalType": "address",
          "name": "approved",
          "type": "address"
        },
        {
          "indexed": true,
          "internalType": "uint256",
          "name": "tokenId",
          "type": "uint256"
        }
      ],
      "name": "Approval",
      "type": "event"
    },
    {
      "anonymous": false,
      "inputs": [
        {
          "indexed": true,
          "internalType": "address",
          "name": "owner",
          "type": "address"
        },
        {
          "indexed": true,
          "internalType": "address",
          "name": "operator",
          "type": "address"
        },
        {
          "indexed": false,
          "internalType": "bool",
          "name": "approved",
          "type": "bool"
        }
      ],
      "name": "ApprovalForAll",
      "type": "event"
    },
    {
      "anonymous": false,
      "inputs": [
        {
          "indexed": true,
          "internalType": "address",
          "name": "_from",
          "type": "address"
        },
        {
          "indexed": true,
          "internalType": "address",
          "name": "_to",
          "type": "address"
        },
        {
          "indexed": true,
          "internalType": "uint256",
          "name": "_tokenId",
          "type": "uint256"
        }
      ],
      "name": "Transfer",
      "type": "event"
    },
    {
      "constant": false,
      "inputs": [
        {
          "internalType": "address",
          "name": "to",
          "type": "address"
        },
        {
          "internalType": "uint256",
          "name": "tokenId",
          "type": "uint256"
        }
      ],
      "name": "approve",
      "outputs": [],
      "payable": false,
      "stateMutability": "nonpayable",
      "type": "function"
    },
    {
      "constant": true,
      "inputs": [
        {
          "internalType": "address",
          "name": "owner",
          "type": "address"
        }
      ],
      "name": "balanceOf",
      "outputs": [
        {
          "internalType": "uint256",
          "name": "",
          "type": "uint256"
        }
      ],
      "payable": false,
      "stateMutability": "view",
      "type": "function"
    },
    {
      "constant": true,
      "inputs": [],
      "name": "baseURI",
      "outputs": [
        {
          "internalType": "string",
          "name": "",
          "type": "string"
        }
      ],
      "payable": false,
      "stateMutability": "view",
      "type": "function"
    },
    {
      "constant": true,
      "inputs": [
        {
          "internalType": "uint256",
          "name": "tokenId",
          "type": "uint256"
        }
      ],
      "name": "getApproved",
      "outputs": [
        {
          "internalType": "address",
          "name": "",
          "type": "address"
        }
      ],
      "payable": false,
      "stateMutability": "view",
      "type": "function"
    },
    {
      "constant": true,
      "inputs": [
        {
          "internalType": "address",
          "name": "owner",
          "type": "address"
        },
        {
          "internalType": "address",
          "name": "operator",
          "type": "address"
        }
      ],
      "name": "isApprovedForAll",
      "outputs": [
        {
          "internalType": "bool",
          "name": "",
          "type": "bool"
        }
      ],
      "payable": false,
      "stateMutability": "view",
      "type": "function"
    },
    {
      "constant": true,
      "inputs": [],
      "name": "name",
      "outputs": [
        {
          "internalType": "string",
          "name": "",
          "type": "string"
        }
      ],
      "payable": false,
      "stateMutability": "view",
      "type": "function"
    },
    {
      "constant": true,
      "inputs": [
        {
          "internalType": "uint256",
          "name": "tokenId",
          "type": "uint256"
        }
      ],
      "name": "ownerOf",
      "outputs": [
        {
          "internalType": "address",
          "name": "",
          "type": "address"
        }
      ],
      "payable": false,
      "stateMutability": "view",
      "type": "function"
    },
    {
      "constant": false,
      "inputs": [
        {
          "internalType": "address",
          "name": "from",
          "type": "address"
        },
        {
          "internalType": "address",
          "name": "to",
          "type": "address"
        },
        {
          "internalType": "uint256",
          "name": "tokenId",
          "type": "uint256"
        }
      ],
      "name": "safeTransferFrom",
      "outputs": [],
      "payable": false,
      "stateMutability": "nonpayable",
      "type": "function"
    },
    {
      "constant": false,
      "inputs": [
        {
          "internalType": "address",
          "name": "from",
          "type": "address"
        },
        {
          "internalType": "address",
          "name": "to",
          "type": "address"
        },
        {
          "internalType": "uint256",
          "name": "tokenId",
          "type": "uint256"
        },
        {
          "internalType": "bytes",
          "name": "_data",
          "type": "bytes"
        }
      ],
      "name": "safeTransferFrom",
      "outputs": [],
      "payable": false,
      "stateMutability": "nonpayable",
      "type": "function"
    },
    {
      "constant": false,
      "inputs": [
        {
          "internalType": "address",
          "name": "to",
          "type": "address"
        },
        {
          "internalType": "bool",
          "name": "approved",
          "type": "bool"
        }
      ],
      "name": "setApprovalForAll",
      "outputs": [],
      "payable": false,
      "stateMutability": "nonpayable",
      "type": "function"
    },
    {
      "constant": true,
      "inputs": [
        {
          "internalType": "bytes4",
          "name": "interfaceId",
          "type": "bytes4"
        }
      ],
      "name": "supportsInterface",
      "outputs": [
        {
          "internalType": "bool",
          "name": "",
          "type": "bool"
        }
      ],
      "payable": false,
      "stateMutability": "view",
      "type": "function"
    },
    {
      "constant": true,
      "inputs": [],
      "name": "symbol",
      "outputs": [
        {
          "internalType": "string",
          "name": "",
          "type": "string"
        }
      ],
      "payable": false,
      "stateMutability": "view",
      "type": "function"
    },
    {
      "constant": true,
      "inputs": [
        {
          "internalType": "uint256",
          "name": "index",
          "type": "uint256"
        }
      ],
      "name": "tokenByIndex",
      "outputs": [
        {
          "internalType": "uint256",
          "name": "",
          "type": "uint256"
        }
      ],
      "payable": false,
      "stateMutability": "view",
      "type": "function"
    },
    {
      "constant": true,
      "inputs": [
        {
          "internalType": "address",
          "name": "owner",
          "type": "address"
        },
        {
          "internalType": "uint256",
          "name": "index",
          "type": "uint256"
        }
      ],
      "name": "tokenOfOwnerByIndex",
      "outputs": [
        {
          "internalType": "uint256",
          "name": "",
          "type": "uint256"
        }
      ],
      "payable": false,
      "stateMutability": "view",
      "type": "function"
    },
    {
      "constant": true,
      "inputs": [
        {
          "internalType": "uint256",
          "name": "tokenId",
          "type": "uint256"
        }
      ],
      "name": "tokenURI",
      "outputs": [
        {
          "internalType": "string",
          "name": "",
          "type": "string"
        }
      ],
      "payable": false,
      "stateMutability": "view",
      "type": "function"
    },
    {
      "constant": true,
      "inputs": [],
      "name": "totalSupply",
      "outputs": [
        {
          "internalType": "uint256",
          "name": "",
          "type": "uint256"
        }
      ],
      "payable": false,
      "stateMutability": "view",
      "type": "function"
    },
    {
      "constant": false,
      "inputs": [
        {
          "internalType": "address",
          "name": "from",
          "type": "address"
        },
        {
          "internalType": "address",
          "name": "to",
          "type": "address"
        },
        {
          "internalType": "uint256",
          "name": "tokenId",
          "type": "uint256"
        }
      ],
      "name": "transferFrom",
      "outputs": [],
      "payable": false,
      "stateMutability": "nonpayable",
      "type": "function"
    },
    {
      "constant": false,
      "inputs": [
        {
          "internalType": "uint256",
          "name": "_tokenId",
          "type": "uint256"
        }
      ],
      "name": "fetchLiquor",
      "outputs": [
        {
          "internalType": "string",
          "name": "",
          "type": "string"
        }
      ],
      "payable": false,
      "stateMutability": "nonpayable",
      "type": "function"
    },
    {
      "constant": true,
      "inputs": [],
      "name": "fetchAllLiquors",
      "outputs": [
        {
          "internalType": "bool",
          "name": "",
          "type": "bool"
        }
      ],
      "payable": false,
      "stateMutability": "view",
      "type": "function"
    },
    {
      "constant": false,
      "inputs": [
        {
          "internalType": "string",
          "name": "liquorName",
          "type": "string"
        },
        {
          "internalType": "string",
          "name": "sellerName",
          "type": "string"
        },
        {
          "internalType": "string",
          "name": "isReservable",
          "type": "string"
        },
        {
          "internalType": "string",
          "name": "arrivalDay",
          "type": "string"
        },
        {
          "internalType": "string",
          "name": "reserveScore",
          "type": "string"
        }
      ],
      "name": "addBlockToRegister",
      "outputs": [
        {
          "internalType": "bool",
          "name": "",
          "type": "bool"
        }
      ],
      "payable": true,
      "stateMutability": "payable",
      "type": "function"
    }
  ],
  "bytecode": "0x60806040523480156200001157600080fd5b506040518060400160405280600681526020017f4c6971756f7200000000000000000000000000000000000000000000000000008152506040518060400160405280600381526020017f4c495100000000000000000000000000000000000000000000000000000000008152508181620000986301ffc9a760e01b6200015d60201b60201c565b620000b06380ac58cd60e01b6200015d60201b60201c565b620000c863780e9d6360e01b6200015d60201b60201c565b8160099080519060200190620000e092919062000235565b5080600a9080519060200190620000f992919062000235565b5062000112635b5e139f60e01b6200015d60201b60201c565b5050505033600e60006101000a81548173ffffffffffffffffffffffffffffffffffffffff021916908373ffffffffffffffffffffffffffffffffffffffff16021790555062000359565b63ffffffff60e01b817bffffffffffffffffffffffffffffffffffffffffffffffffffffffff19161415620001c9576040517f08c379a0000000000000000000000000000000000000000000000000000000008152600401620001c09062000326565b60405180910390fd5b6001600080837bffffffffffffffffffffffffffffffffffffffffffffffffffffffff19167bffffffffffffffffffffffffffffffffffffffffffffffffffffffff1916815260200190815260200160002060006101000a81548160ff02191690831515021790555050565b828054600181600116156101000203166002900490600052602060002090601f016020900481019282601f106200027857805160ff1916838001178555620002a9565b82800160010185558215620002a9579182015b82811115620002a85782518255916020019190600101906200028b565b5b509050620002b89190620002bc565b5090565b620002e191905b80821115620002dd576000816000905550600101620002c3565b5090565b90565b6000620002f3601c8362000348565b91507f4552433136353a20696e76616c696420696e74657266616365206964000000006000830152602082019050919050565b600060208201905081810360008301526200034181620002e4565b9050919050565b600082825260208201905092915050565b61389280620003696000396000f3fe60806040526004361061011f5760003560e01c80636352211e116100a0578063a55a2abf11610064578063a55a2abf1461040d578063b88d4fde1461043d578063c87b56dd14610466578063dba124b4146104a3578063e985e9c5146104e05761011f565b80636352211e146103145780636c0360eb1461035157806370a082311461037c57806395d89b41146103b9578063a22cb465146103e45761011f565b806318160ddd116100e757806318160ddd1461021d57806323b872dd146102485780632f745c591461027157806342842e0e146102ae5780634f6ccce7146102d75761011f565b806301ffc9a71461012457806304f801ee1461016157806306fdde031461018c578063081812fc146101b7578063095ea7b3146101f4575b600080fd5b34801561013057600080fd5b5061014b60048036036101469190810190612b02565b61051d565b604051610158919061341a565b60405180910390f35b34801561016d57600080fd5b50610176610584565b604051610183919061341a565b60405180910390f35b34801561019857600080fd5b506101a161058d565b6040516101ae9190613435565b60405180910390f35b3480156101c357600080fd5b506101de60048036036101d99190810190612c43565b61062f565b6040516101eb91906133b3565b60405180910390f35b34801561020057600080fd5b5061021b60048036036102169190810190612ac6565b6106b4565b005b34801561022957600080fd5b5061023261086f565b60405161023f9190613617565b60405180910390f35b34801561025457600080fd5b5061026f600480360361026a91908101906129c0565b61087c565b005b34801561027d57600080fd5b5061029860048036036102939190810190612ac6565b6108dc565b6040516102a59190613617565b60405180910390f35b3480156102ba57600080fd5b506102d560048036036102d091908101906129c0565b610985565b005b3480156102e357600080fd5b506102fe60048036036102f99190810190612c43565b6109a5565b60405161030b9190613617565b60405180910390f35b34801561032057600080fd5b5061033b60048036036103369190810190612c43565b610a0f565b60405161034891906133b3565b60405180910390f35b34801561035d57600080fd5b50610366610ac1565b6040516103739190613435565b60405180910390f35b34801561038857600080fd5b506103a3600480360361039e919081019061295b565b610b63565b6040516103b09190613617565b60405180910390f35b3480156103c557600080fd5b506103ce610c22565b6040516103db9190613435565b60405180910390f35b3480156103f057600080fd5b5061040b60048036036104069190810190612a8a565b610cc4565b005b61042760048036036104229190810190612b54565b610e45565b604051610434919061341a565b60405180910390f35b34801561044957600080fd5b50610464600480360361045f9190810190612a0f565b610fdb565b005b34801561047257600080fd5b5061048d60048036036104889190810190612c43565b61103d565b60405161049a9190613435565b60405180910390f35b3480156104af57600080fd5b506104ca60048036036104c59190810190612c43565b611185565b6040516104d79190613435565b60405180910390f35b3480156104ec57600080fd5b5061050760048036036105029190810190612984565b611672565b604051610514919061341a565b60405180910390f35b6000806000837bffffffffffffffffffffffffffffffffffffffffffffffffffffffff19167bffffffffffffffffffffffffffffffffffffffffffffffffffffffff1916815260200190815260200160002060009054906101000a900460ff169050919050565b60006001905090565b606060098054600181600116156101000203166002900480601f0160208091040260200160405190810160405280929190818152602001828054600181600116156101000203166002900480156106255780601f106105fa57610100808354040283529160200191610625565b820191906000526020600020905b81548152906001019060200180831161060857829003601f168201915b5050505050905090565b600061063a82611706565b610679576040517f08c379a000000000000000000000000000000000000000000000000000000000815260040161067090613557565b60405180910390fd5b6002600083815260200190815260200160002060009054906101000a900473ffffffffffffffffffffffffffffffffffffffff169050919050565b60006106bf82610a0f565b90508073ffffffffffffffffffffffffffffffffffffffff168373ffffffffffffffffffffffffffffffffffffffff161415610730576040517f08c379a0000000000000000000000000000000000000000000000000000000008152600401610727906135b7565b60405180910390fd5b8073ffffffffffffffffffffffffffffffffffffffff1661074f611778565b73ffffffffffffffffffffffffffffffffffffffff16148061077e575061077d81610778611778565b611672565b5b6107bd576040517f08c379a00000000000000000000000000000000000000000000000000000000081526004016107b4906134f7565b60405180910390fd5b826002600084815260200190815260200160002060006101000a81548173ffffffffffffffffffffffffffffffffffffffff021916908373ffffffffffffffffffffffffffffffffffffffff160217905550818373ffffffffffffffffffffffffffffffffffffffff168273ffffffffffffffffffffffffffffffffffffffff167f8c5be1e5ebec7d5bd14f71427d1e84f3dd0314c0f7b2291e5b200ac8c7c3b92560405160405180910390a4505050565b6000600780549050905090565b61088d610887611778565b82611780565b6108cc576040517f08c379a00000000000000000000000000000000000000000000000000000000081526004016108c3906135d7565b60405180910390fd5b6108d783838361185e565b505050565b60006108e783610b63565b8210610928576040517f08c379a000000000000000000000000000000000000000000000000000000000815260040161091f90613457565b60405180910390fd5b600560008473ffffffffffffffffffffffffffffffffffffffff1673ffffffffffffffffffffffffffffffffffffffff168152602001908152602001600020828154811061097257fe5b9060005260206000200154905092915050565b6109a083838360405180602001604052806000815250610fdb565b505050565b60006109af61086f565b82106109f0576040517f08c379a00000000000000000000000000000000000000000000000000000000081526004016109e7906135f7565b60405180910390fd5b600782815481106109fd57fe5b90600052602060002001549050919050565b6000806001600084815260200190815260200160002060009054906101000a900473ffffffffffffffffffffffffffffffffffffffff169050600073ffffffffffffffffffffffffffffffffffffffff168173ffffffffffffffffffffffffffffffffffffffff161415610ab8576040517f08c379a0000000000000000000000000000000000000000000000000000000008152600401610aaf90613537565b60405180910390fd5b80915050919050565b6060600b8054600181600116156101000203166002900480601f016020809104026020016040519081016040528092919081815260200182805460018160011615610100020316600290048015610b595780601f10610b2e57610100808354040283529160200191610b59565b820191906000526020600020905b815481529060010190602001808311610b3c57829003601f168201915b5050505050905090565b60008073ffffffffffffffffffffffffffffffffffffffff168273ffffffffffffffffffffffffffffffffffffffff161415610bd4576040517f08c379a0000000000000000000000000000000000000000000000000000000008152600401610bcb90613517565b60405180910390fd5b610c1b600360008473ffffffffffffffffffffffffffffffffffffffff1673ffffffffffffffffffffffffffffffffffffffff168152602001908152602001600020611882565b9050919050565b6060600a8054600181600116156101000203166002900480601f016020809104026020016040519081016040528092919081815260200182805460018160011615610100020316600290048015610cba5780601f10610c8f57610100808354040283529160200191610cba565b820191906000526020600020905b815481529060010190602001808311610c9d57829003601f168201915b5050505050905090565b610ccc611778565b73ffffffffffffffffffffffffffffffffffffffff168273ffffffffffffffffffffffffffffffffffffffff161415610d3a576040517f08c379a0000000000000000000000000000000000000000000000000000000008152600401610d31906134b7565b60405180910390fd5b8060046000610d47611778565b73ffffffffffffffffffffffffffffffffffffffff1673ffffffffffffffffffffffffffffffffffffffff16815260200190815260200160002060008473ffffffffffffffffffffffffffffffffffffffff1673ffffffffffffffffffffffffffffffffffffffff16815260200190815260200160002060006101000a81548160ff0219169083151502179055508173ffffffffffffffffffffffffffffffffffffffff16610df4611778565b73ffffffffffffffffffffffffffffffffffffffff167f17307eab39ab6107e8899845ad3d59bd9653f200f220920489ca2b5937696c3183604051610e39919061341a565b60405180910390a35050565b6000806001600d80549050019050600d6040518060c001604052808381526020018981526020018881526020018781526020018681526020018581525090806001815401808255809150509060018203906000526020600020906006020160009091929091909150600082015181600001556020820151816001019080519060200190610ed3929190612779565b506040820151816002019080519060200190610ef0929190612779565b506060820151816003019080519060200190610f0d929190612779565b506080820151816004019080519060200190610f2a929190612779565b5060a0820151816005019080519060200190610f47929190612779565b50505050600d80549050600e60009054906101000a900473ffffffffffffffffffffffffffffffffffffffff1673ffffffffffffffffffffffffffffffffffffffff163373ffffffffffffffffffffffffffffffffffffffff167fddf252ad1be2c89b69c2b068fc378daa952ba7f163c4a11628f55a4df523b3ef60405160405180910390a4600191505095945050505050565b610fec610fe6611778565b83611780565b61102b576040517f08c379a0000000000000000000000000000000000000000000000000000000008152600401611022906135d7565b60405180910390fd5b61103784848484611890565b50505050565b606061104882611706565b611087576040517f08c379a000000000000000000000000000000000000000000000000000000000815260040161107e90613597565b60405180910390fd5b6060600c60008481526020019081526020016000208054600181600116156101000203166002900480601f0160208091040260200160405190810160405280929190818152602001828054600181600116156101000203166002900480156111305780601f1061110557610100808354040283529160200191611130565b820191906000526020600020905b81548152906001019060200180831161111357829003601f168201915b505050505090506000815114156111595760405180602001604052806000815250915050611180565b600b8160405160200161116d92919061338f565b6040516020818303038152906040529150505b919050565b6060806116676040518060400160405280600c81526020017f7b6c6971756f724e616d653a0000000000000000000000000000000000000000815250600d85815481106111ce57fe5b90600052602060002090600602016001018054600181600116156101000203166002900480601f0160208091040260200160405190810160405280929190818152602001828054600181600116156101000203166002900480156112735780601f1061124857610100808354040283529160200191611273565b820191906000526020600020905b81548152906001019060200180831161125657829003601f168201915b50505050506040518060400160405280600b81526020017f73656c6c65724e616d653a000000000000000000000000000000000000000000815250600d87815481106112bb57fe5b90600052602060002090600602016002018054600181600116156101000203166002900480601f0160208091040260200160405190810160405280929190818152602001828054600181600116156101000203166002900480156113605780601f1061133557610100808354040283529160200191611360565b820191906000526020600020905b81548152906001019060200180831161134357829003601f168201915b50505050506040518060400160405280600d81526020017f697352657365727661626c653a00000000000000000000000000000000000000815250600d89815481106113a857fe5b90600052602060002090600602016003018054600181600116156101000203166002900480601f01602080910402602001604051908101604052809291908181526020018280546001816001161561010002031660029004801561144d5780601f106114225761010080835404028352916020019161144d565b820191906000526020600020905b81548152906001019060200180831161143057829003601f168201915b50505050506040518060400160405280600b81526020017f6172726976616c4461793a000000000000000000000000000000000000000000815250600d8b8154811061149557fe5b90600052602060002090600602016004018054600181600116156101000203166002900480601f01602080910402602001604051908101604052809291908181526020018280546001816001161561010002031660029004801561153a5780601f1061150f5761010080835404028352916020019161153a565b820191906000526020600020905b81548152906001019060200180831161151d57829003601f168201915b50505050506040518060400160405280600d81526020017f7265736572766553636f72653a00000000000000000000000000000000000000815250600d8d8154811061158257fe5b90600052602060002090600602016005018054600181600116156101000203166002900480601f0160208091040260200160405190810160405280929190818152602001828054600181600116156101000203166002900480156116275780601f106115fc57610100808354040283529160200191611627565b820191906000526020600020905b81548152906001019060200180831161160a57829003601f168201915b50505050506040518060400160405280600181526020017f7d000000000000000000000000000000000000000000000000000000000000008152506118ec565b905080915050919050565b6000600460008473ffffffffffffffffffffffffffffffffffffffff1673ffffffffffffffffffffffffffffffffffffffff16815260200190815260200160002060008373ffffffffffffffffffffffffffffffffffffffff1673ffffffffffffffffffffffffffffffffffffffff16815260200190815260200160002060009054906101000a900460ff16905092915050565b6000806001600084815260200190815260200160002060009054906101000a900473ffffffffffffffffffffffffffffffffffffffff169050600073ffffffffffffffffffffffffffffffffffffffff168173ffffffffffffffffffffffffffffffffffffffff161415915050919050565b600033905090565b600061178b82611706565b6117ca576040517f08c379a00000000000000000000000000000000000000000000000000000000081526004016117c1906134d7565b60405180910390fd5b60006117d583610a0f565b90508073ffffffffffffffffffffffffffffffffffffffff168473ffffffffffffffffffffffffffffffffffffffff16148061184457508373ffffffffffffffffffffffffffffffffffffffff1661182c8461062f565b73ffffffffffffffffffffffffffffffffffffffff16145b8061185557506118548185611672565b5b91505092915050565b611869838383611f04565b6118738382612133565b61187d82826122d1565b505050565b600081600001549050919050565b61189b84848461185e565b6118a784848484612398565b6118e6576040517f08c379a00000000000000000000000000000000000000000000000000000000081526004016118dd90613477565b60405180910390fd5b50505050565b6060808c905060608c905060608c905060608c905060608c905060608c905060608c905060608c905060608c905060608c905060608c905060608a518c51016040519080825280601f01601f19166020018201604052801561195d5781602001600182028038833980820191505090505b509050600080905060008090505b8d518160ff1610156119e4578d8160ff168151811061198657fe5b602001015160f81c60f81b838360ff16815181106119a057fe5b60200101907effffffffffffffffffffffffffffffffffffffffffffffffffffffffffffff1916908160001a9053508180600101925050808060010191505061196b565b5060008090505b8c518160ff161015611a64578c8160ff1681518110611a0657fe5b602001015160f81c60f81b838360ff1681518110611a2057fe5b60200101907effffffffffffffffffffffffffffffffffffffffffffffffffffffffffffff1916908160001a905350818060010192505080806001019150506119eb565b5060008090505b8b518160ff161015611ae4578b8160ff1681518110611a8657fe5b602001015160f81c60f81b838360ff1681518110611aa057fe5b60200101907effffffffffffffffffffffffffffffffffffffffffffffffffffffffffffff1916908160001a90535081806001019250508080600101915050611a6b565b5060008090505b8a518160ff161015611b64578a8160ff1681518110611b0657fe5b602001015160f81c60f81b838360ff1681518110611b2057fe5b60200101907effffffffffffffffffffffffffffffffffffffffffffffffffffffffffffff1916908160001a90535081806001019250508080600101915050611aeb565b5060008090505b89518160ff161015611be457898160ff1681518110611b8657fe5b602001015160f81c60f81b838360ff1681518110611ba057fe5b60200101907effffffffffffffffffffffffffffffffffffffffffffffffffffffffffffff1916908160001a90535081806001019250508080600101915050611b6b565b5060008090505b88518160ff161015611c6457888160ff1681518110611c0657fe5b602001015160f81c60f81b838360ff1681518110611c2057fe5b60200101907effffffffffffffffffffffffffffffffffffffffffffffffffffffffffffff1916908160001a90535081806001019250508080600101915050611beb565b5060008090505b87518160ff161015611ce457878160ff1681518110611c8657fe5b602001015160f81c60f81b838360ff1681518110611ca057fe5b60200101907effffffffffffffffffffffffffffffffffffffffffffffffffffffffffffff1916908160001a90535081806001019250508080600101915050611c6b565b5060008090505b86518160ff161015611d6457868160ff1681518110611d0657fe5b602001015160f81c60f81b838360ff1681518110611d2057fe5b60200101907effffffffffffffffffffffffffffffffffffffffffffffffffffffffffffff1916908160001a90535081806001019250508080600101915050611ceb565b5060008090505b85518160ff161015611de457858160ff1681518110611d8657fe5b602001015160f81c60f81b838360ff1681518110611da057fe5b60200101907effffffffffffffffffffffffffffffffffffffffffffffffffffffffffffff1916908160001a90535081806001019250508080600101915050611d6b565b5060008090505b84518160ff161015611e6457848160ff1681518110611e0657fe5b602001015160f81c60f81b838360ff1681518110611e2057fe5b60200101907effffffffffffffffffffffffffffffffffffffffffffffffffffffffffffff1916908160001a90535081806001019250508080600101915050611deb565b5060008090505b83518160ff161015611ee457838160ff1681518110611e8657fe5b602001015160f81c60f81b838360ff1681518110611ea057fe5b60200101907effffffffffffffffffffffffffffffffffffffffffffffffffffffffffffff1916908160001a90535081806001019250508080600101915050611e6b565b50819d50505050505050505050505050509b9a5050505050505050505050565b8273ffffffffffffffffffffffffffffffffffffffff16611f2482610a0f565b73ffffffffffffffffffffffffffffffffffffffff1614611f7a576040517f08c379a0000000000000000000000000000000000000000000000000000000008152600401611f7190613577565b60405180910390fd5b600073ffffffffffffffffffffffffffffffffffffffff168273ffffffffffffffffffffffffffffffffffffffff161415611fea576040517f08c379a0000000000000000000000000000000000000000000000000000000008152600401611fe190613497565b60405180910390fd5b611ff381612592565b61203a600360008573ffffffffffffffffffffffffffffffffffffffff1673ffffffffffffffffffffffffffffffffffffffff168152602001908152602001600020612650565b612081600360008473ffffffffffffffffffffffffffffffffffffffff1673ffffffffffffffffffffffffffffffffffffffff168152602001908152602001600020612673565b816001600083815260200190815260200160002060006101000a81548173ffffffffffffffffffffffffffffffffffffffff021916908373ffffffffffffffffffffffffffffffffffffffff160217905550808273ffffffffffffffffffffffffffffffffffffffff168473ffffffffffffffffffffffffffffffffffffffff167fddf252ad1be2c89b69c2b068fc378daa952ba7f163c4a11628f55a4df523b3ef60405160405180910390a4505050565b600061218b6001600560008673ffffffffffffffffffffffffffffffffffffffff1673ffffffffffffffffffffffffffffffffffffffff1681526020019081526020016000208054905061268990919063ffffffff16565b9050600060066000848152602001908152602001600020549050818114612278576000600560008673ffffffffffffffffffffffffffffffffffffffff1673ffffffffffffffffffffffffffffffffffffffff16815260200190815260200160002083815481106121f857fe5b9060005260206000200154905080600560008773ffffffffffffffffffffffffffffffffffffffff1673ffffffffffffffffffffffffffffffffffffffff168152602001908152602001600020838154811061225057fe5b9060005260206000200181905550816006600083815260200190815260200160002081905550505b600560008573ffffffffffffffffffffffffffffffffffffffff1673ffffffffffffffffffffffffffffffffffffffff1681526020019081526020016000208054809190600190036122ca91906127f9565b5050505050565b600560008373ffffffffffffffffffffffffffffffffffffffff1673ffffffffffffffffffffffffffffffffffffffff168152602001908152602001600020805490506006600083815260200190815260200160002081905550600560008373ffffffffffffffffffffffffffffffffffffffff1673ffffffffffffffffffffffffffffffffffffffff1681526020019081526020016000208190806001815401808255809150509060018203906000526020600020016000909192909190915055505050565b60006123b98473ffffffffffffffffffffffffffffffffffffffff166126d3565b6123c6576001905061258a565b600060608573ffffffffffffffffffffffffffffffffffffffff168673ffffffffffffffffffffffffffffffffffffffff1663150b7a02905060e01b61240a611778565b89888860405160240161242094939291906133ce565b604051602081830303815290604052907bffffffffffffffffffffffffffffffffffffffffffffffffffffffff19166020820180517bffffffffffffffffffffffffffffffffffffffffffffffffffffffff838183161783525050505060405161248a9190613378565b6000604051808303816000865af19150503d80600081146124c7576040519150601f19603f3d011682016040523d82523d6000602084013e6124cc565b606091505b509150915081612524576000815111156124e95780518082602001fd5b6040517f08c379a000000000000000000000000000000000000000000000000000000000815260040161251b90613477565b60405180910390fd5b60008180602001905161253a9190810190612b2b565b905063150b7a0260e01b7bffffffffffffffffffffffffffffffffffffffffffffffffffffffff1916817bffffffffffffffffffffffffffffffffffffffffffffffffffffffff19161493505050505b949350505050565b600073ffffffffffffffffffffffffffffffffffffffff166002600083815260200190815260200160002060009054906101000a900473ffffffffffffffffffffffffffffffffffffffff1673ffffffffffffffffffffffffffffffffffffffff161461264d5760006002600083815260200190815260200160002060006101000a81548173ffffffffffffffffffffffffffffffffffffffff021916908373ffffffffffffffffffffffffffffffffffffffff1602179055505b50565b6126686001826000015461268990919063ffffffff16565b816000018190555050565b6001816000016000828254019250508190555050565b60006126cb83836040518060400160405280601e81526020017f536166654d6174683a207375627472616374696f6e206f766572666c6f77000081525061271e565b905092915050565b60008060007fc5d2460186f7233c927e7db2dcc703c0e500b653ca82273b7bfad8045d85a47060001b9050833f915080821415801561271557506000801b8214155b92505050919050565b6000838311158290612766576040517f08c379a000000000000000000000000000000000000000000000000000000000815260040161275d9190613435565b60405180910390fd5b5060008385039050809150509392505050565b828054600181600116156101000203166002900490600052602060002090601f016020900481019282601f106127ba57805160ff19168380011785556127e8565b828001600101855582156127e8579182015b828111156127e75782518255916020019190600101906127cc565b5b5090506127f59190612825565b5090565b8154818355818111156128205781836000526020600020918201910161281f9190612825565b5b505050565b61284791905b8082111561284357600081600090555060010161282b565b5090565b90565b600081359050612859816137f3565b92915050565b60008135905061286e8161380a565b92915050565b60008135905061288381613821565b92915050565b60008151905061289881613821565b92915050565b600082601f8301126128af57600080fd5b81356128c26128bd8261365f565b613632565b915080825260208301602083018583830111156128de57600080fd5b6128e98382846137a0565b50505092915050565b600082601f83011261290357600080fd5b81356129166129118261368b565b613632565b9150808252602083016020830185838301111561293257600080fd5b61293d8382846137a0565b50505092915050565b60008135905061295581613838565b92915050565b60006020828403121561296d57600080fd5b600061297b8482850161284a565b91505092915050565b6000806040838503121561299757600080fd5b60006129a58582860161284a565b92505060206129b68582860161284a565b9150509250929050565b6000806000606084860312156129d557600080fd5b60006129e38682870161284a565b93505060206129f48682870161284a565b9250506040612a0586828701612946565b9150509250925092565b60008060008060808587031215612a2557600080fd5b6000612a338782880161284a565b9450506020612a448782880161284a565b9350506040612a5587828801612946565b925050606085013567ffffffffffffffff811115612a7257600080fd5b612a7e8782880161289e565b91505092959194509250565b60008060408385031215612a9d57600080fd5b6000612aab8582860161284a565b9250506020612abc8582860161285f565b9150509250929050565b60008060408385031215612ad957600080fd5b6000612ae78582860161284a565b9250506020612af885828601612946565b9150509250929050565b600060208284031215612b1457600080fd5b6000612b2284828501612874565b91505092915050565b600060208284031215612b3d57600080fd5b6000612b4b84828501612889565b91505092915050565b600080600080600060a08688031215612b6c57600080fd5b600086013567ffffffffffffffff811115612b8657600080fd5b612b92888289016128f2565b955050602086013567ffffffffffffffff811115612baf57600080fd5b612bbb888289016128f2565b945050604086013567ffffffffffffffff811115612bd857600080fd5b612be4888289016128f2565b935050606086013567ffffffffffffffff811115612c0157600080fd5b612c0d888289016128f2565b925050608086013567ffffffffffffffff811115612c2a57600080fd5b612c36888289016128f2565b9150509295509295909350565b600060208284031215612c5557600080fd5b6000612c6384828501612946565b91505092915050565b612c758161372c565b82525050565b612c848161371a565b82525050565b612c938161373e565b82525050565b6000612ca4826136cc565b612cae81856136e2565b9350612cbe8185602086016137af565b612cc7816137e2565b840191505092915050565b6000612cdd826136cc565b612ce781856136f3565b9350612cf78185602086016137af565b80840191505092915050565b6000612d0e826136d7565b612d1881856136fe565b9350612d288185602086016137af565b612d31816137e2565b840191505092915050565b6000612d47826136d7565b612d51818561370f565b9350612d618185602086016137af565b80840191505092915050565b600081546001811660008114612d8a5760018114612daf57612df3565b607f6002830416612d9b818761370f565b955060ff1983168652808601935050612df3565b60028204612dbd818761370f565b9550612dc8856136b7565b60005b82811015612dea57815481890152600182019150602081019050612dcb565b82880195505050505b505092915050565b6000612e08602b836136fe565b91507f455243373231456e756d657261626c653a206f776e657220696e646578206f7560008301527f74206f6620626f756e64730000000000000000000000000000000000000000006020830152604082019050919050565b6000612e6e6032836136fe565b91507f4552433732313a207472616e7366657220746f206e6f6e20455243373231526560008301527f63656976657220696d706c656d656e74657200000000000000000000000000006020830152604082019050919050565b6000612ed46024836136fe565b91507f4552433732313a207472616e7366657220746f20746865207a65726f2061646460008301527f72657373000000000000000000000000000000000000000000000000000000006020830152604082019050919050565b6000612f3a6019836136fe565b91507f4552433732313a20617070726f766520746f2063616c6c6572000000000000006000830152602082019050919050565b6000612f7a602c836136fe565b91507f4552433732313a206f70657261746f7220717565727920666f72206e6f6e657860008301527f697374656e7420746f6b656e00000000000000000000000000000000000000006020830152604082019050919050565b6000612fe06038836136fe565b91507f4552433732313a20617070726f76652063616c6c6572206973206e6f74206f7760008301527f6e6572206e6f7220617070726f76656420666f7220616c6c00000000000000006020830152604082019050919050565b6000613046602a836136fe565b91507f4552433732313a2062616c616e636520717565727920666f7220746865207a6560008301527f726f2061646472657373000000000000000000000000000000000000000000006020830152604082019050919050565b60006130ac6029836136fe565b91507f4552433732313a206f776e657220717565727920666f72206e6f6e657869737460008301527f656e7420746f6b656e00000000000000000000000000000000000000000000006020830152604082019050919050565b6000613112602c836136fe565b91507f4552433732313a20617070726f76656420717565727920666f72206e6f6e657860008301527f697374656e7420746f6b656e00000000000000000000000000000000000000006020830152604082019050919050565b60006131786029836136fe565b91507f4552433732313a207472616e73666572206f6620746f6b656e2074686174206960008301527f73206e6f74206f776e00000000000000000000000000000000000000000000006020830152604082019050919050565b60006131de602f836136fe565b91507f4552433732314d657461646174613a2055524920717565727920666f72206e6f60008301527f6e6578697374656e7420746f6b656e00000000000000000000000000000000006020830152604082019050919050565b60006132446021836136fe565b91507f4552433732313a20617070726f76616c20746f2063757272656e74206f776e6560008301527f72000000000000000000000000000000000000000000000000000000000000006020830152604082019050919050565b60006132aa6031836136fe565b91507f4552433732313a207472616e736665722063616c6c6572206973206e6f74206f60008301527f776e6572206e6f7220617070726f7665640000000000000000000000000000006020830152604082019050919050565b6000613310602c836136fe565b91507f455243373231456e756d657261626c653a20676c6f62616c20696e646578206f60008301527f7574206f6620626f756e647300000000000000000000000000000000000000006020830152604082019050919050565b61337281613796565b82525050565b60006133848284612cd2565b915081905092915050565b600061339b8285612d6d565b91506133a78284612d3c565b91508190509392505050565b60006020820190506133c86000830184612c7b565b92915050565b60006080820190506133e36000830187612c6c565b6133f06020830186612c7b565b6133fd6040830185613369565b818103606083015261340f8184612c99565b905095945050505050565b600060208201905061342f6000830184612c8a565b92915050565b6000602082019050818103600083015261344f8184612d03565b905092915050565b6000602082019050818103600083015261347081612dfb565b9050919050565b6000602082019050818103600083015261349081612e61565b9050919050565b600060208201905081810360008301526134b081612ec7565b9050919050565b600060208201905081810360008301526134d081612f2d565b9050919050565b600060208201905081810360008301526134f081612f6d565b9050919050565b6000602082019050818103600083015261351081612fd3565b9050919050565b6000602082019050818103600083015261353081613039565b9050919050565b600060208201905081810360008301526135508161309f565b9050919050565b6000602082019050818103600083015261357081613105565b9050919050565b600060208201905081810360008301526135908161316b565b9050919050565b600060208201905081810360008301526135b0816131d1565b9050919050565b600060208201905081810360008301526135d081613237565b9050919050565b600060208201905081810360008301526135f08161329d565b9050919050565b6000602082019050818103600083015261361081613303565b9050919050565b600060208201905061362c6000830184613369565b92915050565b6000604051905081810181811067ffffffffffffffff8211171561365557600080fd5b8060405250919050565b600067ffffffffffffffff82111561367657600080fd5b601f19601f8301169050602081019050919050565b600067ffffffffffffffff8211156136a257600080fd5b601f19601f8301169050602081019050919050565b60008190508160005260206000209050919050565b600081519050919050565b600081519050919050565b600082825260208201905092915050565b600081905092915050565b600082825260208201905092915050565b600081905092915050565b600061372582613776565b9050919050565b600061373782613776565b9050919050565b60008115159050919050565b60007fffffffff0000000000000000000000000000000000000000000000000000000082169050919050565b600073ffffffffffffffffffffffffffffffffffffffff82169050919050565b6000819050919050565b82818337600083830152505050565b60005b838110156137cd5780820151818401526020810190506137b2565b838111156137dc576000848401525b50505050565b6000601f19601f8301169050919050565b6137fc8161371a565b811461380757600080fd5b50565b6138138161373e565b811461381e57600080fd5b50565b61382a8161374a565b811461383557600080fd5b50565b61384181613796565b811461384c57600080fd5b5056fea365627a7a72315820bf3d3895c68717101ce8fcd149b293685dddf243fcc44c48f56fd722ab7f557a6c6578706572696d656e74616cf564736f6c63430005100040",
  "source": "// SPDX-License-Identifier: MIT\r\npragma solidity >=0.4.22 <0.8.0;\r\npragma experimental ABIEncoderV2;\r\n\r\nimport \"../node_module/openzeppelin-solidity/contracts/token/ERC721/ERC721Full.sol\";\r\n\r\ncontract Liquor is ERC721Full {\r\n    struct Liquor {\r\n        uint256 tokenId;\r\n        string liquorName;\r\n        string sellerName;\r\n        string isReservable;\r\n        string arrivalDay;\r\n        string reserveScore;\r\n    }\r\n\r\n    Liquor[] private liquorCollection;\r\n    address private _contractOwner;\r\n\r\n    event Transfer(\r\n        address indexed _from,\r\n        address indexed _to,\r\n        uint256 indexed _tokenId\r\n    );\r\n\r\n    constructor() public ERC721Full(\"Liquor\", \"LIQ\") {\r\n        _contractOwner = msg.sender;\r\n    }\r\n\r\n    function fetchLiquor(uint256 _tokenId) public returns (string memory) {\r\n        string memory liquor =\r\n            strConnect(\r\n                \"{liquorName:\",\r\n                liquorCollection[_tokenId].liquorName,\r\n                \"sellerName:\",\r\n                liquorCollection[_tokenId].sellerName,\r\n                \"isReservable:\",\r\n                liquorCollection[_tokenId].isReservable,\r\n                \"arrivalDay:\",\r\n                liquorCollection[_tokenId].arrivalDay,\r\n                \"reserveScore:\",\r\n                liquorCollection[_tokenId].reserveScore,\r\n                \"}\"\r\n            );\r\n\r\n        return liquor;\r\n    }\r\n\r\n    function fetchAllLiquors() public view returns (bool) {\r\n        // string[] memory liquors = new string[](liquorCollection.length);\r\n        // for (uint256 i = 1; i < liquorCollection.length; i++) {\r\n        //     liquors[i] = strConnect(\r\n        //         \"{liquorName:\",\r\n        //         liquorCollection[i].liquorName,\r\n        //         \"sellerName:\",\r\n        //         liquorCollection[i].sellerName,\r\n        //         \"isReservable:\",\r\n        //         liquorCollection[i].isReservable,\r\n        //         \"arrivalDay:\",\r\n        //         liquorCollection[i].arrivalDay,\r\n        //         \"reserveScore:\",\r\n        //         liquorCollection[i].reserveScore,\r\n        //         \"}\"\r\n        //     );\r\n        // }\r\n        // return liquors[1];\r\n        return true;\r\n    }\r\n\r\n    // function updateReservability(uint256 _tokenId) external {\r\n    //     if (liquorCollection[_tokenId].isReservable == true) {\r\n    //         liquorCollection[_tokenId].isReservable = false;\r\n    //     } else {\r\n    //         liquorCollection[_tokenId].isReservable = true;\r\n    //     }\r\n    // }\r\n\r\n    function addBlockToRegister(\r\n        string memory liquorName,\r\n        string memory sellerName,\r\n        string memory isReservable,\r\n        string memory arrivalDay,\r\n        string memory reserveScore\r\n    ) public payable returns (bool) {\r\n        uint256 newTokenId = liquorCollection.length + 1;\r\n        liquorCollection.push(\r\n            Liquor(\r\n                newTokenId,\r\n                liquorName,\r\n                sellerName,\r\n                isReservable,\r\n                arrivalDay,\r\n                reserveScore\r\n            )\r\n        );\r\n        emit Transfer(msg.sender, _contractOwner, liquorCollection.length);\r\n        return true;\r\n    }\r\n\r\n    // 11\r\n    function strConnect(\r\n        string memory str1,\r\n        string memory str2,\r\n        string memory str3,\r\n        string memory str4,\r\n        string memory str5,\r\n        string memory str6,\r\n        string memory str7,\r\n        string memory str8,\r\n        string memory str9,\r\n        string memory str10,\r\n        string memory str11\r\n    ) internal pure returns (string memory) {\r\n        bytes memory strbyte1 = bytes(str1);\r\n        bytes memory strbyte2 = bytes(str2);\r\n        bytes memory strbyte3 = bytes(str3);\r\n        bytes memory strbyte4 = bytes(str4);\r\n        bytes memory strbyte5 = bytes(str5);\r\n        bytes memory strbyte6 = bytes(str6);\r\n        bytes memory strbyte7 = bytes(str7);\r\n        bytes memory strbyte8 = bytes(str8);\r\n        bytes memory strbyte9 = bytes(str9);\r\n        bytes memory strbyte10 = bytes(str10);\r\n        bytes memory strbyte11 = bytes(str11);\r\n\r\n        bytes memory str = new bytes(strbyte1.length + strbyte2.length);\r\n\r\n        uint8 point = 0;\r\n\r\n        for (uint8 j = 0; j < strbyte1.length; j++) {\r\n            str[point] = strbyte1[j];\r\n            point++;\r\n        }\r\n        for (uint8 k = 0; k < strbyte2.length; k++) {\r\n            str[point] = strbyte2[k];\r\n            point++;\r\n        }\r\n        for (uint8 k = 0; k < strbyte3.length; k++) {\r\n            str[point] = strbyte3[k];\r\n            point++;\r\n        }\r\n        for (uint8 k = 0; k < strbyte4.length; k++) {\r\n            str[point] = strbyte4[k];\r\n            point++;\r\n        }\r\n        for (uint8 k = 0; k < strbyte5.length; k++) {\r\n            str[point] = strbyte5[k];\r\n            point++;\r\n        }\r\n        for (uint8 k = 0; k < strbyte6.length; k++) {\r\n            str[point] = strbyte6[k];\r\n            point++;\r\n        }\r\n        for (uint8 k = 0; k < strbyte7.length; k++) {\r\n            str[point] = strbyte7[k];\r\n            point++;\r\n        }\r\n        for (uint8 k = 0; k < strbyte8.length; k++) {\r\n            str[point] = strbyte8[k];\r\n            point++;\r\n        }\r\n        for (uint8 k = 0; k < strbyte9.length; k++) {\r\n            str[point] = strbyte9[k];\r\n            point++;\r\n        }\r\n        for (uint8 k = 0; k < strbyte10.length; k++) {\r\n            str[point] = strbyte10[k];\r\n            point++;\r\n        }\r\n        for (uint8 k = 0; k < strbyte11.length; k++) {\r\n            str[point] = strbyte11[k];\r\n            point++;\r\n        }\r\n        return string(str);\r\n    }\r\n\r\n    // boolstring\r\n    function boolToString(bool boolean) internal pure returns (string memory) {\r\n        if (boolean == true) {\r\n            return \"true\";\r\n        } else {\r\n            return \"false\";\r\n        }\r\n    }\r\n\r\n    // string  bool \r\n    function stringToBool(string memory boolStr) internal pure returns (bool) {\r\n        if (keccak256(bytes(boolStr)) == keccak256(\"true\")) {\r\n            return true;\r\n        } else {\r\n            return false;\r\n        }\r\n    }\r\n\r\n    //uint  string \r\n    // function uintToString(uint256 v) returns (string memory) {\r\n    //     uint256 maxlength = 100;\r\n    //     bytes reversed = new bytes(maxlength);\r\n    //     uint256 i = 0;\r\n    //     while (v != 0) {\r\n    //         // 1\r\n    //         uint256 remainder = v % 10;\r\n\r\n    //         // \r\n    //         v = v / 10;\r\n\r\n    //         reversed[i++] = bytes(48 + remainder);\r\n    //     }\r\n    //     bytes memory s = new bytes(i + 1);\r\n    //     for (uint256 j = 0; j <= i; j++) {\r\n    //         s[j] = reversed[i - j];\r\n    //     }\r\n    //     string memory str = string(s);\r\n\r\n    //     return str;\r\n    // }\r\n}\r\n",
  "sourcePath": "C:/Users/jumpei.kuwata/Documents/BC_tutorial/BC_liquor/contracts/Liquor.sol",
  "compiler": {
    "name": "solc",
    "version": "0.5.16+commit.9c3226ce.Emscripten.clang"
  },
  "schemaVersion": "3.3.2",
  "updatedAt": "2020-12-21T05:43:19.696Z",
  "devdoc": {
    "methods": {
      "approve(address,uint256)": {
        "details": "Approves another address to transfer the given token ID The zero address indicates there is no approved address. There can only be one approved address per token at a given time. Can only be called by the token owner or an approved operator.",
        "params": {
          "to": "address to be approved for the given token ID",
          "tokenId": "uint256 ID of the token to be approved"
        }
      },
      "balanceOf(address)": {
        "details": "Gets the balance of the specified address.",
        "params": {
          "owner": "address to query the balance of"
        },
        "return": "uint256 representing the amount owned by the passed address"
      },
      "baseURI()": {
        "details": "Returns the base URI set via {_setBaseURI}. This will be automatically added as a preffix in {tokenURI} to each token's URI, when they are non-empty.     * _Available since v2.5.0._"
      },
      "getApproved(uint256)": {
        "details": "Gets the approved address for a token ID, or zero if no address set Reverts if the token ID does not exist.",
        "params": {
          "tokenId": "uint256 ID of the token to query the approval of"
        },
        "return": "address currently approved for the given token ID"
      },
      "isApprovedForAll(address,address)": {
        "details": "Tells whether an operator is approved by a given owner.",
        "params": {
          "operator": "operator address which you want to query the approval of",
          "owner": "owner address which you want to query the approval of"
        },
        "return": "bool whether the given operator is approved by the given owner"
      },
      "name()": {
        "details": "Gets the token name.",
        "return": "string representing the token name"
      },
      "ownerOf(uint256)": {
        "details": "Gets the owner of the specified token ID.",
        "params": {
          "tokenId": "uint256 ID of the token to query the owner of"
        },
        "return": "address currently marked as the owner of the given token ID"
      },
      "safeTransferFrom(address,address,uint256)": {
        "details": "Safely transfers the ownership of a given token ID to another address If the target address is a contract, it must implement {IERC721Receiver-onERC721Received}, which is called upon a safe transfer, and return the magic value `bytes4(keccak256(\"onERC721Received(address,address,uint256,bytes)\"))`; otherwise, the transfer is reverted. Requires the msg.sender to be the owner, approved, or operator",
        "params": {
          "from": "current owner of the token",
          "to": "address to receive the ownership of the given token ID",
          "tokenId": "uint256 ID of the token to be transferred"
        }
      },
      "safeTransferFrom(address,address,uint256,bytes)": {
        "details": "Safely transfers the ownership of a given token ID to another address If the target address is a contract, it must implement {IERC721Receiver-onERC721Received}, which is called upon a safe transfer, and return the magic value `bytes4(keccak256(\"onERC721Received(address,address,uint256,bytes)\"))`; otherwise, the transfer is reverted. Requires the _msgSender() to be the owner, approved, or operator",
        "params": {
          "_data": "bytes data to send along with a safe transfer check",
          "from": "current owner of the token",
          "to": "address to receive the ownership of the given token ID",
          "tokenId": "uint256 ID of the token to be transferred"
        }
      },
      "setApprovalForAll(address,bool)": {
        "details": "Sets or unsets the approval of a given operator An operator is allowed to transfer all tokens of the sender on their behalf.",
        "params": {
          "approved": "representing the status of the approval to be set",
          "to": "operator address to set the approval"
        }
      },
      "supportsInterface(bytes4)": {
        "details": "See {IERC165-supportsInterface}.      * Time complexity O(1), guaranteed to always use less than 30 000 gas."
      },
      "symbol()": {
        "details": "Gets the token symbol.",
        "return": "string representing the token symbol"
      },
      "tokenByIndex(uint256)": {
        "details": "Gets the token ID at a given index of all the tokens in this contract Reverts if the index is greater or equal to the total number of tokens.",
        "params": {
          "index": "uint256 representing the index to be accessed of the tokens list"
        },
        "return": "uint256 token ID at the given index of the tokens list"
      },
      "tokenOfOwnerByIndex(address,uint256)": {
        "details": "Gets the token ID at a given index of the tokens list of the requested owner.",
        "params": {
          "index": "uint256 representing the index to be accessed of the requested tokens list",
          "owner": "address owning the tokens list to be accessed"
        },
        "return": "uint256 token ID at the given index of the tokens list owned by the requested address"
      },
      "tokenURI(uint256)": {
        "details": "Returns the URI for a given token ID. May return an empty string.      * If the token's URI is non-empty and a base URI was set (via {_setBaseURI}), it will be added to the token ID's URI as a prefix.      * Reverts if the token ID does not exist."
      },
      "totalSupply()": {
        "details": "Gets the total amount of tokens stored by the contract.",
        "return": "uint256 representing the total amount of tokens"
      },
      "transferFrom(address,address,uint256)": {
        "details": "Transfers the ownership of a given token ID to another address. Usage of this method is discouraged, use {safeTransferFrom} whenever possible. Requires the msg.sender to be the owner, approved, or operator.",
        "params": {
          "from": "current owner of the token",
          "to": "address to receive the ownership of the given token ID",
          "tokenId": "uint256 ID of the token to be transferred"
        }
      }
    }
  },
  "userdoc": {
    "methods": {}
  }
}