{
  "contractName": "Liquor",
  "abi": [
    {
      "inputs": [],
      "payable": false,
      "stateMutability": "nonpayable",
      "type": "constructor"
    },
    {
      "anonymous": false,
      "inputs": [
        {
          "indexed": true,
          "internalType": "address",
          "name": "owner",
          "type": "address"
        },
        {
          "indexed": true,
          "internalType": "address",
          "name": "approved",
          "type": "address"
        },
        {
          "indexed": true,
          "internalType": "uint256",
          "name": "tokenId",
          "type": "uint256"
        }
      ],
      "name": "Approval",
      "type": "event"
    },
    {
      "anonymous": false,
      "inputs": [
        {
          "indexed": true,
          "internalType": "address",
          "name": "owner",
          "type": "address"
        },
        {
          "indexed": true,
          "internalType": "address",
          "name": "operator",
          "type": "address"
        },
        {
          "indexed": false,
          "internalType": "bool",
          "name": "approved",
          "type": "bool"
        }
      ],
      "name": "ApprovalForAll",
      "type": "event"
    },
    {
      "anonymous": false,
      "inputs": [
        {
          "indexed": true,
          "internalType": "address",
          "name": "_from",
          "type": "address"
        },
        {
          "indexed": true,
          "internalType": "address",
          "name": "_to",
          "type": "address"
        },
        {
          "indexed": true,
          "internalType": "uint256",
          "name": "_tokenId",
          "type": "uint256"
        }
      ],
      "name": "Transfer",
      "type": "event"
    },
    {
      "constant": false,
      "inputs": [
        {
          "internalType": "address",
          "name": "to",
          "type": "address"
        },
        {
          "internalType": "uint256",
          "name": "tokenId",
          "type": "uint256"
        }
      ],
      "name": "approve",
      "outputs": [],
      "payable": false,
      "stateMutability": "nonpayable",
      "type": "function"
    },
    {
      "constant": true,
      "inputs": [
        {
          "internalType": "address",
          "name": "owner",
          "type": "address"
        }
      ],
      "name": "balanceOf",
      "outputs": [
        {
          "internalType": "uint256",
          "name": "",
          "type": "uint256"
        }
      ],
      "payable": false,
      "stateMutability": "view",
      "type": "function"
    },
    {
      "constant": true,
      "inputs": [],
      "name": "baseURI",
      "outputs": [
        {
          "internalType": "string",
          "name": "",
          "type": "string"
        }
      ],
      "payable": false,
      "stateMutability": "view",
      "type": "function"
    },
    {
      "constant": true,
      "inputs": [
        {
          "internalType": "uint256",
          "name": "tokenId",
          "type": "uint256"
        }
      ],
      "name": "getApproved",
      "outputs": [
        {
          "internalType": "address",
          "name": "",
          "type": "address"
        }
      ],
      "payable": false,
      "stateMutability": "view",
      "type": "function"
    },
    {
      "constant": true,
      "inputs": [
        {
          "internalType": "address",
          "name": "owner",
          "type": "address"
        },
        {
          "internalType": "address",
          "name": "operator",
          "type": "address"
        }
      ],
      "name": "isApprovedForAll",
      "outputs": [
        {
          "internalType": "bool",
          "name": "",
          "type": "bool"
        }
      ],
      "payable": false,
      "stateMutability": "view",
      "type": "function"
    },
    {
      "constant": true,
      "inputs": [],
      "name": "name",
      "outputs": [
        {
          "internalType": "string",
          "name": "",
          "type": "string"
        }
      ],
      "payable": false,
      "stateMutability": "view",
      "type": "function"
    },
    {
      "constant": true,
      "inputs": [
        {
          "internalType": "uint256",
          "name": "tokenId",
          "type": "uint256"
        }
      ],
      "name": "ownerOf",
      "outputs": [
        {
          "internalType": "address",
          "name": "",
          "type": "address"
        }
      ],
      "payable": false,
      "stateMutability": "view",
      "type": "function"
    },
    {
      "constant": false,
      "inputs": [
        {
          "internalType": "address",
          "name": "from",
          "type": "address"
        },
        {
          "internalType": "address",
          "name": "to",
          "type": "address"
        },
        {
          "internalType": "uint256",
          "name": "tokenId",
          "type": "uint256"
        }
      ],
      "name": "safeTransferFrom",
      "outputs": [],
      "payable": false,
      "stateMutability": "nonpayable",
      "type": "function"
    },
    {
      "constant": false,
      "inputs": [
        {
          "internalType": "address",
          "name": "from",
          "type": "address"
        },
        {
          "internalType": "address",
          "name": "to",
          "type": "address"
        },
        {
          "internalType": "uint256",
          "name": "tokenId",
          "type": "uint256"
        },
        {
          "internalType": "bytes",
          "name": "_data",
          "type": "bytes"
        }
      ],
      "name": "safeTransferFrom",
      "outputs": [],
      "payable": false,
      "stateMutability": "nonpayable",
      "type": "function"
    },
    {
      "constant": false,
      "inputs": [
        {
          "internalType": "address",
          "name": "to",
          "type": "address"
        },
        {
          "internalType": "bool",
          "name": "approved",
          "type": "bool"
        }
      ],
      "name": "setApprovalForAll",
      "outputs": [],
      "payable": false,
      "stateMutability": "nonpayable",
      "type": "function"
    },
    {
      "constant": true,
      "inputs": [
        {
          "internalType": "bytes4",
          "name": "interfaceId",
          "type": "bytes4"
        }
      ],
      "name": "supportsInterface",
      "outputs": [
        {
          "internalType": "bool",
          "name": "",
          "type": "bool"
        }
      ],
      "payable": false,
      "stateMutability": "view",
      "type": "function"
    },
    {
      "constant": true,
      "inputs": [],
      "name": "symbol",
      "outputs": [
        {
          "internalType": "string",
          "name": "",
          "type": "string"
        }
      ],
      "payable": false,
      "stateMutability": "view",
      "type": "function"
    },
    {
      "constant": true,
      "inputs": [
        {
          "internalType": "uint256",
          "name": "index",
          "type": "uint256"
        }
      ],
      "name": "tokenByIndex",
      "outputs": [
        {
          "internalType": "uint256",
          "name": "",
          "type": "uint256"
        }
      ],
      "payable": false,
      "stateMutability": "view",
      "type": "function"
    },
    {
      "constant": true,
      "inputs": [
        {
          "internalType": "address",
          "name": "owner",
          "type": "address"
        },
        {
          "internalType": "uint256",
          "name": "index",
          "type": "uint256"
        }
      ],
      "name": "tokenOfOwnerByIndex",
      "outputs": [
        {
          "internalType": "uint256",
          "name": "",
          "type": "uint256"
        }
      ],
      "payable": false,
      "stateMutability": "view",
      "type": "function"
    },
    {
      "constant": true,
      "inputs": [
        {
          "internalType": "uint256",
          "name": "tokenId",
          "type": "uint256"
        }
      ],
      "name": "tokenURI",
      "outputs": [
        {
          "internalType": "string",
          "name": "",
          "type": "string"
        }
      ],
      "payable": false,
      "stateMutability": "view",
      "type": "function"
    },
    {
      "constant": true,
      "inputs": [],
      "name": "totalSupply",
      "outputs": [
        {
          "internalType": "uint256",
          "name": "",
          "type": "uint256"
        }
      ],
      "payable": false,
      "stateMutability": "view",
      "type": "function"
    },
    {
      "constant": false,
      "inputs": [
        {
          "internalType": "address",
          "name": "from",
          "type": "address"
        },
        {
          "internalType": "address",
          "name": "to",
          "type": "address"
        },
        {
          "internalType": "uint256",
          "name": "tokenId",
          "type": "uint256"
        }
      ],
      "name": "transferFrom",
      "outputs": [],
      "payable": false,
      "stateMutability": "nonpayable",
      "type": "function"
    },
    {
      "constant": true,
      "inputs": [
        {
          "internalType": "uint256",
          "name": "_tokenId",
          "type": "uint256"
        }
      ],
      "name": "fetchLiquor",
      "outputs": [
        {
          "internalType": "string",
          "name": "",
          "type": "string"
        }
      ],
      "payable": false,
      "stateMutability": "view",
      "type": "function"
    },
    {
      "constant": true,
      "inputs": [],
      "name": "fetchAllLiquors",
      "outputs": [
        {
          "internalType": "string[]",
          "name": "",
          "type": "string[]"
        }
      ],
      "payable": false,
      "stateMutability": "view",
      "type": "function"
    },
    {
      "constant": false,
      "inputs": [
        {
          "internalType": "uint256",
          "name": "_tokenId",
          "type": "uint256"
        }
      ],
      "name": "updateReservability",
      "outputs": [],
      "payable": false,
      "stateMutability": "nonpayable",
      "type": "function"
    },
    {
      "constant": false,
      "inputs": [
        {
          "internalType": "string",
          "name": "liquorName",
          "type": "string"
        },
        {
          "internalType": "string",
          "name": "sellerName",
          "type": "string"
        },
        {
          "internalType": "string",
          "name": "isReservable",
          "type": "string"
        },
        {
          "internalType": "string",
          "name": "arrivalDay",
          "type": "string"
        },
        {
          "internalType": "string",
          "name": "reserveScore",
          "type": "string"
        }
      ],
      "name": "addBlockToRegister",
      "outputs": [
        {
          "internalType": "bool",
          "name": "",
          "type": "bool"
        }
      ],
      "payable": true,
      "stateMutability": "payable",
      "type": "function"
    }
  ],
  "bytecode": "0x60806040523480156200001157600080fd5b506040518060400160405280600681526020017f4c6971756f7200000000000000000000000000000000000000000000000000008152506040518060400160405280600381526020017f4c495100000000000000000000000000000000000000000000000000000000008152508181620000986301ffc9a760e01b6200015d60201b60201c565b620000b06380ac58cd60e01b6200015d60201b60201c565b620000c863780e9d6360e01b6200015d60201b60201c565b8160099080519060200190620000e092919062000235565b5080600a9080519060200190620000f992919062000235565b5062000112635b5e139f60e01b6200015d60201b60201c565b5050505033600e60006101000a81548173ffffffffffffffffffffffffffffffffffffffff021916908373ffffffffffffffffffffffffffffffffffffffff16021790555062000359565b63ffffffff60e01b817bffffffffffffffffffffffffffffffffffffffffffffffffffffffff19161415620001c9576040517f08c379a0000000000000000000000000000000000000000000000000000000008152600401620001c09062000326565b60405180910390fd5b6001600080837bffffffffffffffffffffffffffffffffffffffffffffffffffffffff19167bffffffffffffffffffffffffffffffffffffffffffffffffffffffff1916815260200190815260200160002060006101000a81548160ff02191690831515021790555050565b828054600181600116156101000203166002900490600052602060002090601f016020900481019282601f106200027857805160ff1916838001178555620002a9565b82800160010185558215620002a9579182015b82811115620002a85782518255916020019190600101906200028b565b5b509050620002b89190620002bc565b5090565b620002e191905b80821115620002dd576000816000905550600101620002c3565b5090565b90565b6000620002f3601c8362000348565b91507f4552433136353a20696e76616c696420696e74657266616365206964000000006000830152602082019050919050565b600060208201905081810360008301526200034181620002e4565b9050919050565b600082825260208201905092915050565b6136f780620003696000396000f3fe60806040526004361061012a5760003560e01c80634f6ccce7116100ab578063a22cb4651161006f578063a22cb46514610418578063a55a2abf14610441578063b88d4fde14610471578063c87b56dd1461049a578063dba124b4146104d7578063e985e9c5146105145761012a565b80634f6ccce71461030b5780636352211e146103485780636c0360eb1461038557806370a08231146103b057806395d89b41146103ed5761012a565b806313fcb5b1116100f257806313fcb5b11461022857806318160ddd1461025157806323b872dd1461027c5780632f745c59146102a557806342842e0e146102e25761012a565b806301ffc9a71461012f57806304f801ee1461016c57806306fdde0314610197578063081812fc146101c2578063095ea7b3146101ff575b600080fd5b34801561013b57600080fd5b50610156600480360361015191908101906127d9565b610551565b604051610163919061322a565b60405180910390f35b34801561017857600080fd5b506101816105b8565b60405161018e9190613208565b60405180910390f35b3480156101a357600080fd5b506101ac610a4c565b6040516101b99190613245565b60405180910390f35b3480156101ce57600080fd5b506101e960048036036101e4919081019061291a565b610aee565b6040516101f691906131a1565b60405180910390f35b34801561020b57600080fd5b506102266004803603610221919081019061279d565b610b73565b005b34801561023457600080fd5b5061024f600480360361024a919081019061291a565b610d2e565b005b34801561025d57600080fd5b50610266610ed2565b6040516102739190613427565b60405180910390f35b34801561028857600080fd5b506102a3600480360361029e9190810190612697565b610edf565b005b3480156102b157600080fd5b506102cc60048036036102c7919081019061279d565b610f3f565b6040516102d99190613427565b60405180910390f35b3480156102ee57600080fd5b5061030960048036036103049190810190612697565b610fe8565b005b34801561031757600080fd5b50610332600480360361032d919081019061291a565b611008565b60405161033f9190613427565b60405180910390f35b34801561035457600080fd5b5061036f600480360361036a919081019061291a565b611072565b60405161037c91906131a1565b60405180910390f35b34801561039157600080fd5b5061039a611124565b6040516103a79190613245565b60405180910390f35b3480156103bc57600080fd5b506103d760048036036103d29190810190612632565b6111c6565b6040516103e49190613427565b60405180910390f35b3480156103f957600080fd5b50610402611285565b60405161040f9190613245565b60405180910390f35b34801561042457600080fd5b5061043f600480360361043a9190810190612761565b611327565b005b61045b6004803603610456919081019061282b565b6114a8565b604051610468919061322a565b60405180910390f35b34801561047d57600080fd5b50610498600480360361049391908101906126e6565b61163b565b005b3480156104a657600080fd5b506104c160048036036104bc919081019061291a565b61169d565b6040516104ce9190613245565b60405180910390f35b3480156104e357600080fd5b506104fe60048036036104f9919081019061291a565b6117e5565b60405161050b9190613245565b60405180910390f35b34801561052057600080fd5b5061053b6004803603610536919081019061265b565b6118aa565b604051610548919061322a565b60405180910390f35b6000806000837bffffffffffffffffffffffffffffffffffffffffffffffffffffffff19167bffffffffffffffffffffffffffffffffffffffffffffffffffffffff1916815260200190815260200160002060009054906101000a900460ff169050919050565b6060806005600d80549050026040519080825280602002602001820160405280156105f757816020015b60608152602001906001900390816105e25790505b509050600080905060008090505b600d80549050811015610a4357600d818154811061061f57fe5b90600052602060002090600602016001018054600181600116156101000203166002900480601f0160208091040260200160405190810160405280929190818152602001828054600181600116156101000203166002900480156106c45780601f10610699576101008083540402835291602001916106c4565b820191906000526020600020905b8154815290600101906020018083116106a757829003601f168201915b50505050508383815181106106d557fe5b6020026020010181905250600182019150600d81815481106106f357fe5b90600052602060002090600602016002018054600181600116156101000203166002900480601f0160208091040260200160405190810160405280929190818152602001828054600181600116156101000203166002900480156107985780601f1061076d57610100808354040283529160200191610798565b820191906000526020600020905b81548152906001019060200180831161077b57829003601f168201915b50505050508383815181106107a957fe5b6020026020010181905250600182019150600d81815481106107c757fe5b90600052602060002090600602016003018054600181600116156101000203166002900480601f01602080910402602001604051908101604052809291908181526020018280546001816001161561010002031660029004801561086c5780601f106108415761010080835404028352916020019161086c565b820191906000526020600020905b81548152906001019060200180831161084f57829003601f168201915b505050505083838151811061087d57fe5b6020026020010181905250600182019150600d818154811061089b57fe5b90600052602060002090600602016004018054600181600116156101000203166002900480601f0160208091040260200160405190810160405280929190818152602001828054600181600116156101000203166002900480156109405780601f1061091557610100808354040283529160200191610940565b820191906000526020600020905b81548152906001019060200180831161092357829003601f168201915b505050505083838151811061095157fe5b6020026020010181905250600182019150600d818154811061096f57fe5b90600052602060002090600602016005018054600181600116156101000203166002900480601f016020809104026020016040519081016040528092919081815260200182805460018160011615610100020316600290048015610a145780601f106109e957610100808354040283529160200191610a14565b820191906000526020600020905b8154815290600101906020018083116109f757829003601f168201915b5050505050838381518110610a2557fe5b60200260200101819052506001820191508080600101915050610605565b50819250505090565b606060098054600181600116156101000203166002900480601f016020809104026020016040519081016040528092919081815260200182805460018160011615610100020316600290048015610ae45780601f10610ab957610100808354040283529160200191610ae4565b820191906000526020600020905b815481529060010190602001808311610ac757829003601f168201915b5050505050905090565b6000610af98261193e565b610b38576040517f08c379a0000000000000000000000000000000000000000000000000000000008152600401610b2f90613367565b60405180910390fd5b6002600083815260200190815260200160002060009054906101000a900473ffffffffffffffffffffffffffffffffffffffff169050919050565b6000610b7e82611072565b90508073ffffffffffffffffffffffffffffffffffffffff168373ffffffffffffffffffffffffffffffffffffffff161415610bef576040517f08c379a0000000000000000000000000000000000000000000000000000000008152600401610be6906133c7565b60405180910390fd5b8073ffffffffffffffffffffffffffffffffffffffff16610c0e6119b0565b73ffffffffffffffffffffffffffffffffffffffff161480610c3d5750610c3c81610c376119b0565b6118aa565b5b610c7c576040517f08c379a0000000000000000000000000000000000000000000000000000000008152600401610c7390613307565b60405180910390fd5b826002600084815260200190815260200160002060006101000a81548173ffffffffffffffffffffffffffffffffffffffff021916908373ffffffffffffffffffffffffffffffffffffffff160217905550818373ffffffffffffffffffffffffffffffffffffffff168273ffffffffffffffffffffffffffffffffffffffff167f8c5be1e5ebec7d5bd14f71427d1e84f3dd0314c0f7b2291e5b200ac8c7c3b92560405160405180910390a4505050565b60011515610df1600d8381548110610d4257fe5b90600052602060002090600602016003018054600181600116156101000203166002900480601f016020809104026020016040519081016040528092919081815260200182805460018160011615610100020316600290048015610de75780601f10610dbc57610100808354040283529160200191610de7565b820191906000526020600020905b815481529060010190602001808311610dca57829003601f168201915b50505050506119b8565b15151415610e66576040518060400160405280600481526020017f7472756500000000000000000000000000000000000000000000000000000000815250600d8281548110610e3c57fe5b90600052602060002090600602016003019080519060200190610e609291906123d0565b50610ecf565b6040518060400160405280600581526020017f66616c7365000000000000000000000000000000000000000000000000000000815250600d8281548110610ea957fe5b90600052602060002090600602016003019080519060200190610ecd9291906123d0565b505b50565b6000600780549050905090565b610ef0610eea6119b0565b826119ef565b610f2f576040517f08c379a0000000000000000000000000000000000000000000000000000000008152600401610f26906133e7565b60405180910390fd5b610f3a838383611acd565b505050565b6000610f4a836111c6565b8210610f8b576040517f08c379a0000000000000000000000000000000000000000000000000000000008152600401610f8290613267565b60405180910390fd5b600560008473ffffffffffffffffffffffffffffffffffffffff1673ffffffffffffffffffffffffffffffffffffffff1681526020019081526020016000208281548110610fd557fe5b9060005260206000200154905092915050565b6110038383836040518060200160405280600081525061163b565b505050565b6000611012610ed2565b8210611053576040517f08c379a000000000000000000000000000000000000000000000000000000000815260040161104a90613407565b60405180910390fd5b6007828154811061106057fe5b90600052602060002001549050919050565b6000806001600084815260200190815260200160002060009054906101000a900473ffffffffffffffffffffffffffffffffffffffff169050600073ffffffffffffffffffffffffffffffffffffffff168173ffffffffffffffffffffffffffffffffffffffff16141561111b576040517f08c379a000000000000000000000000000000000000000000000000000000000815260040161111290613347565b60405180910390fd5b80915050919050565b6060600b8054600181600116156101000203166002900480601f0160208091040260200160405190810160405280929190818152602001828054600181600116156101000203166002900480156111bc5780601f10611191576101008083540402835291602001916111bc565b820191906000526020600020905b81548152906001019060200180831161119f57829003601f168201915b5050505050905090565b60008073ffffffffffffffffffffffffffffffffffffffff168273ffffffffffffffffffffffffffffffffffffffff161415611237576040517f08c379a000000000000000000000000000000000000000000000000000000000815260040161122e90613327565b60405180910390fd5b61127e600360008473ffffffffffffffffffffffffffffffffffffffff1673ffffffffffffffffffffffffffffffffffffffff168152602001908152602001600020611af1565b9050919050565b6060600a8054600181600116156101000203166002900480601f01602080910402602001604051908101604052809291908181526020018280546001816001161561010002031660029004801561131d5780601f106112f25761010080835404028352916020019161131d565b820191906000526020600020905b81548152906001019060200180831161130057829003601f168201915b5050505050905090565b61132f6119b0565b73ffffffffffffffffffffffffffffffffffffffff168273ffffffffffffffffffffffffffffffffffffffff16141561139d576040517f08c379a0000000000000000000000000000000000000000000000000000000008152600401611394906132c7565b60405180910390fd5b80600460006113aa6119b0565b73ffffffffffffffffffffffffffffffffffffffff1673ffffffffffffffffffffffffffffffffffffffff16815260200190815260200160002060008473ffffffffffffffffffffffffffffffffffffffff1673ffffffffffffffffffffffffffffffffffffffff16815260200190815260200160002060006101000a81548160ff0219169083151502179055508173ffffffffffffffffffffffffffffffffffffffff166114576119b0565b73ffffffffffffffffffffffffffffffffffffffff167f17307eab39ab6107e8899845ad3d59bd9653f200f220920489ca2b5937696c318360405161149c919061322a565b60405180910390a35050565b600080600d805490509050600d6040518060c001604052808381526020018981526020018881526020018781526020018681526020018581525090806001815401808255809150509060018203906000526020600020906006020160009091929091909150600082015181600001556020820151816001019080519060200190611533929190612450565b506040820151816002019080519060200190611550929190612450565b50606082015181600301908051906020019061156d929190612450565b50608082015181600401908051906020019061158a929190612450565b5060a08201518160050190805190602001906115a7929190612450565b50505050600d80549050600e60009054906101000a900473ffffffffffffffffffffffffffffffffffffffff1673ffffffffffffffffffffffffffffffffffffffff163373ffffffffffffffffffffffffffffffffffffffff167fddf252ad1be2c89b69c2b068fc378daa952ba7f163c4a11628f55a4df523b3ef60405160405180910390a4600191505095945050505050565b61164c6116466119b0565b836119ef565b61168b576040517f08c379a0000000000000000000000000000000000000000000000000000000008152600401611682906133e7565b60405180910390fd5b61169784848484611aff565b50505050565b60606116a88261193e565b6116e7576040517f08c379a00000000000000000000000000000000000000000000000000000000081526004016116de906133a7565b60405180910390fd5b6060600c60008481526020019081526020016000208054600181600116156101000203166002900480601f0160208091040260200160405190810160405280929190818152602001828054600181600116156101000203166002900480156117905780601f1061176557610100808354040283529160200191611790565b820191906000526020600020905b81548152906001019060200180831161177357829003601f168201915b505050505090506000815114156117b957604051806020016040528060008152509150506117e0565b600b816040516020016117cd929190613168565b6040516020818303038152906040529150505b919050565b606080600d83815481106117f557fe5b90600052602060002090600602016001018054600181600116156101000203166002900480601f01602080910402602001604051908101604052809291908181526020018280546001816001161561010002031660029004801561189a5780601f1061186f5761010080835404028352916020019161189a565b820191906000526020600020905b81548152906001019060200180831161187d57829003601f168201915b5050505050905080915050919050565b6000600460008473ffffffffffffffffffffffffffffffffffffffff1673ffffffffffffffffffffffffffffffffffffffff16815260200190815260200160002060008373ffffffffffffffffffffffffffffffffffffffff1673ffffffffffffffffffffffffffffffffffffffff16815260200190815260200160002060009054906101000a900460ff16905092915050565b6000806001600084815260200190815260200160002060009054906101000a900473ffffffffffffffffffffffffffffffffffffffff169050600073ffffffffffffffffffffffffffffffffffffffff168173ffffffffffffffffffffffffffffffffffffffff161415915050919050565b600033905090565b60006040516119c69061318c565b6040518091039020828051906020012014156119e557600190506119ea565b600090505b919050565b60006119fa8261193e565b611a39576040517f08c379a0000000000000000000000000000000000000000000000000000000008152600401611a30906132e7565b60405180910390fd5b6000611a4483611072565b90508073ffffffffffffffffffffffffffffffffffffffff168473ffffffffffffffffffffffffffffffffffffffff161480611ab357508373ffffffffffffffffffffffffffffffffffffffff16611a9b84610aee565b73ffffffffffffffffffffffffffffffffffffffff16145b80611ac45750611ac381856118aa565b5b91505092915050565b611ad8838383611b5b565b611ae28382611d8a565b611aec8282611f28565b505050565b600081600001549050919050565b611b0a848484611acd565b611b1684848484611fef565b611b55576040517f08c379a0000000000000000000000000000000000000000000000000000000008152600401611b4c90613287565b60405180910390fd5b50505050565b8273ffffffffffffffffffffffffffffffffffffffff16611b7b82611072565b73ffffffffffffffffffffffffffffffffffffffff1614611bd1576040517f08c379a0000000000000000000000000000000000000000000000000000000008152600401611bc890613387565b60405180910390fd5b600073ffffffffffffffffffffffffffffffffffffffff168273ffffffffffffffffffffffffffffffffffffffff161415611c41576040517f08c379a0000000000000000000000000000000000000000000000000000000008152600401611c38906132a7565b60405180910390fd5b611c4a816121e9565b611c91600360008573ffffffffffffffffffffffffffffffffffffffff1673ffffffffffffffffffffffffffffffffffffffff1681526020019081526020016000206122a7565b611cd8600360008473ffffffffffffffffffffffffffffffffffffffff1673ffffffffffffffffffffffffffffffffffffffff1681526020019081526020016000206122ca565b816001600083815260200190815260200160002060006101000a81548173ffffffffffffffffffffffffffffffffffffffff021916908373ffffffffffffffffffffffffffffffffffffffff160217905550808273ffffffffffffffffffffffffffffffffffffffff168473ffffffffffffffffffffffffffffffffffffffff167fddf252ad1be2c89b69c2b068fc378daa952ba7f163c4a11628f55a4df523b3ef60405160405180910390a4505050565b6000611de26001600560008673ffffffffffffffffffffffffffffffffffffffff1673ffffffffffffffffffffffffffffffffffffffff168152602001908152602001600020805490506122e090919063ffffffff16565b9050600060066000848152602001908152602001600020549050818114611ecf576000600560008673ffffffffffffffffffffffffffffffffffffffff1673ffffffffffffffffffffffffffffffffffffffff1681526020019081526020016000208381548110611e4f57fe5b9060005260206000200154905080600560008773ffffffffffffffffffffffffffffffffffffffff1673ffffffffffffffffffffffffffffffffffffffff1681526020019081526020016000208381548110611ea757fe5b9060005260206000200181905550816006600083815260200190815260200160002081905550505b600560008573ffffffffffffffffffffffffffffffffffffffff1673ffffffffffffffffffffffffffffffffffffffff168152602001908152602001600020805480919060019003611f2191906124d0565b5050505050565b600560008373ffffffffffffffffffffffffffffffffffffffff1673ffffffffffffffffffffffffffffffffffffffff168152602001908152602001600020805490506006600083815260200190815260200160002081905550600560008373ffffffffffffffffffffffffffffffffffffffff1673ffffffffffffffffffffffffffffffffffffffff1681526020019081526020016000208190806001815401808255809150509060018203906000526020600020016000909192909190915055505050565b60006120108473ffffffffffffffffffffffffffffffffffffffff1661232a565b61201d57600190506121e1565b600060608573ffffffffffffffffffffffffffffffffffffffff168673ffffffffffffffffffffffffffffffffffffffff1663150b7a02905060e01b6120616119b0565b89888860405160240161207794939291906131bc565b604051602081830303815290604052907bffffffffffffffffffffffffffffffffffffffffffffffffffffffff19166020820180517bffffffffffffffffffffffffffffffffffffffffffffffffffffffff83818316178352505050506040516120e19190613151565b6000604051808303816000865af19150503d806000811461211e576040519150601f19603f3d011682016040523d82523d6000602084013e612123565b606091505b50915091508161217b576000815111156121405780518082602001fd5b6040517f08c379a000000000000000000000000000000000000000000000000000000000815260040161217290613287565b60405180910390fd5b6000818060200190516121919190810190612802565b905063150b7a0260e01b7bffffffffffffffffffffffffffffffffffffffffffffffffffffffff1916817bffffffffffffffffffffffffffffffffffffffffffffffffffffffff19161493505050505b949350505050565b600073ffffffffffffffffffffffffffffffffffffffff166002600083815260200190815260200160002060009054906101000a900473ffffffffffffffffffffffffffffffffffffffff1673ffffffffffffffffffffffffffffffffffffffff16146122a45760006002600083815260200190815260200160002060006101000a81548173ffffffffffffffffffffffffffffffffffffffff021916908373ffffffffffffffffffffffffffffffffffffffff1602179055505b50565b6122bf600182600001546122e090919063ffffffff16565b816000018190555050565b6001816000016000828254019250508190555050565b600061232283836040518060400160405280601e81526020017f536166654d6174683a207375627472616374696f6e206f766572666c6f770000815250612375565b905092915050565b60008060007fc5d2460186f7233c927e7db2dcc703c0e500b653ca82273b7bfad8045d85a47060001b9050833f915080821415801561236c57506000801b8214155b92505050919050565b60008383111582906123bd576040517f08c379a00000000000000000000000000000000000000000000000000000000081526004016123b49190613245565b60405180910390fd5b5060008385039050809150509392505050565b828054600181600116156101000203166002900490600052602060002090601f016020900481019282601f1061241157805160ff191683800117855561243f565b8280016001018555821561243f579182015b8281111561243e578251825591602001919060010190612423565b5b50905061244c91906124fc565b5090565b828054600181600116156101000203166002900490600052602060002090601f016020900481019282601f1061249157805160ff19168380011785556124bf565b828001600101855582156124bf579182015b828111156124be5782518255916020019190600101906124a3565b5b5090506124cc91906124fc565b5090565b8154818355818111156124f7578183600052602060002091820191016124f691906124fc565b5b505050565b61251e91905b8082111561251a576000816000905550600101612502565b5090565b90565b60008135905061253081613658565b92915050565b6000813590506125458161366f565b92915050565b60008135905061255a81613686565b92915050565b60008151905061256f81613686565b92915050565b600082601f83011261258657600080fd5b81356125996125948261346f565b613442565b915080825260208301602083018583830111156125b557600080fd5b6125c0838284613605565b50505092915050565b600082601f8301126125da57600080fd5b81356125ed6125e88261349b565b613442565b9150808252602083016020830185838301111561260957600080fd5b612614838284613605565b50505092915050565b60008135905061262c8161369d565b92915050565b60006020828403121561264457600080fd5b600061265284828501612521565b91505092915050565b6000806040838503121561266e57600080fd5b600061267c85828601612521565b925050602061268d85828601612521565b9150509250929050565b6000806000606084860312156126ac57600080fd5b60006126ba86828701612521565b93505060206126cb86828701612521565b92505060406126dc8682870161261d565b9150509250925092565b600080600080608085870312156126fc57600080fd5b600061270a87828801612521565b945050602061271b87828801612521565b935050604061272c8782880161261d565b925050606085013567ffffffffffffffff81111561274957600080fd5b61275587828801612575565b91505092959194509250565b6000806040838503121561277457600080fd5b600061278285828601612521565b925050602061279385828601612536565b9150509250929050565b600080604083850312156127b057600080fd5b60006127be85828601612521565b92505060206127cf8582860161261d565b9150509250929050565b6000602082840312156127eb57600080fd5b60006127f98482850161254b565b91505092915050565b60006020828403121561281457600080fd5b600061282284828501612560565b91505092915050565b600080600080600060a0868803121561284357600080fd5b600086013567ffffffffffffffff81111561285d57600080fd5b612869888289016125c9565b955050602086013567ffffffffffffffff81111561288657600080fd5b612892888289016125c9565b945050604086013567ffffffffffffffff8111156128af57600080fd5b6128bb888289016125c9565b935050606086013567ffffffffffffffff8111156128d857600080fd5b6128e4888289016125c9565b925050608086013567ffffffffffffffff81111561290157600080fd5b61290d888289016125c9565b9150509295509295909350565b60006020828403121561292c57600080fd5b600061293a8482850161261d565b91505092915050565b600061294f8383612acd565b905092915050565b61296081613591565b82525050565b61296f8161357f565b82525050565b6000612980826134ec565b61298a8185613525565b93508360208202850161299c856134c7565b8060005b858110156129d857848403895281516129b98582612943565b94506129c483613518565b925060208a019950506001810190506129a0565b50829750879550505050505092915050565b6129f3816135a3565b82525050565b6000612a04826134f7565b612a0e8185613536565b9350612a1e818560208601613614565b612a2781613647565b840191505092915050565b6000612a3d826134f7565b612a478185613547565b9350612a57818560208601613614565b80840191505092915050565b6000612a6e8261350d565b612a788185613563565b9350612a88818560208601613614565b612a9181613647565b840191505092915050565b6000612aa78261350d565b612ab18185613574565b9350612ac1818560208601613614565b80840191505092915050565b6000612ad882613502565b612ae28185613552565b9350612af2818560208601613614565b612afb81613647565b840191505092915050565b600081546001811660008114612b235760018114612b4857612b8c565b607f6002830416612b348187613574565b955060ff1983168652808601935050612b8c565b60028204612b568187613574565b9550612b61856134d7565b60005b82811015612b8357815481890152600182019150602081019050612b64565b82880195505050505b505092915050565b6000612ba1602b83613563565b91507f455243373231456e756d657261626c653a206f776e657220696e646578206f7560008301527f74206f6620626f756e64730000000000000000000000000000000000000000006020830152604082019050919050565b6000612c07603283613563565b91507f4552433732313a207472616e7366657220746f206e6f6e20455243373231526560008301527f63656976657220696d706c656d656e74657200000000000000000000000000006020830152604082019050919050565b6000612c6d602483613563565b91507f4552433732313a207472616e7366657220746f20746865207a65726f2061646460008301527f72657373000000000000000000000000000000000000000000000000000000006020830152604082019050919050565b6000612cd3601983613563565b91507f4552433732313a20617070726f766520746f2063616c6c6572000000000000006000830152602082019050919050565b6000612d13602c83613563565b91507f4552433732313a206f70657261746f7220717565727920666f72206e6f6e657860008301527f697374656e7420746f6b656e00000000000000000000000000000000000000006020830152604082019050919050565b6000612d79600483613574565b91507f74727565000000000000000000000000000000000000000000000000000000006000830152600482019050919050565b6000612db9603883613563565b91507f4552433732313a20617070726f76652063616c6c6572206973206e6f74206f7760008301527f6e6572206e6f7220617070726f76656420666f7220616c6c00000000000000006020830152604082019050919050565b6000612e1f602a83613563565b91507f4552433732313a2062616c616e636520717565727920666f7220746865207a6560008301527f726f2061646472657373000000000000000000000000000000000000000000006020830152604082019050919050565b6000612e85602983613563565b91507f4552433732313a206f776e657220717565727920666f72206e6f6e657869737460008301527f656e7420746f6b656e00000000000000000000000000000000000000000000006020830152604082019050919050565b6000612eeb602c83613563565b91507f4552433732313a20617070726f76656420717565727920666f72206e6f6e657860008301527f697374656e7420746f6b656e00000000000000000000000000000000000000006020830152604082019050919050565b6000612f51602983613563565b91507f4552433732313a207472616e73666572206f6620746f6b656e2074686174206960008301527f73206e6f74206f776e00000000000000000000000000000000000000000000006020830152604082019050919050565b6000612fb7602f83613563565b91507f4552433732314d657461646174613a2055524920717565727920666f72206e6f60008301527f6e6578697374656e7420746f6b656e00000000000000000000000000000000006020830152604082019050919050565b600061301d602183613563565b91507f4552433732313a20617070726f76616c20746f2063757272656e74206f776e6560008301527f72000000000000000000000000000000000000000000000000000000000000006020830152604082019050919050565b6000613083603183613563565b91507f4552433732313a207472616e736665722063616c6c6572206973206e6f74206f60008301527f776e6572206e6f7220617070726f7665640000000000000000000000000000006020830152604082019050919050565b60006130e9602c83613563565b91507f455243373231456e756d657261626c653a20676c6f62616c20696e646578206f60008301527f7574206f6620626f756e647300000000000000000000000000000000000000006020830152604082019050919050565b61314b816135fb565b82525050565b600061315d8284612a32565b915081905092915050565b60006131748285612b06565b91506131808284612a9c565b91508190509392505050565b600061319782612d6c565b9150819050919050565b60006020820190506131b66000830184612966565b92915050565b60006080820190506131d16000830187612957565b6131de6020830186612966565b6131eb6040830185613142565b81810360608301526131fd81846129f9565b905095945050505050565b600060208201905081810360008301526132228184612975565b905092915050565b600060208201905061323f60008301846129ea565b92915050565b6000602082019050818103600083015261325f8184612a63565b905092915050565b6000602082019050818103600083015261328081612b94565b9050919050565b600060208201905081810360008301526132a081612bfa565b9050919050565b600060208201905081810360008301526132c081612c60565b9050919050565b600060208201905081810360008301526132e081612cc6565b9050919050565b6000602082019050818103600083015261330081612d06565b9050919050565b6000602082019050818103600083015261332081612dac565b9050919050565b6000602082019050818103600083015261334081612e12565b9050919050565b6000602082019050818103600083015261336081612e78565b9050919050565b6000602082019050818103600083015261338081612ede565b9050919050565b600060208201905081810360008301526133a081612f44565b9050919050565b600060208201905081810360008301526133c081612faa565b9050919050565b600060208201905081810360008301526133e081613010565b9050919050565b6000602082019050818103600083015261340081613076565b9050919050565b60006020820190508181036000830152613420816130dc565b9050919050565b600060208201905061343c6000830184613142565b92915050565b6000604051905081810181811067ffffffffffffffff8211171561346557600080fd5b8060405250919050565b600067ffffffffffffffff82111561348657600080fd5b601f19601f8301169050602081019050919050565b600067ffffffffffffffff8211156134b257600080fd5b601f19601f8301169050602081019050919050565b6000819050602082019050919050565b60008190508160005260206000209050919050565b600081519050919050565b600081519050919050565b600081519050919050565b600081519050919050565b6000602082019050919050565b600082825260208201905092915050565b600082825260208201905092915050565b600081905092915050565b600082825260208201905092915050565b600082825260208201905092915050565b600081905092915050565b600061358a826135db565b9050919050565b600061359c826135db565b9050919050565b60008115159050919050565b60007fffffffff0000000000000000000000000000000000000000000000000000000082169050919050565b600073ffffffffffffffffffffffffffffffffffffffff82169050919050565b6000819050919050565b82818337600083830152505050565b60005b83811015613632578082015181840152602081019050613617565b83811115613641576000848401525b50505050565b6000601f19601f8301169050919050565b6136618161357f565b811461366c57600080fd5b50565b613678816135a3565b811461368357600080fd5b50565b61368f816135af565b811461369a57600080fd5b50565b6136a6816135fb565b81146136b157600080fd5b5056fea365627a7a72315820eefccac0fad3eba10b8867ceba6ed6c62fcee4318273066ce02d5212a6bfeb596c6578706572696d656e74616cf564736f6c63430005100040",
  "source": "// SPDX-License-Identifier: MIT\r\npragma solidity >=0.4.22 <0.8.0;\r\npragma experimental ABIEncoderV2;\r\n\r\nimport \"../node_module/openzeppelin-solidity/contracts/token/ERC721/ERC721Full.sol\";\r\n\r\ncontract Liquor is ERC721Full {\r\n    struct Liquor {\r\n        uint256 tokenId;\r\n        string liquorName;\r\n        string sellerName;\r\n        string isReservable;\r\n        string arrivalDay;\r\n        string reserveScore;\r\n    }\r\n\r\n    Liquor[] private liquorCollection;\r\n    address private _contractOwner;\r\n\r\n    event Transfer(\r\n        address indexed _from,\r\n        address indexed _to,\r\n        uint256 indexed _tokenId\r\n    );\r\n\r\n    constructor() public ERC721Full(\"Liquor\", \"LIQ\") {\r\n        _contractOwner = msg.sender;\r\n    }\r\n\r\n    function fetchLiquor(uint256 _tokenId) public view returns (string memory) {\r\n        string memory liquor = liquorCollection[_tokenId].liquorName;\r\n        return liquor;\r\n    }\r\n\r\n    function fetchAllLiquors() public view returns (string[] memory) {\r\n        string[] memory liquors = new string[](liquorCollection.length * 5);\r\n        uint256 contentNumber = 0;\r\n        for (uint256 i = 0; i < liquorCollection.length; i++) {\r\n            liquors[contentNumber] = liquorCollection[i].liquorName;\r\n            contentNumber = contentNumber + 1;\r\n\r\n            liquors[contentNumber] = liquorCollection[i].sellerName;\r\n            contentNumber = contentNumber + 1;\r\n\r\n            liquors[contentNumber] = liquorCollection[i].isReservable;\r\n            contentNumber = contentNumber + 1;\r\n\r\n            liquors[contentNumber] = liquorCollection[i].arrivalDay;\r\n            contentNumber = contentNumber + 1;\r\n\r\n            liquors[contentNumber] = liquorCollection[i].reserveScore;\r\n            contentNumber = contentNumber + 1;\r\n        }\r\n        return liquors;\r\n    }\r\n\r\n    function updateReservability(uint256 _tokenId) external {\r\n        if (stringToBool(liquorCollection[_tokenId].isReservable) == true) {\r\n            liquorCollection[_tokenId].isReservable = \"true\";\r\n        } else {\r\n            liquorCollection[_tokenId].isReservable = \"false\";\r\n        }\r\n    }\r\n\r\n    function addBlockToRegister(\r\n        string memory liquorName,\r\n        string memory sellerName,\r\n        string memory isReservable,\r\n        string memory arrivalDay,\r\n        string memory reserveScore\r\n    ) public payable returns (bool) {\r\n        uint256 newTokenId = liquorCollection.length;\r\n        liquorCollection.push(\r\n            Liquor(\r\n                newTokenId,\r\n                liquorName,\r\n                sellerName,\r\n                isReservable,\r\n                arrivalDay,\r\n                reserveScore\r\n            )\r\n        );\r\n        emit Transfer(msg.sender, _contractOwner, liquorCollection.length);\r\n        return true;\r\n    }\r\n\r\n    // 11\r\n    function strConnect(\r\n        string memory str1,\r\n        string memory str2,\r\n        string memory str3,\r\n        string memory str4,\r\n        string memory str5,\r\n        string memory str6,\r\n        string memory str7,\r\n        string memory str8,\r\n        string memory str9,\r\n        string memory str10,\r\n        string memory str11\r\n    ) internal pure returns (string memory) {\r\n        bytes memory strbyte1 = bytes(str1);\r\n        bytes memory strbyte2 = bytes(str2);\r\n        bytes memory strbyte3 = bytes(str3);\r\n        bytes memory strbyte4 = bytes(str4);\r\n        bytes memory strbyte5 = bytes(str5);\r\n        bytes memory strbyte6 = bytes(str6);\r\n        bytes memory strbyte7 = bytes(str7);\r\n        bytes memory strbyte8 = bytes(str8);\r\n        bytes memory strbyte9 = bytes(str9);\r\n        bytes memory strbyte10 = bytes(str10);\r\n        bytes memory strbyte11 = bytes(str11);\r\n\r\n        bytes memory str = new bytes(strbyte1.length + strbyte2.length);\r\n\r\n        uint8 point = 0;\r\n\r\n        for (uint8 j = 0; j < strbyte1.length; j++) {\r\n            str[point] = strbyte1[j];\r\n            point++;\r\n        }\r\n        for (uint8 k = 0; k < strbyte2.length; k++) {\r\n            str[point] = strbyte2[k];\r\n            point++;\r\n        }\r\n        for (uint8 k = 0; k < strbyte3.length; k++) {\r\n            str[point] = strbyte3[k];\r\n            point++;\r\n        }\r\n        for (uint8 k = 0; k < strbyte4.length; k++) {\r\n            str[point] = strbyte4[k];\r\n            point++;\r\n        }\r\n        for (uint8 k = 0; k < strbyte5.length; k++) {\r\n            str[point] = strbyte5[k];\r\n            point++;\r\n        }\r\n        for (uint8 k = 0; k < strbyte6.length; k++) {\r\n            str[point] = strbyte6[k];\r\n            point++;\r\n        }\r\n        for (uint8 k = 0; k < strbyte7.length; k++) {\r\n            str[point] = strbyte7[k];\r\n            point++;\r\n        }\r\n        for (uint8 k = 0; k < strbyte8.length; k++) {\r\n            str[point] = strbyte8[k];\r\n            point++;\r\n        }\r\n        for (uint8 k = 0; k < strbyte9.length; k++) {\r\n            str[point] = strbyte9[k];\r\n            point++;\r\n        }\r\n        for (uint8 k = 0; k < strbyte10.length; k++) {\r\n            str[point] = strbyte10[k];\r\n            point++;\r\n        }\r\n        for (uint8 k = 0; k < strbyte11.length; k++) {\r\n            str[point] = strbyte11[k];\r\n            point++;\r\n        }\r\n        return string(str);\r\n    }\r\n\r\n    // boolstring\r\n    function boolToString(bool boolean) internal pure returns (string memory) {\r\n        if (boolean == true) {\r\n            return \"true\";\r\n        } else {\r\n            return \"false\";\r\n        }\r\n    }\r\n\r\n    // string  bool \r\n    function stringToBool(string memory boolStr) internal pure returns (bool) {\r\n        if (keccak256(bytes(boolStr)) == keccak256(\"true\")) {\r\n            return true;\r\n        } else {\r\n            return false;\r\n        }\r\n    }\r\n}\r\n",
  "sourcePath": "C:/Users/jumpei.kuwata/Documents/BC_tutorial/BC_liquor/contracts/Liquor.sol",
  "compiler": {
    "name": "solc",
    "version": "0.5.16+commit.9c3226ce.Emscripten.clang"
  },
  "schemaVersion": "3.3.2",
  "updatedAt": "2020-12-24T02:31:45.553Z",
  "networkType": "ethereum",
  "devdoc": {
    "methods": {
      "approve(address,uint256)": {
        "details": "Approves another address to transfer the given token ID The zero address indicates there is no approved address. There can only be one approved address per token at a given time. Can only be called by the token owner or an approved operator.",
        "params": {
          "to": "address to be approved for the given token ID",
          "tokenId": "uint256 ID of the token to be approved"
        }
      },
      "balanceOf(address)": {
        "details": "Gets the balance of the specified address.",
        "params": {
          "owner": "address to query the balance of"
        },
        "return": "uint256 representing the amount owned by the passed address"
      },
      "baseURI()": {
        "details": "Returns the base URI set via {_setBaseURI}. This will be automatically added as a preffix in {tokenURI} to each token's URI, when they are non-empty.     * _Available since v2.5.0._"
      },
      "getApproved(uint256)": {
        "details": "Gets the approved address for a token ID, or zero if no address set Reverts if the token ID does not exist.",
        "params": {
          "tokenId": "uint256 ID of the token to query the approval of"
        },
        "return": "address currently approved for the given token ID"
      },
      "isApprovedForAll(address,address)": {
        "details": "Tells whether an operator is approved by a given owner.",
        "params": {
          "operator": "operator address which you want to query the approval of",
          "owner": "owner address which you want to query the approval of"
        },
        "return": "bool whether the given operator is approved by the given owner"
      },
      "name()": {
        "details": "Gets the token name.",
        "return": "string representing the token name"
      },
      "ownerOf(uint256)": {
        "details": "Gets the owner of the specified token ID.",
        "params": {
          "tokenId": "uint256 ID of the token to query the owner of"
        },
        "return": "address currently marked as the owner of the given token ID"
      },
      "safeTransferFrom(address,address,uint256)": {
        "details": "Safely transfers the ownership of a given token ID to another address If the target address is a contract, it must implement {IERC721Receiver-onERC721Received}, which is called upon a safe transfer, and return the magic value `bytes4(keccak256(\"onERC721Received(address,address,uint256,bytes)\"))`; otherwise, the transfer is reverted. Requires the msg.sender to be the owner, approved, or operator",
        "params": {
          "from": "current owner of the token",
          "to": "address to receive the ownership of the given token ID",
          "tokenId": "uint256 ID of the token to be transferred"
        }
      },
      "safeTransferFrom(address,address,uint256,bytes)": {
        "details": "Safely transfers the ownership of a given token ID to another address If the target address is a contract, it must implement {IERC721Receiver-onERC721Received}, which is called upon a safe transfer, and return the magic value `bytes4(keccak256(\"onERC721Received(address,address,uint256,bytes)\"))`; otherwise, the transfer is reverted. Requires the _msgSender() to be the owner, approved, or operator",
        "params": {
          "_data": "bytes data to send along with a safe transfer check",
          "from": "current owner of the token",
          "to": "address to receive the ownership of the given token ID",
          "tokenId": "uint256 ID of the token to be transferred"
        }
      },
      "setApprovalForAll(address,bool)": {
        "details": "Sets or unsets the approval of a given operator An operator is allowed to transfer all tokens of the sender on their behalf.",
        "params": {
          "approved": "representing the status of the approval to be set",
          "to": "operator address to set the approval"
        }
      },
      "supportsInterface(bytes4)": {
        "details": "See {IERC165-supportsInterface}.      * Time complexity O(1), guaranteed to always use less than 30 000 gas."
      },
      "symbol()": {
        "details": "Gets the token symbol.",
        "return": "string representing the token symbol"
      },
      "tokenByIndex(uint256)": {
        "details": "Gets the token ID at a given index of all the tokens in this contract Reverts if the index is greater or equal to the total number of tokens.",
        "params": {
          "index": "uint256 representing the index to be accessed of the tokens list"
        },
        "return": "uint256 token ID at the given index of the tokens list"
      },
      "tokenOfOwnerByIndex(address,uint256)": {
        "details": "Gets the token ID at a given index of the tokens list of the requested owner.",
        "params": {
          "index": "uint256 representing the index to be accessed of the requested tokens list",
          "owner": "address owning the tokens list to be accessed"
        },
        "return": "uint256 token ID at the given index of the tokens list owned by the requested address"
      },
      "tokenURI(uint256)": {
        "details": "Returns the URI for a given token ID. May return an empty string.      * If the token's URI is non-empty and a base URI was set (via {_setBaseURI}), it will be added to the token ID's URI as a prefix.      * Reverts if the token ID does not exist."
      },
      "totalSupply()": {
        "details": "Gets the total amount of tokens stored by the contract.",
        "return": "uint256 representing the total amount of tokens"
      },
      "transferFrom(address,address,uint256)": {
        "details": "Transfers the ownership of a given token ID to another address. Usage of this method is discouraged, use {safeTransferFrom} whenever possible. Requires the msg.sender to be the owner, approved, or operator.",
        "params": {
          "from": "current owner of the token",
          "to": "address to receive the ownership of the given token ID",
          "tokenId": "uint256 ID of the token to be transferred"
        }
      }
    }
  },
  "userdoc": {
    "methods": {}
  }
}