{
  "contractName": "Liquor",
  "abi": [
    {
      "inputs": [],
      "payable": false,
      "stateMutability": "nonpayable",
      "type": "constructor"
    },
    {
      "anonymous": false,
      "inputs": [
        {
          "indexed": true,
          "internalType": "address",
          "name": "owner",
          "type": "address"
        },
        {
          "indexed": true,
          "internalType": "address",
          "name": "approved",
          "type": "address"
        },
        {
          "indexed": true,
          "internalType": "uint256",
          "name": "tokenId",
          "type": "uint256"
        }
      ],
      "name": "Approval",
      "type": "event"
    },
    {
      "anonymous": false,
      "inputs": [
        {
          "indexed": true,
          "internalType": "address",
          "name": "owner",
          "type": "address"
        },
        {
          "indexed": true,
          "internalType": "address",
          "name": "operator",
          "type": "address"
        },
        {
          "indexed": false,
          "internalType": "bool",
          "name": "approved",
          "type": "bool"
        }
      ],
      "name": "ApprovalForAll",
      "type": "event"
    },
    {
      "anonymous": false,
      "inputs": [
        {
          "indexed": true,
          "internalType": "address",
          "name": "from",
          "type": "address"
        },
        {
          "indexed": true,
          "internalType": "address",
          "name": "to",
          "type": "address"
        },
        {
          "indexed": true,
          "internalType": "uint256",
          "name": "tokenId",
          "type": "uint256"
        }
      ],
      "name": "Transfer",
      "type": "event"
    },
    {
      "constant": false,
      "inputs": [
        {
          "internalType": "address",
          "name": "to",
          "type": "address"
        },
        {
          "internalType": "uint256",
          "name": "tokenId",
          "type": "uint256"
        }
      ],
      "name": "approve",
      "outputs": [],
      "payable": false,
      "stateMutability": "nonpayable",
      "type": "function"
    },
    {
      "constant": true,
      "inputs": [
        {
          "internalType": "address",
          "name": "owner",
          "type": "address"
        }
      ],
      "name": "balanceOf",
      "outputs": [
        {
          "internalType": "uint256",
          "name": "",
          "type": "uint256"
        }
      ],
      "payable": false,
      "stateMutability": "view",
      "type": "function"
    },
    {
      "constant": true,
      "inputs": [],
      "name": "baseURI",
      "outputs": [
        {
          "internalType": "string",
          "name": "",
          "type": "string"
        }
      ],
      "payable": false,
      "stateMutability": "view",
      "type": "function"
    },
    {
      "constant": true,
      "inputs": [
        {
          "internalType": "uint256",
          "name": "tokenId",
          "type": "uint256"
        }
      ],
      "name": "getApproved",
      "outputs": [
        {
          "internalType": "address",
          "name": "",
          "type": "address"
        }
      ],
      "payable": false,
      "stateMutability": "view",
      "type": "function"
    },
    {
      "constant": true,
      "inputs": [
        {
          "internalType": "address",
          "name": "owner",
          "type": "address"
        },
        {
          "internalType": "address",
          "name": "operator",
          "type": "address"
        }
      ],
      "name": "isApprovedForAll",
      "outputs": [
        {
          "internalType": "bool",
          "name": "",
          "type": "bool"
        }
      ],
      "payable": false,
      "stateMutability": "view",
      "type": "function"
    },
    {
      "constant": true,
      "inputs": [],
      "name": "name",
      "outputs": [
        {
          "internalType": "string",
          "name": "",
          "type": "string"
        }
      ],
      "payable": false,
      "stateMutability": "view",
      "type": "function"
    },
    {
      "constant": true,
      "inputs": [
        {
          "internalType": "uint256",
          "name": "tokenId",
          "type": "uint256"
        }
      ],
      "name": "ownerOf",
      "outputs": [
        {
          "internalType": "address",
          "name": "",
          "type": "address"
        }
      ],
      "payable": false,
      "stateMutability": "view",
      "type": "function"
    },
    {
      "constant": false,
      "inputs": [
        {
          "internalType": "address",
          "name": "from",
          "type": "address"
        },
        {
          "internalType": "address",
          "name": "to",
          "type": "address"
        },
        {
          "internalType": "uint256",
          "name": "tokenId",
          "type": "uint256"
        }
      ],
      "name": "safeTransferFrom",
      "outputs": [],
      "payable": false,
      "stateMutability": "nonpayable",
      "type": "function"
    },
    {
      "constant": false,
      "inputs": [
        {
          "internalType": "address",
          "name": "from",
          "type": "address"
        },
        {
          "internalType": "address",
          "name": "to",
          "type": "address"
        },
        {
          "internalType": "uint256",
          "name": "tokenId",
          "type": "uint256"
        },
        {
          "internalType": "bytes",
          "name": "_data",
          "type": "bytes"
        }
      ],
      "name": "safeTransferFrom",
      "outputs": [],
      "payable": false,
      "stateMutability": "nonpayable",
      "type": "function"
    },
    {
      "constant": false,
      "inputs": [
        {
          "internalType": "address",
          "name": "to",
          "type": "address"
        },
        {
          "internalType": "bool",
          "name": "approved",
          "type": "bool"
        }
      ],
      "name": "setApprovalForAll",
      "outputs": [],
      "payable": false,
      "stateMutability": "nonpayable",
      "type": "function"
    },
    {
      "constant": true,
      "inputs": [
        {
          "internalType": "bytes4",
          "name": "interfaceId",
          "type": "bytes4"
        }
      ],
      "name": "supportsInterface",
      "outputs": [
        {
          "internalType": "bool",
          "name": "",
          "type": "bool"
        }
      ],
      "payable": false,
      "stateMutability": "view",
      "type": "function"
    },
    {
      "constant": true,
      "inputs": [],
      "name": "symbol",
      "outputs": [
        {
          "internalType": "string",
          "name": "",
          "type": "string"
        }
      ],
      "payable": false,
      "stateMutability": "view",
      "type": "function"
    },
    {
      "constant": true,
      "inputs": [
        {
          "internalType": "uint256",
          "name": "index",
          "type": "uint256"
        }
      ],
      "name": "tokenByIndex",
      "outputs": [
        {
          "internalType": "uint256",
          "name": "",
          "type": "uint256"
        }
      ],
      "payable": false,
      "stateMutability": "view",
      "type": "function"
    },
    {
      "constant": true,
      "inputs": [
        {
          "internalType": "address",
          "name": "owner",
          "type": "address"
        },
        {
          "internalType": "uint256",
          "name": "index",
          "type": "uint256"
        }
      ],
      "name": "tokenOfOwnerByIndex",
      "outputs": [
        {
          "internalType": "uint256",
          "name": "",
          "type": "uint256"
        }
      ],
      "payable": false,
      "stateMutability": "view",
      "type": "function"
    },
    {
      "constant": true,
      "inputs": [
        {
          "internalType": "uint256",
          "name": "tokenId",
          "type": "uint256"
        }
      ],
      "name": "tokenURI",
      "outputs": [
        {
          "internalType": "string",
          "name": "",
          "type": "string"
        }
      ],
      "payable": false,
      "stateMutability": "view",
      "type": "function"
    },
    {
      "constant": true,
      "inputs": [],
      "name": "totalSupply",
      "outputs": [
        {
          "internalType": "uint256",
          "name": "",
          "type": "uint256"
        }
      ],
      "payable": false,
      "stateMutability": "view",
      "type": "function"
    },
    {
      "constant": false,
      "inputs": [
        {
          "internalType": "address",
          "name": "from",
          "type": "address"
        },
        {
          "internalType": "address",
          "name": "to",
          "type": "address"
        },
        {
          "internalType": "uint256",
          "name": "tokenId",
          "type": "uint256"
        }
      ],
      "name": "transferFrom",
      "outputs": [],
      "payable": false,
      "stateMutability": "nonpayable",
      "type": "function"
    },
    {
      "constant": false,
      "inputs": [
        {
          "internalType": "uint256",
          "name": "_tokenId",
          "type": "uint256"
        }
      ],
      "name": "fetchLiquor",
      "outputs": [
        {
          "internalType": "string",
          "name": "",
          "type": "string"
        }
      ],
      "payable": false,
      "stateMutability": "nonpayable",
      "type": "function"
    },
    {
      "constant": false,
      "inputs": [],
      "name": "fetchAllLiquors",
      "outputs": [
        {
          "internalType": "string[]",
          "name": "",
          "type": "string[]"
        }
      ],
      "payable": false,
      "stateMutability": "nonpayable",
      "type": "function"
    },
    {
      "constant": false,
      "inputs": [
        {
          "internalType": "uint256",
          "name": "_tokenId",
          "type": "uint256"
        }
      ],
      "name": "updateReservability",
      "outputs": [],
      "payable": false,
      "stateMutability": "nonpayable",
      "type": "function"
    },
    {
      "constant": false,
      "inputs": [
        {
          "internalType": "string",
          "name": "liquorName",
          "type": "string"
        },
        {
          "internalType": "string",
          "name": "sellerName",
          "type": "string"
        },
        {
          "internalType": "bool",
          "name": "isReservable",
          "type": "bool"
        },
        {
          "internalType": "string",
          "name": "arrivalDay",
          "type": "string"
        },
        {
          "internalType": "string",
          "name": "reserveScore",
          "type": "string"
        }
      ],
      "name": "addBlockToRegister",
      "outputs": [],
      "payable": false,
      "stateMutability": "nonpayable",
      "type": "function"
    },
    {
      "constant": false,
      "inputs": [
        {
          "internalType": "string",
          "name": "str1",
          "type": "string"
        },
        {
          "internalType": "string",
          "name": "str2",
          "type": "string"
        },
        {
          "internalType": "string",
          "name": "str3",
          "type": "string"
        },
        {
          "internalType": "string",
          "name": "str4",
          "type": "string"
        },
        {
          "internalType": "string",
          "name": "str5",
          "type": "string"
        },
        {
          "internalType": "string",
          "name": "str6",
          "type": "string"
        },
        {
          "internalType": "string",
          "name": "str7",
          "type": "string"
        },
        {
          "internalType": "string",
          "name": "str8",
          "type": "string"
        },
        {
          "internalType": "string",
          "name": "str9",
          "type": "string"
        },
        {
          "internalType": "string",
          "name": "str10",
          "type": "string"
        },
        {
          "internalType": "string",
          "name": "str11",
          "type": "string"
        }
      ],
      "name": "strConnect",
      "outputs": [
        {
          "internalType": "string",
          "name": "",
          "type": "string"
        }
      ],
      "payable": false,
      "stateMutability": "nonpayable",
      "type": "function"
    }
  ],
  "bytecode": "0x60806040523480156200001157600080fd5b506040518060400160405280600681526020017f4c6971756f7200000000000000000000000000000000000000000000000000008152506040518060400160405280600381526020017f4c495100000000000000000000000000000000000000000000000000000000008152508181620000986301ffc9a760e01b6200015d60201b60201c565b620000b06380ac58cd60e01b6200015d60201b60201c565b620000c863780e9d6360e01b6200015d60201b60201c565b8160099080519060200190620000e092919062000235565b5080600a9080519060200190620000f992919062000235565b5062000112635b5e139f60e01b6200015d60201b60201c565b5050505033600e60006101000a81548173ffffffffffffffffffffffffffffffffffffffff021916908373ffffffffffffffffffffffffffffffffffffffff16021790555062000359565b63ffffffff60e01b817bffffffffffffffffffffffffffffffffffffffffffffffffffffffff19161415620001c9576040517f08c379a0000000000000000000000000000000000000000000000000000000008152600401620001c09062000326565b60405180910390fd5b6001600080837bffffffffffffffffffffffffffffffffffffffffffffffffffffffff19167bffffffffffffffffffffffffffffffffffffffffffffffffffffffff1916815260200190815260200160002060006101000a81548160ff02191690831515021790555050565b828054600181600116156101000203166002900490600052602060002090601f016020900481019282601f106200027857805160ff1916838001178555620002a9565b82800160010185558215620002a9579182015b82811115620002a85782518255916020019190600101906200028b565b5b509050620002b89190620002bc565b5090565b620002e191905b80821115620002dd576000816000905550600101620002c3565b5090565b90565b6000620002f3601c8362000348565b91507f4552433136353a20696e76616c696420696e74657266616365206964000000006000830152602082019050919050565b600060208201905081810360008301526200034181620002e4565b9050919050565b600082825260208201905092915050565b61401280620003696000396000f3fe608060405234801561001057600080fd5b50600436106101425760003560e01c8063511cf498116100b857806395d89b411161007c57806395d89b411461039b578063a22cb465146103b9578063b88d4fde146103d5578063c87b56dd146103f1578063dba124b414610421578063e985e9c51461045157610142565b8063511cf498146102d15780636352211e146102ed5780636c0360eb1461031d57806370a082311461033b578063770631831461036b57610142565b806313fcb5b11161010a57806313fcb5b1146101ff57806318160ddd1461021b57806323b872dd146102395780632f745c591461025557806342842e0e146102855780634f6ccce7146102a157610142565b806301ffc9a71461014757806304f801ee1461017757806306fdde0314610195578063081812fc146101b3578063095ea7b3146101e3575b600080fd5b610161600480360361015c9190810190612f69565b610481565b60405161016e9190613b45565b60405180910390f35b61017f6104e8565b60405161018c9190613b23565b60405180910390f35b61019d6109c2565b6040516101aa9190613b60565b60405180910390f35b6101cd60048036036101c8919081019061328a565b610a64565b6040516101da9190613abc565b60405180910390f35b6101fd60048036036101f89190810190612f2d565b610ae9565b005b6102196004803603610214919081019061328a565b610ca4565b005b610223610d53565b6040516102309190613d42565b60405180910390f35b610253600480360361024e9190810190612e27565b610d60565b005b61026f600480360361026a9190810190612f2d565b610dc0565b60405161027c9190613d42565b60405180910390f35b61029f600480360361029a9190810190612e27565b610e69565b005b6102bb60048036036102b6919081019061328a565b610e89565b6040516102c89190613d42565b60405180910390f35b6102eb60048036036102e69190810190612fbb565b610ef3565b005b6103076004803603610302919081019061328a565b611005565b6040516103149190613abc565b60405180910390f35b6103256110b7565b6040516103329190613b60565b60405180910390f35b61035560048036036103509190810190612dc2565b611159565b6040516103629190613d42565b60405180910390f35b61038560048036036103809190810190613092565b611218565b6040516103929190613b60565b60405180910390f35b6103a3611830565b6040516103b09190613b60565b60405180910390f35b6103d360048036036103ce9190810190612ef1565b6118d2565b005b6103ef60048036036103ea9190810190612e76565b611a53565b005b61040b6004803603610406919081019061328a565b611ab5565b6040516104189190613b60565b60405180910390f35b61043b6004803603610436919081019061328a565b611bfd565b6040516104489190613b60565b60405180910390f35b61046b60048036036104669190810190612deb565b612067565b6040516104789190613b45565b60405180910390f35b6000806000837bffffffffffffffffffffffffffffffffffffffffffffffffffffffff19167bffffffffffffffffffffffffffffffffffffffffffffffffffffffff1916815260200190815260200160002060009054906101000a900460ff169050919050565b606080600d8054905060405190808252806020026020018201604052801561052457816020015b606081526020019060019003908161050f5790505b50905060008090505b600d805490508110156109ba576109966040518060400160405280600c81526020017f7b6c6971756f724e616d653a0000000000000000000000000000000000000000815250600d838154811061058057fe5b90600052602060002090600602016001018054600181600116156101000203166002900480601f0160208091040260200160405190810160405280929190818152602001828054600181600116156101000203166002900480156106255780601f106105fa57610100808354040283529160200191610625565b820191906000526020600020905b81548152906001019060200180831161060857829003601f168201915b50505050506040518060400160405280600b81526020017f73656c6c65724e616d653a000000000000000000000000000000000000000000815250600d858154811061066d57fe5b90600052602060002090600602016002018054600181600116156101000203166002900480601f0160208091040260200160405190810160405280929190818152602001828054600181600116156101000203166002900480156107125780601f106106e757610100808354040283529160200191610712565b820191906000526020600020905b8154815290600101906020018083116106f557829003601f168201915b50505050506040518060400160405280600d81526020017f697352657365727661626c653a00000000000000000000000000000000000000815250610781600d888154811061075d57fe5b906000526020600020906006020160030160009054906101000a900460ff166120fb565b6040518060400160405280600b81526020017f6172726976616c4461793a000000000000000000000000000000000000000000815250600d89815481106107c457fe5b90600052602060002090600602016004018054600181600116156101000203166002900480601f0160208091040260200160405190810160405280929190818152602001828054600181600116156101000203166002900480156108695780601f1061083e57610100808354040283529160200191610869565b820191906000526020600020905b81548152906001019060200180831161084c57829003601f168201915b50505050506040518060400160405280600d81526020017f7265736572766553636f72653a00000000000000000000000000000000000000815250600d8b815481106108b157fe5b90600052602060002090600602016005018054600181600116156101000203166002900480601f0160208091040260200160405190810160405280929190818152602001828054600181600116156101000203166002900480156109565780601f1061092b57610100808354040283529160200191610956565b820191906000526020600020905b81548152906001019060200180831161093957829003601f168201915b50505050506040518060400160405280600181526020017f7d00000000000000000000000000000000000000000000000000000000000000815250611218565b8282815181106109a257fe5b6020026020010181905250808060010191505061052d565b508091505090565b606060098054600181600116156101000203166002900480601f016020809104026020016040519081016040528092919081815260200182805460018160011615610100020316600290048015610a5a5780601f10610a2f57610100808354040283529160200191610a5a565b820191906000526020600020905b815481529060010190602001808311610a3d57829003601f168201915b5050505050905090565b6000610a6f82612185565b610aae576040517f08c379a0000000000000000000000000000000000000000000000000000000008152600401610aa590613c82565b60405180910390fd5b6002600083815260200190815260200160002060009054906101000a900473ffffffffffffffffffffffffffffffffffffffff169050919050565b6000610af482611005565b90508073ffffffffffffffffffffffffffffffffffffffff168373ffffffffffffffffffffffffffffffffffffffff161415610b65576040517f08c379a0000000000000000000000000000000000000000000000000000000008152600401610b5c90613ce2565b60405180910390fd5b8073ffffffffffffffffffffffffffffffffffffffff16610b846121f7565b73ffffffffffffffffffffffffffffffffffffffff161480610bb35750610bb281610bad6121f7565b612067565b5b610bf2576040517f08c379a0000000000000000000000000000000000000000000000000000000008152600401610be990613c22565b60405180910390fd5b826002600084815260200190815260200160002060006101000a81548173ffffffffffffffffffffffffffffffffffffffff021916908373ffffffffffffffffffffffffffffffffffffffff160217905550818373ffffffffffffffffffffffffffffffffffffffff168273ffffffffffffffffffffffffffffffffffffffff167f8c5be1e5ebec7d5bd14f71427d1e84f3dd0314c0f7b2291e5b200ac8c7c3b92560405160405180910390a4505050565b60011515600d8281548110610cb557fe5b906000526020600020906006020160030160009054906101000a900460ff1615151415610d18576000600d8281548110610ceb57fe5b906000526020600020906006020160030160006101000a81548160ff021916908315150217905550610d50565b6001600d8281548110610d2757fe5b906000526020600020906006020160030160006101000a81548160ff0219169083151502179055505b50565b6000600780549050905090565b610d71610d6b6121f7565b826121ff565b610db0576040517f08c379a0000000000000000000000000000000000000000000000000000000008152600401610da790613d02565b60405180910390fd5b610dbb8383836122dd565b505050565b6000610dcb83611159565b8210610e0c576040517f08c379a0000000000000000000000000000000000000000000000000000000008152600401610e0390613b82565b60405180910390fd5b600560008473ffffffffffffffffffffffffffffffffffffffff1673ffffffffffffffffffffffffffffffffffffffff1681526020019081526020016000208281548110610e5657fe5b9060005260206000200154905092915050565b610e8483838360405180602001604052806000815250611a53565b505050565b6000610e93610d53565b8210610ed4576040517f08c379a0000000000000000000000000000000000000000000000000000000008152600401610ecb90613d22565b60405180910390fd5b60078281548110610ee157fe5b90600052602060002001549050919050565b60006001600d80549050019050600d6040518060c0016040528083815260200188815260200187815260200186151581526020018581526020018481525090806001815401808255809150509060018203906000526020600020906006020160009091929091909150600082015181600001556020820151816001019080519060200190610f82929190612be0565b506040820151816002019080519060200190610f9f929190612be0565b5060608201518160030160006101000a81548160ff0219169083151502179055506080820151816004019080519060200190610fdc929190612be0565b5060a0820151816005019080519060200190610ff9929190612be0565b50505050505050505050565b6000806001600084815260200190815260200160002060009054906101000a900473ffffffffffffffffffffffffffffffffffffffff169050600073ffffffffffffffffffffffffffffffffffffffff168173ffffffffffffffffffffffffffffffffffffffff1614156110ae576040517f08c379a00000000000000000000000000000000000000000000000000000000081526004016110a590613c62565b60405180910390fd5b80915050919050565b6060600b8054600181600116156101000203166002900480601f01602080910402602001604051908101604052809291908181526020018280546001816001161561010002031660029004801561114f5780601f106111245761010080835404028352916020019161114f565b820191906000526020600020905b81548152906001019060200180831161113257829003601f168201915b5050505050905090565b60008073ffffffffffffffffffffffffffffffffffffffff168273ffffffffffffffffffffffffffffffffffffffff1614156111ca576040517f08c379a00000000000000000000000000000000000000000000000000000000081526004016111c190613c42565b60405180910390fd5b611211600360008473ffffffffffffffffffffffffffffffffffffffff1673ffffffffffffffffffffffffffffffffffffffff168152602001908152602001600020612301565b9050919050565b6060808c905060608c905060608c905060608c905060608c905060608c905060608c905060608c905060608c905060608c905060608c905060608a518c51016040519080825280601f01601f1916602001820160405280156112895781602001600182028038833980820191505090505b509050600080905060008090505b8d518160ff161015611310578d8160ff16815181106112b257fe5b602001015160f81c60f81b838360ff16815181106112cc57fe5b60200101907effffffffffffffffffffffffffffffffffffffffffffffffffffffffffffff1916908160001a90535081806001019250508080600101915050611297565b5060008090505b8c518160ff161015611390578c8160ff168151811061133257fe5b602001015160f81c60f81b838360ff168151811061134c57fe5b60200101907effffffffffffffffffffffffffffffffffffffffffffffffffffffffffffff1916908160001a90535081806001019250508080600101915050611317565b5060008090505b8b518160ff161015611410578b8160ff16815181106113b257fe5b602001015160f81c60f81b838360ff16815181106113cc57fe5b60200101907effffffffffffffffffffffffffffffffffffffffffffffffffffffffffffff1916908160001a90535081806001019250508080600101915050611397565b5060008090505b8a518160ff161015611490578a8160ff168151811061143257fe5b602001015160f81c60f81b838360ff168151811061144c57fe5b60200101907effffffffffffffffffffffffffffffffffffffffffffffffffffffffffffff1916908160001a90535081806001019250508080600101915050611417565b5060008090505b89518160ff16101561151057898160ff16815181106114b257fe5b602001015160f81c60f81b838360ff16815181106114cc57fe5b60200101907effffffffffffffffffffffffffffffffffffffffffffffffffffffffffffff1916908160001a90535081806001019250508080600101915050611497565b5060008090505b88518160ff16101561159057888160ff168151811061153257fe5b602001015160f81c60f81b838360ff168151811061154c57fe5b60200101907effffffffffffffffffffffffffffffffffffffffffffffffffffffffffffff1916908160001a90535081806001019250508080600101915050611517565b5060008090505b87518160ff16101561161057878160ff16815181106115b257fe5b602001015160f81c60f81b838360ff16815181106115cc57fe5b60200101907effffffffffffffffffffffffffffffffffffffffffffffffffffffffffffff1916908160001a90535081806001019250508080600101915050611597565b5060008090505b86518160ff16101561169057868160ff168151811061163257fe5b602001015160f81c60f81b838360ff168151811061164c57fe5b60200101907effffffffffffffffffffffffffffffffffffffffffffffffffffffffffffff1916908160001a90535081806001019250508080600101915050611617565b5060008090505b85518160ff16101561171057858160ff16815181106116b257fe5b602001015160f81c60f81b838360ff16815181106116cc57fe5b60200101907effffffffffffffffffffffffffffffffffffffffffffffffffffffffffffff1916908160001a90535081806001019250508080600101915050611697565b5060008090505b84518160ff16101561179057848160ff168151811061173257fe5b602001015160f81c60f81b838360ff168151811061174c57fe5b60200101907effffffffffffffffffffffffffffffffffffffffffffffffffffffffffffff1916908160001a90535081806001019250508080600101915050611717565b5060008090505b83518160ff16101561181057838160ff16815181106117b257fe5b602001015160f81c60f81b838360ff16815181106117cc57fe5b60200101907effffffffffffffffffffffffffffffffffffffffffffffffffffffffffffff1916908160001a90535081806001019250508080600101915050611797565b50819d50505050505050505050505050509b9a5050505050505050505050565b6060600a8054600181600116156101000203166002900480601f0160208091040260200160405190810160405280929190818152602001828054600181600116156101000203166002900480156118c85780601f1061189d576101008083540402835291602001916118c8565b820191906000526020600020905b8154815290600101906020018083116118ab57829003601f168201915b5050505050905090565b6118da6121f7565b73ffffffffffffffffffffffffffffffffffffffff168273ffffffffffffffffffffffffffffffffffffffff161415611948576040517f08c379a000000000000000000000000000000000000000000000000000000000815260040161193f90613be2565b60405180910390fd5b80600460006119556121f7565b73ffffffffffffffffffffffffffffffffffffffff1673ffffffffffffffffffffffffffffffffffffffff16815260200190815260200160002060008473ffffffffffffffffffffffffffffffffffffffff1673ffffffffffffffffffffffffffffffffffffffff16815260200190815260200160002060006101000a81548160ff0219169083151502179055508173ffffffffffffffffffffffffffffffffffffffff16611a026121f7565b73ffffffffffffffffffffffffffffffffffffffff167f17307eab39ab6107e8899845ad3d59bd9653f200f220920489ca2b5937696c3183604051611a479190613b45565b60405180910390a35050565b611a64611a5e6121f7565b836121ff565b611aa3576040517f08c379a0000000000000000000000000000000000000000000000000000000008152600401611a9a90613d02565b60405180910390fd5b611aaf8484848461230f565b50505050565b6060611ac082612185565b611aff576040517f08c379a0000000000000000000000000000000000000000000000000000000008152600401611af690613cc2565b60405180910390fd5b6060600c60008481526020019081526020016000208054600181600116156101000203166002900480601f016020809104026020016040519081016040528092919081815260200182805460018160011615610100020316600290048015611ba85780601f10611b7d57610100808354040283529160200191611ba8565b820191906000526020600020905b815481529060010190602001808311611b8b57829003601f168201915b50505050509050600081511415611bd15760405180602001604052806000815250915050611bf8565b600b81604051602001611be5929190613a98565b6040516020818303038152906040529150505b919050565b60608061205c6040518060400160405280600c81526020017f7b6c6971756f724e616d653a0000000000000000000000000000000000000000815250600d8581548110611c4657fe5b90600052602060002090600602016001018054600181600116156101000203166002900480601f016020809104026020016040519081016040528092919081815260200182805460018160011615610100020316600290048015611ceb5780601f10611cc057610100808354040283529160200191611ceb565b820191906000526020600020905b815481529060010190602001808311611cce57829003601f168201915b50505050506040518060400160405280600b81526020017f73656c6c65724e616d653a000000000000000000000000000000000000000000815250600d8781548110611d3357fe5b90600052602060002090600602016002018054600181600116156101000203166002900480601f016020809104026020016040519081016040528092919081815260200182805460018160011615610100020316600290048015611dd85780601f10611dad57610100808354040283529160200191611dd8565b820191906000526020600020905b815481529060010190602001808311611dbb57829003601f168201915b50505050506040518060400160405280600d81526020017f697352657365727661626c653a00000000000000000000000000000000000000815250611e47600d8a81548110611e2357fe5b906000526020600020906006020160030160009054906101000a900460ff166120fb565b6040518060400160405280600b81526020017f6172726976616c4461793a000000000000000000000000000000000000000000815250600d8b81548110611e8a57fe5b90600052602060002090600602016004018054600181600116156101000203166002900480601f016020809104026020016040519081016040528092919081815260200182805460018160011615610100020316600290048015611f2f5780601f10611f0457610100808354040283529160200191611f2f565b820191906000526020600020905b815481529060010190602001808311611f1257829003601f168201915b50505050506040518060400160405280600d81526020017f7265736572766553636f72653a00000000000000000000000000000000000000815250600d8d81548110611f7757fe5b90600052602060002090600602016005018054600181600116156101000203166002900480601f01602080910402602001604051908101604052809291908181526020018280546001816001161561010002031660029004801561201c5780601f10611ff15761010080835404028352916020019161201c565b820191906000526020600020905b815481529060010190602001808311611fff57829003601f168201915b50505050506040518060400160405280600181526020017f7d00000000000000000000000000000000000000000000000000000000000000815250611218565b905080915050919050565b6000600460008473ffffffffffffffffffffffffffffffffffffffff1673ffffffffffffffffffffffffffffffffffffffff16815260200190815260200160002060008373ffffffffffffffffffffffffffffffffffffffff1673ffffffffffffffffffffffffffffffffffffffff16815260200190815260200160002060009054906101000a900460ff16905092915050565b6060600115158215151415612147576040518060400160405280600481526020017f74727565000000000000000000000000000000000000000000000000000000008152509050612180565b6040518060400160405280600581526020017f66616c736500000000000000000000000000000000000000000000000000000081525090505b919050565b6000806001600084815260200190815260200160002060009054906101000a900473ffffffffffffffffffffffffffffffffffffffff169050600073ffffffffffffffffffffffffffffffffffffffff168173ffffffffffffffffffffffffffffffffffffffff161415915050919050565b600033905090565b600061220a82612185565b612249576040517f08c379a000000000000000000000000000000000000000000000000000000000815260040161224090613c02565b60405180910390fd5b600061225483611005565b90508073ffffffffffffffffffffffffffffffffffffffff168473ffffffffffffffffffffffffffffffffffffffff1614806122c357508373ffffffffffffffffffffffffffffffffffffffff166122ab84610a64565b73ffffffffffffffffffffffffffffffffffffffff16145b806122d457506122d38185612067565b5b91505092915050565b6122e883838361236b565b6122f2838261259a565b6122fc8282612738565b505050565b600081600001549050919050565b61231a8484846122dd565b612326848484846127ff565b612365576040517f08c379a000000000000000000000000000000000000000000000000000000000815260040161235c90613ba2565b60405180910390fd5b50505050565b8273ffffffffffffffffffffffffffffffffffffffff1661238b82611005565b73ffffffffffffffffffffffffffffffffffffffff16146123e1576040517f08c379a00000000000000000000000000000000000000000000000000000000081526004016123d890613ca2565b60405180910390fd5b600073ffffffffffffffffffffffffffffffffffffffff168273ffffffffffffffffffffffffffffffffffffffff161415612451576040517f08c379a000000000000000000000000000000000000000000000000000000000815260040161244890613bc2565b60405180910390fd5b61245a816129f9565b6124a1600360008573ffffffffffffffffffffffffffffffffffffffff1673ffffffffffffffffffffffffffffffffffffffff168152602001908152602001600020612ab7565b6124e8600360008473ffffffffffffffffffffffffffffffffffffffff1673ffffffffffffffffffffffffffffffffffffffff168152602001908152602001600020612ada565b816001600083815260200190815260200160002060006101000a81548173ffffffffffffffffffffffffffffffffffffffff021916908373ffffffffffffffffffffffffffffffffffffffff160217905550808273ffffffffffffffffffffffffffffffffffffffff168473ffffffffffffffffffffffffffffffffffffffff167fddf252ad1be2c89b69c2b068fc378daa952ba7f163c4a11628f55a4df523b3ef60405160405180910390a4505050565b60006125f26001600560008673ffffffffffffffffffffffffffffffffffffffff1673ffffffffffffffffffffffffffffffffffffffff16815260200190815260200160002080549050612af090919063ffffffff16565b90506000600660008481526020019081526020016000205490508181146126df576000600560008673ffffffffffffffffffffffffffffffffffffffff1673ffffffffffffffffffffffffffffffffffffffff168152602001908152602001600020838154811061265f57fe5b9060005260206000200154905080600560008773ffffffffffffffffffffffffffffffffffffffff1673ffffffffffffffffffffffffffffffffffffffff16815260200190815260200160002083815481106126b757fe5b9060005260206000200181905550816006600083815260200190815260200160002081905550505b600560008573ffffffffffffffffffffffffffffffffffffffff1673ffffffffffffffffffffffffffffffffffffffff1681526020019081526020016000208054809190600190036127319190612c60565b5050505050565b600560008373ffffffffffffffffffffffffffffffffffffffff1673ffffffffffffffffffffffffffffffffffffffff168152602001908152602001600020805490506006600083815260200190815260200160002081905550600560008373ffffffffffffffffffffffffffffffffffffffff1673ffffffffffffffffffffffffffffffffffffffff1681526020019081526020016000208190806001815401808255809150509060018203906000526020600020016000909192909190915055505050565b60006128208473ffffffffffffffffffffffffffffffffffffffff16612b3a565b61282d57600190506129f1565b600060608573ffffffffffffffffffffffffffffffffffffffff168673ffffffffffffffffffffffffffffffffffffffff1663150b7a02905060e01b6128716121f7565b8988886040516024016128879493929190613ad7565b604051602081830303815290604052907bffffffffffffffffffffffffffffffffffffffffffffffffffffffff19166020820180517bffffffffffffffffffffffffffffffffffffffffffffffffffffffff83818316178352505050506040516128f19190613a81565b6000604051808303816000865af19150503d806000811461292e576040519150601f19603f3d011682016040523d82523d6000602084013e612933565b606091505b50915091508161298b576000815111156129505780518082602001fd5b6040517f08c379a000000000000000000000000000000000000000000000000000000000815260040161298290613ba2565b60405180910390fd5b6000818060200190516129a19190810190612f92565b905063150b7a0260e01b7bffffffffffffffffffffffffffffffffffffffffffffffffffffffff1916817bffffffffffffffffffffffffffffffffffffffffffffffffffffffff19161493505050505b949350505050565b600073ffffffffffffffffffffffffffffffffffffffff166002600083815260200190815260200160002060009054906101000a900473ffffffffffffffffffffffffffffffffffffffff1673ffffffffffffffffffffffffffffffffffffffff1614612ab45760006002600083815260200190815260200160002060006101000a81548173ffffffffffffffffffffffffffffffffffffffff021916908373ffffffffffffffffffffffffffffffffffffffff1602179055505b50565b612acf60018260000154612af090919063ffffffff16565b816000018190555050565b6001816000016000828254019250508190555050565b6000612b3283836040518060400160405280601e81526020017f536166654d6174683a207375627472616374696f6e206f766572666c6f770000815250612b85565b905092915050565b60008060007fc5d2460186f7233c927e7db2dcc703c0e500b653ca82273b7bfad8045d85a47060001b9050833f9150808214158015612b7c57506000801b8214155b92505050919050565b6000838311158290612bcd576040517f08c379a0000000000000000000000000000000000000000000000000000000008152600401612bc49190613b60565b60405180910390fd5b5060008385039050809150509392505050565b828054600181600116156101000203166002900490600052602060002090601f016020900481019282601f10612c2157805160ff1916838001178555612c4f565b82800160010185558215612c4f579182015b82811115612c4e578251825591602001919060010190612c33565b5b509050612c5c9190612c8c565b5090565b815481835581811115612c8757818360005260206000209182019101612c869190612c8c565b5b505050565b612cae91905b80821115612caa576000816000905550600101612c92565b5090565b90565b600081359050612cc081613f73565b92915050565b600081359050612cd581613f8a565b92915050565b600081359050612cea81613fa1565b92915050565b600081519050612cff81613fa1565b92915050565b600082601f830112612d1657600080fd5b8135612d29612d2482613d8a565b613d5d565b91508082526020830160208301858383011115612d4557600080fd5b612d50838284613f20565b50505092915050565b600082601f830112612d6a57600080fd5b8135612d7d612d7882613db6565b613d5d565b91508082526020830160208301858383011115612d9957600080fd5b612da4838284613f20565b50505092915050565b600081359050612dbc81613fb8565b92915050565b600060208284031215612dd457600080fd5b6000612de284828501612cb1565b91505092915050565b60008060408385031215612dfe57600080fd5b6000612e0c85828601612cb1565b9250506020612e1d85828601612cb1565b9150509250929050565b600080600060608486031215612e3c57600080fd5b6000612e4a86828701612cb1565b9350506020612e5b86828701612cb1565b9250506040612e6c86828701612dad565b9150509250925092565b60008060008060808587031215612e8c57600080fd5b6000612e9a87828801612cb1565b9450506020612eab87828801612cb1565b9350506040612ebc87828801612dad565b925050606085013567ffffffffffffffff811115612ed957600080fd5b612ee587828801612d05565b91505092959194509250565b60008060408385031215612f0457600080fd5b6000612f1285828601612cb1565b9250506020612f2385828601612cc6565b9150509250929050565b60008060408385031215612f4057600080fd5b6000612f4e85828601612cb1565b9250506020612f5f85828601612dad565b9150509250929050565b600060208284031215612f7b57600080fd5b6000612f8984828501612cdb565b91505092915050565b600060208284031215612fa457600080fd5b6000612fb284828501612cf0565b91505092915050565b600080600080600060a08688031215612fd357600080fd5b600086013567ffffffffffffffff811115612fed57600080fd5b612ff988828901612d59565b955050602086013567ffffffffffffffff81111561301657600080fd5b61302288828901612d59565b945050604061303388828901612cc6565b935050606086013567ffffffffffffffff81111561305057600080fd5b61305c88828901612d59565b925050608086013567ffffffffffffffff81111561307957600080fd5b61308588828901612d59565b9150509295509295909350565b60008060008060008060008060008060006101608c8e0312156130b457600080fd5b60008c013567ffffffffffffffff8111156130ce57600080fd5b6130da8e828f01612d59565b9b505060208c013567ffffffffffffffff8111156130f757600080fd5b6131038e828f01612d59565b9a505060408c013567ffffffffffffffff81111561312057600080fd5b61312c8e828f01612d59565b99505060608c013567ffffffffffffffff81111561314957600080fd5b6131558e828f01612d59565b98505060808c013567ffffffffffffffff81111561317257600080fd5b61317e8e828f01612d59565b97505060a08c013567ffffffffffffffff81111561319b57600080fd5b6131a78e828f01612d59565b96505060c08c013567ffffffffffffffff8111156131c457600080fd5b6131d08e828f01612d59565b95505060e08c013567ffffffffffffffff8111156131ed57600080fd5b6131f98e828f01612d59565b9450506101008c013567ffffffffffffffff81111561321757600080fd5b6132238e828f01612d59565b9350506101208c013567ffffffffffffffff81111561324157600080fd5b61324d8e828f01612d59565b9250506101408c013567ffffffffffffffff81111561326b57600080fd5b6132778e828f01612d59565b9150509295989b509295989b9093969950565b60006020828403121561329c57600080fd5b60006132aa84828501612dad565b91505092915050565b60006132bf838361343d565b905092915050565b6132d081613eac565b82525050565b6132df81613e9a565b82525050565b60006132f082613e07565b6132fa8185613e40565b93508360208202850161330c85613de2565b8060005b85811015613348578484038952815161332985826132b3565b945061333483613e33565b925060208a01995050600181019050613310565b50829750879550505050505092915050565b61336381613ebe565b82525050565b600061337482613e12565b61337e8185613e51565b935061338e818560208601613f2f565b61339781613f62565b840191505092915050565b60006133ad82613e12565b6133b78185613e62565b93506133c7818560208601613f2f565b80840191505092915050565b60006133de82613e28565b6133e88185613e7e565b93506133f8818560208601613f2f565b61340181613f62565b840191505092915050565b600061341782613e28565b6134218185613e8f565b9350613431818560208601613f2f565b80840191505092915050565b600061344882613e1d565b6134528185613e6d565b9350613462818560208601613f2f565b61346b81613f62565b840191505092915050565b60008154600181166000811461349357600181146134b8576134fc565b607f60028304166134a48187613e8f565b955060ff19831686528086019350506134fc565b600282046134c68187613e8f565b95506134d185613df2565b60005b828110156134f3578154818901526001820191506020810190506134d4565b82880195505050505b505092915050565b6000613511602b83613e7e565b91507f455243373231456e756d657261626c653a206f776e657220696e646578206f7560008301527f74206f6620626f756e64730000000000000000000000000000000000000000006020830152604082019050919050565b6000613577603283613e7e565b91507f4552433732313a207472616e7366657220746f206e6f6e20455243373231526560008301527f63656976657220696d706c656d656e74657200000000000000000000000000006020830152604082019050919050565b60006135dd602483613e7e565b91507f4552433732313a207472616e7366657220746f20746865207a65726f2061646460008301527f72657373000000000000000000000000000000000000000000000000000000006020830152604082019050919050565b6000613643601983613e7e565b91507f4552433732313a20617070726f766520746f2063616c6c6572000000000000006000830152602082019050919050565b6000613683602c83613e7e565b91507f4552433732313a206f70657261746f7220717565727920666f72206e6f6e657860008301527f697374656e7420746f6b656e00000000000000000000000000000000000000006020830152604082019050919050565b60006136e9603883613e7e565b91507f4552433732313a20617070726f76652063616c6c6572206973206e6f74206f7760008301527f6e6572206e6f7220617070726f76656420666f7220616c6c00000000000000006020830152604082019050919050565b600061374f602a83613e7e565b91507f4552433732313a2062616c616e636520717565727920666f7220746865207a6560008301527f726f2061646472657373000000000000000000000000000000000000000000006020830152604082019050919050565b60006137b5602983613e7e565b91507f4552433732313a206f776e657220717565727920666f72206e6f6e657869737460008301527f656e7420746f6b656e00000000000000000000000000000000000000000000006020830152604082019050919050565b600061381b602c83613e7e565b91507f4552433732313a20617070726f76656420717565727920666f72206e6f6e657860008301527f697374656e7420746f6b656e00000000000000000000000000000000000000006020830152604082019050919050565b6000613881602983613e7e565b91507f4552433732313a207472616e73666572206f6620746f6b656e2074686174206960008301527f73206e6f74206f776e00000000000000000000000000000000000000000000006020830152604082019050919050565b60006138e7602f83613e7e565b91507f4552433732314d657461646174613a2055524920717565727920666f72206e6f60008301527f6e6578697374656e7420746f6b656e00000000000000000000000000000000006020830152604082019050919050565b600061394d602183613e7e565b91507f4552433732313a20617070726f76616c20746f2063757272656e74206f776e6560008301527f72000000000000000000000000000000000000000000000000000000000000006020830152604082019050919050565b60006139b3603183613e7e565b91507f4552433732313a207472616e736665722063616c6c6572206973206e6f74206f60008301527f776e6572206e6f7220617070726f7665640000000000000000000000000000006020830152604082019050919050565b6000613a19602c83613e7e565b91507f455243373231456e756d657261626c653a20676c6f62616c20696e646578206f60008301527f7574206f6620626f756e647300000000000000000000000000000000000000006020830152604082019050919050565b613a7b81613f16565b82525050565b6000613a8d82846133a2565b915081905092915050565b6000613aa48285613476565b9150613ab0828461340c565b91508190509392505050565b6000602082019050613ad160008301846132d6565b92915050565b6000608082019050613aec60008301876132c7565b613af960208301866132d6565b613b066040830185613a72565b8181036060830152613b188184613369565b905095945050505050565b60006020820190508181036000830152613b3d81846132e5565b905092915050565b6000602082019050613b5a600083018461335a565b92915050565b60006020820190508181036000830152613b7a81846133d3565b905092915050565b60006020820190508181036000830152613b9b81613504565b9050919050565b60006020820190508181036000830152613bbb8161356a565b9050919050565b60006020820190508181036000830152613bdb816135d0565b9050919050565b60006020820190508181036000830152613bfb81613636565b9050919050565b60006020820190508181036000830152613c1b81613676565b9050919050565b60006020820190508181036000830152613c3b816136dc565b9050919050565b60006020820190508181036000830152613c5b81613742565b9050919050565b60006020820190508181036000830152613c7b816137a8565b9050919050565b60006020820190508181036000830152613c9b8161380e565b9050919050565b60006020820190508181036000830152613cbb81613874565b9050919050565b60006020820190508181036000830152613cdb816138da565b9050919050565b60006020820190508181036000830152613cfb81613940565b9050919050565b60006020820190508181036000830152613d1b816139a6565b9050919050565b60006020820190508181036000830152613d3b81613a0c565b9050919050565b6000602082019050613d576000830184613a72565b92915050565b6000604051905081810181811067ffffffffffffffff82111715613d8057600080fd5b8060405250919050565b600067ffffffffffffffff821115613da157600080fd5b601f19601f8301169050602081019050919050565b600067ffffffffffffffff821115613dcd57600080fd5b601f19601f8301169050602081019050919050565b6000819050602082019050919050565b60008190508160005260206000209050919050565b600081519050919050565b600081519050919050565b600081519050919050565b600081519050919050565b6000602082019050919050565b600082825260208201905092915050565b600082825260208201905092915050565b600081905092915050565b600082825260208201905092915050565b600082825260208201905092915050565b600081905092915050565b6000613ea582613ef6565b9050919050565b6000613eb782613ef6565b9050919050565b60008115159050919050565b60007fffffffff0000000000000000000000000000000000000000000000000000000082169050919050565b600073ffffffffffffffffffffffffffffffffffffffff82169050919050565b6000819050919050565b82818337600083830152505050565b60005b83811015613f4d578082015181840152602081019050613f32565b83811115613f5c576000848401525b50505050565b6000601f19601f8301169050919050565b613f7c81613e9a565b8114613f8757600080fd5b50565b613f9381613ebe565b8114613f9e57600080fd5b50565b613faa81613eca565b8114613fb557600080fd5b50565b613fc181613f16565b8114613fcc57600080fd5b5056fea365627a7a7231582015273dd06681e2a8e32d538378e9d5215086bbb2d78141b3164bb6759825ba656c6578706572696d656e74616cf564736f6c63430005100040",
  "source": "// SPDX-License-Identifier: MIT\r\npragma solidity >=0.4.22 <0.8.0;\r\npragma experimental ABIEncoderV2;\r\n\r\nimport \"../node_module/openzeppelin-solidity/contracts/token/ERC721/ERC721Full.sol\";\r\n\r\ncontract Liquor is ERC721Full {\r\n    struct Liquor {\r\n        uint256 tokenId;\r\n        string liquorName;\r\n        string sellerName;\r\n        bool isReservable;\r\n        string arrivalDay;\r\n        string reserveScore;\r\n    }\r\n\r\n    Liquor[] private liquorCollection;\r\n    address private _contractOwner;\r\n\r\n    constructor() public ERC721Full(\"Liquor\", \"LIQ\") {\r\n        _contractOwner = msg.sender;\r\n    }\r\n\r\n    function fetchLiquor(uint256 _tokenId) public returns (string memory) {\r\n        string memory liquor = strConnect(\r\n            \"{liquorName:\",\r\n            liquorCollection[_tokenId].liquorName,\r\n            \"sellerName:\",\r\n            liquorCollection[_tokenId].sellerName,\r\n            \"isReservable:\",\r\n            boolToString(liquorCollection[_tokenId].isReservable),\r\n            \"arrivalDay:\",\r\n            liquorCollection[_tokenId].arrivalDay,\r\n            \"reserveScore:\",\r\n            liquorCollection[_tokenId].reserveScore,\r\n            \"}\"\r\n        );\r\n        return liquor;\r\n    }\r\n\r\n    function fetchAllLiquors() public returns (string[] memory) {\r\n        string[] memory liquors = new string[](liquorCollection.length);\r\n        for (uint256 i = 0; i < liquorCollection.length; i++) {\r\n            liquors[i] = strConnect(\r\n                \"{liquorName:\",\r\n                liquorCollection[i].liquorName,\r\n                \"sellerName:\",\r\n                liquorCollection[i].sellerName,\r\n                \"isReservable:\",\r\n                boolToString(liquorCollection[i].isReservable),\r\n                \"arrivalDay:\",\r\n                liquorCollection[i].arrivalDay,\r\n                \"reserveScore:\",\r\n                liquorCollection[i].reserveScore,\r\n                \"}\"\r\n            );\r\n        }\r\n        return liquors;\r\n    }\r\n\r\n    function updateReservability(uint256 _tokenId) external {\r\n        if (liquorCollection[_tokenId].isReservable == true) {\r\n            liquorCollection[_tokenId].isReservable = false;\r\n        } else {\r\n            liquorCollection[_tokenId].isReservable = true;\r\n        }\r\n    }\r\n\r\n    function addBlockToRegister(\r\n        string memory liquorName,\r\n        string memory sellerName,\r\n        bool isReservable,\r\n        string memory arrivalDay,\r\n        string memory reserveScore\r\n    ) public {\r\n        uint256 newTokenId = liquorCollection.length + 1;\r\n        liquorCollection.push(\r\n            Liquor(\r\n                newTokenId,\r\n                liquorName,\r\n                sellerName,\r\n                isReservable,\r\n                arrivalDay,\r\n                reserveScore\r\n            )\r\n        );\r\n    }\r\n\r\n    // 11\r\n    function strConnect(\r\n        string memory str1,\r\n        string memory str2,\r\n        string memory str3,\r\n        string memory str4,\r\n        string memory str5,\r\n        string memory str6,\r\n        string memory str7,\r\n        string memory str8,\r\n        string memory str9,\r\n        string memory str10,\r\n        string memory str11\r\n    ) public returns (string memory) {\r\n        bytes memory strbyte1 = bytes(str1);\r\n        bytes memory strbyte2 = bytes(str2);\r\n        bytes memory strbyte3 = bytes(str3);\r\n        bytes memory strbyte4 = bytes(str4);\r\n        bytes memory strbyte5 = bytes(str5);\r\n        bytes memory strbyte6 = bytes(str6);\r\n        bytes memory strbyte7 = bytes(str7);\r\n        bytes memory strbyte8 = bytes(str8);\r\n        bytes memory strbyte9 = bytes(str9);\r\n        bytes memory strbyte10 = bytes(str10);\r\n        bytes memory strbyte11 = bytes(str11);\r\n\r\n        bytes memory str = new bytes(strbyte1.length + strbyte2.length);\r\n\r\n        uint8 point = 0;\r\n\r\n        for (uint8 j = 0; j < strbyte1.length; j++) {\r\n            str[point] = strbyte1[j];\r\n            point++;\r\n        }\r\n        for (uint8 k = 0; k < strbyte2.length; k++) {\r\n            str[point] = strbyte2[k];\r\n            point++;\r\n        }\r\n        for (uint8 k = 0; k < strbyte3.length; k++) {\r\n            str[point] = strbyte3[k];\r\n            point++;\r\n        }\r\n        for (uint8 k = 0; k < strbyte4.length; k++) {\r\n            str[point] = strbyte4[k];\r\n            point++;\r\n        }\r\n        for (uint8 k = 0; k < strbyte5.length; k++) {\r\n            str[point] = strbyte5[k];\r\n            point++;\r\n        }\r\n        for (uint8 k = 0; k < strbyte6.length; k++) {\r\n            str[point] = strbyte6[k];\r\n            point++;\r\n        }\r\n        for (uint8 k = 0; k < strbyte7.length; k++) {\r\n            str[point] = strbyte7[k];\r\n            point++;\r\n        }\r\n        for (uint8 k = 0; k < strbyte8.length; k++) {\r\n            str[point] = strbyte8[k];\r\n            point++;\r\n        }\r\n        for (uint8 k = 0; k < strbyte9.length; k++) {\r\n            str[point] = strbyte9[k];\r\n            point++;\r\n        }\r\n        for (uint8 k = 0; k < strbyte10.length; k++) {\r\n            str[point] = strbyte10[k];\r\n            point++;\r\n        }\r\n        for (uint8 k = 0; k < strbyte11.length; k++) {\r\n            str[point] = strbyte11[k];\r\n            point++;\r\n        }\r\n        return string(str);\r\n    }\r\n\r\n    // boolstring\r\n    function boolToString(bool boolean) internal returns (string memory) {\r\n        if (boolean == true) {\r\n            return \"true\";\r\n        } else {\r\n            return \"false\";\r\n        }\r\n    }\r\n\r\n    //uint  string \r\n    // function uintToString(uint256 v) returns (string memory) {\r\n    //     uint256 maxlength = 100;\r\n    //     bytes reversed = new bytes(maxlength);\r\n    //     uint256 i = 0;\r\n    //     while (v != 0) {\r\n    //         // 1\r\n    //         uint256 remainder = v % 10;\r\n\r\n    //         // \r\n    //         v = v / 10;\r\n\r\n    //         reversed[i++] = bytes(48 + remainder);\r\n    //     }\r\n    //     bytes memory s = new bytes(i + 1);\r\n    //     for (uint256 j = 0; j <= i; j++) {\r\n    //         s[j] = reversed[i - j];\r\n    //     }\r\n    //     string memory str = string(s);\r\n\r\n    //     return str;\r\n    // }\r\n}\r\n",
  "sourcePath": "C:/Users/jumpei.kuwata/Documents/BC_tutorial/BC_liquor/contracts/Liquor.sol",
  "compiler": {
    "name": "solc",
    "version": "0.5.16+commit.9c3226ce.Emscripten.clang"
  },
  "schemaVersion": "3.3.2",
  "updatedAt": "2020-12-16T00:45:20.795Z",
  "devdoc": {
    "methods": {
      "approve(address,uint256)": {
        "details": "Approves another address to transfer the given token ID The zero address indicates there is no approved address. There can only be one approved address per token at a given time. Can only be called by the token owner or an approved operator.",
        "params": {
          "to": "address to be approved for the given token ID",
          "tokenId": "uint256 ID of the token to be approved"
        }
      },
      "balanceOf(address)": {
        "details": "Gets the balance of the specified address.",
        "params": {
          "owner": "address to query the balance of"
        },
        "return": "uint256 representing the amount owned by the passed address"
      },
      "baseURI()": {
        "details": "Returns the base URI set via {_setBaseURI}. This will be automatically added as a preffix in {tokenURI} to each token's URI, when they are non-empty.     * _Available since v2.5.0._"
      },
      "getApproved(uint256)": {
        "details": "Gets the approved address for a token ID, or zero if no address set Reverts if the token ID does not exist.",
        "params": {
          "tokenId": "uint256 ID of the token to query the approval of"
        },
        "return": "address currently approved for the given token ID"
      },
      "isApprovedForAll(address,address)": {
        "details": "Tells whether an operator is approved by a given owner.",
        "params": {
          "operator": "operator address which you want to query the approval of",
          "owner": "owner address which you want to query the approval of"
        },
        "return": "bool whether the given operator is approved by the given owner"
      },
      "name()": {
        "details": "Gets the token name.",
        "return": "string representing the token name"
      },
      "ownerOf(uint256)": {
        "details": "Gets the owner of the specified token ID.",
        "params": {
          "tokenId": "uint256 ID of the token to query the owner of"
        },
        "return": "address currently marked as the owner of the given token ID"
      },
      "safeTransferFrom(address,address,uint256)": {
        "details": "Safely transfers the ownership of a given token ID to another address If the target address is a contract, it must implement {IERC721Receiver-onERC721Received}, which is called upon a safe transfer, and return the magic value `bytes4(keccak256(\"onERC721Received(address,address,uint256,bytes)\"))`; otherwise, the transfer is reverted. Requires the msg.sender to be the owner, approved, or operator",
        "params": {
          "from": "current owner of the token",
          "to": "address to receive the ownership of the given token ID",
          "tokenId": "uint256 ID of the token to be transferred"
        }
      },
      "safeTransferFrom(address,address,uint256,bytes)": {
        "details": "Safely transfers the ownership of a given token ID to another address If the target address is a contract, it must implement {IERC721Receiver-onERC721Received}, which is called upon a safe transfer, and return the magic value `bytes4(keccak256(\"onERC721Received(address,address,uint256,bytes)\"))`; otherwise, the transfer is reverted. Requires the _msgSender() to be the owner, approved, or operator",
        "params": {
          "_data": "bytes data to send along with a safe transfer check",
          "from": "current owner of the token",
          "to": "address to receive the ownership of the given token ID",
          "tokenId": "uint256 ID of the token to be transferred"
        }
      },
      "setApprovalForAll(address,bool)": {
        "details": "Sets or unsets the approval of a given operator An operator is allowed to transfer all tokens of the sender on their behalf.",
        "params": {
          "approved": "representing the status of the approval to be set",
          "to": "operator address to set the approval"
        }
      },
      "supportsInterface(bytes4)": {
        "details": "See {IERC165-supportsInterface}.      * Time complexity O(1), guaranteed to always use less than 30 000 gas."
      },
      "symbol()": {
        "details": "Gets the token symbol.",
        "return": "string representing the token symbol"
      },
      "tokenByIndex(uint256)": {
        "details": "Gets the token ID at a given index of all the tokens in this contract Reverts if the index is greater or equal to the total number of tokens.",
        "params": {
          "index": "uint256 representing the index to be accessed of the tokens list"
        },
        "return": "uint256 token ID at the given index of the tokens list"
      },
      "tokenOfOwnerByIndex(address,uint256)": {
        "details": "Gets the token ID at a given index of the tokens list of the requested owner.",
        "params": {
          "index": "uint256 representing the index to be accessed of the requested tokens list",
          "owner": "address owning the tokens list to be accessed"
        },
        "return": "uint256 token ID at the given index of the tokens list owned by the requested address"
      },
      "tokenURI(uint256)": {
        "details": "Returns the URI for a given token ID. May return an empty string.      * If the token's URI is non-empty and a base URI was set (via {_setBaseURI}), it will be added to the token ID's URI as a prefix.      * Reverts if the token ID does not exist."
      },
      "totalSupply()": {
        "details": "Gets the total amount of tokens stored by the contract.",
        "return": "uint256 representing the total amount of tokens"
      },
      "transferFrom(address,address,uint256)": {
        "details": "Transfers the ownership of a given token ID to another address. Usage of this method is discouraged, use {safeTransferFrom} whenever possible. Requires the msg.sender to be the owner, approved, or operator.",
        "params": {
          "from": "current owner of the token",
          "to": "address to receive the ownership of the given token ID",
          "tokenId": "uint256 ID of the token to be transferred"
        }
      }
    }
  },
  "userdoc": {
    "methods": {}
  }
}