{
  "contractName": "Liquor",
  "abi": [
    {
      "inputs": [],
      "payable": false,
      "stateMutability": "nonpayable",
      "type": "constructor"
    },
    {
      "anonymous": false,
      "inputs": [
        {
          "indexed": true,
          "internalType": "address",
          "name": "owner",
          "type": "address"
        },
        {
          "indexed": true,
          "internalType": "address",
          "name": "approved",
          "type": "address"
        },
        {
          "indexed": true,
          "internalType": "uint256",
          "name": "tokenId",
          "type": "uint256"
        }
      ],
      "name": "Approval",
      "type": "event"
    },
    {
      "anonymous": false,
      "inputs": [
        {
          "indexed": true,
          "internalType": "address",
          "name": "owner",
          "type": "address"
        },
        {
          "indexed": true,
          "internalType": "address",
          "name": "operator",
          "type": "address"
        },
        {
          "indexed": false,
          "internalType": "bool",
          "name": "approved",
          "type": "bool"
        }
      ],
      "name": "ApprovalForAll",
      "type": "event"
    },
    {
      "anonymous": false,
      "inputs": [
        {
          "indexed": true,
          "internalType": "address",
          "name": "_from",
          "type": "address"
        },
        {
          "indexed": true,
          "internalType": "address",
          "name": "_to",
          "type": "address"
        },
        {
          "indexed": true,
          "internalType": "uint256",
          "name": "_tokenId",
          "type": "uint256"
        }
      ],
      "name": "Transfer",
      "type": "event"
    },
    {
      "constant": false,
      "inputs": [
        {
          "internalType": "address",
          "name": "to",
          "type": "address"
        },
        {
          "internalType": "uint256",
          "name": "tokenId",
          "type": "uint256"
        }
      ],
      "name": "approve",
      "outputs": [],
      "payable": false,
      "stateMutability": "nonpayable",
      "type": "function"
    },
    {
      "constant": true,
      "inputs": [
        {
          "internalType": "address",
          "name": "owner",
          "type": "address"
        }
      ],
      "name": "balanceOf",
      "outputs": [
        {
          "internalType": "uint256",
          "name": "",
          "type": "uint256"
        }
      ],
      "payable": false,
      "stateMutability": "view",
      "type": "function"
    },
    {
      "constant": true,
      "inputs": [],
      "name": "baseURI",
      "outputs": [
        {
          "internalType": "string",
          "name": "",
          "type": "string"
        }
      ],
      "payable": false,
      "stateMutability": "view",
      "type": "function"
    },
    {
      "constant": true,
      "inputs": [
        {
          "internalType": "uint256",
          "name": "tokenId",
          "type": "uint256"
        }
      ],
      "name": "getApproved",
      "outputs": [
        {
          "internalType": "address",
          "name": "",
          "type": "address"
        }
      ],
      "payable": false,
      "stateMutability": "view",
      "type": "function"
    },
    {
      "constant": true,
      "inputs": [
        {
          "internalType": "address",
          "name": "owner",
          "type": "address"
        },
        {
          "internalType": "address",
          "name": "operator",
          "type": "address"
        }
      ],
      "name": "isApprovedForAll",
      "outputs": [
        {
          "internalType": "bool",
          "name": "",
          "type": "bool"
        }
      ],
      "payable": false,
      "stateMutability": "view",
      "type": "function"
    },
    {
      "constant": true,
      "inputs": [],
      "name": "name",
      "outputs": [
        {
          "internalType": "string",
          "name": "",
          "type": "string"
        }
      ],
      "payable": false,
      "stateMutability": "view",
      "type": "function"
    },
    {
      "constant": true,
      "inputs": [
        {
          "internalType": "uint256",
          "name": "tokenId",
          "type": "uint256"
        }
      ],
      "name": "ownerOf",
      "outputs": [
        {
          "internalType": "address",
          "name": "",
          "type": "address"
        }
      ],
      "payable": false,
      "stateMutability": "view",
      "type": "function"
    },
    {
      "constant": false,
      "inputs": [
        {
          "internalType": "address",
          "name": "from",
          "type": "address"
        },
        {
          "internalType": "address",
          "name": "to",
          "type": "address"
        },
        {
          "internalType": "uint256",
          "name": "tokenId",
          "type": "uint256"
        }
      ],
      "name": "safeTransferFrom",
      "outputs": [],
      "payable": false,
      "stateMutability": "nonpayable",
      "type": "function"
    },
    {
      "constant": false,
      "inputs": [
        {
          "internalType": "address",
          "name": "from",
          "type": "address"
        },
        {
          "internalType": "address",
          "name": "to",
          "type": "address"
        },
        {
          "internalType": "uint256",
          "name": "tokenId",
          "type": "uint256"
        },
        {
          "internalType": "bytes",
          "name": "_data",
          "type": "bytes"
        }
      ],
      "name": "safeTransferFrom",
      "outputs": [],
      "payable": false,
      "stateMutability": "nonpayable",
      "type": "function"
    },
    {
      "constant": false,
      "inputs": [
        {
          "internalType": "address",
          "name": "to",
          "type": "address"
        },
        {
          "internalType": "bool",
          "name": "approved",
          "type": "bool"
        }
      ],
      "name": "setApprovalForAll",
      "outputs": [],
      "payable": false,
      "stateMutability": "nonpayable",
      "type": "function"
    },
    {
      "constant": true,
      "inputs": [
        {
          "internalType": "bytes4",
          "name": "interfaceId",
          "type": "bytes4"
        }
      ],
      "name": "supportsInterface",
      "outputs": [
        {
          "internalType": "bool",
          "name": "",
          "type": "bool"
        }
      ],
      "payable": false,
      "stateMutability": "view",
      "type": "function"
    },
    {
      "constant": true,
      "inputs": [],
      "name": "symbol",
      "outputs": [
        {
          "internalType": "string",
          "name": "",
          "type": "string"
        }
      ],
      "payable": false,
      "stateMutability": "view",
      "type": "function"
    },
    {
      "constant": true,
      "inputs": [
        {
          "internalType": "uint256",
          "name": "index",
          "type": "uint256"
        }
      ],
      "name": "tokenByIndex",
      "outputs": [
        {
          "internalType": "uint256",
          "name": "",
          "type": "uint256"
        }
      ],
      "payable": false,
      "stateMutability": "view",
      "type": "function"
    },
    {
      "constant": true,
      "inputs": [
        {
          "internalType": "address",
          "name": "owner",
          "type": "address"
        },
        {
          "internalType": "uint256",
          "name": "index",
          "type": "uint256"
        }
      ],
      "name": "tokenOfOwnerByIndex",
      "outputs": [
        {
          "internalType": "uint256",
          "name": "",
          "type": "uint256"
        }
      ],
      "payable": false,
      "stateMutability": "view",
      "type": "function"
    },
    {
      "constant": true,
      "inputs": [
        {
          "internalType": "uint256",
          "name": "tokenId",
          "type": "uint256"
        }
      ],
      "name": "tokenURI",
      "outputs": [
        {
          "internalType": "string",
          "name": "",
          "type": "string"
        }
      ],
      "payable": false,
      "stateMutability": "view",
      "type": "function"
    },
    {
      "constant": true,
      "inputs": [],
      "name": "totalSupply",
      "outputs": [
        {
          "internalType": "uint256",
          "name": "",
          "type": "uint256"
        }
      ],
      "payable": false,
      "stateMutability": "view",
      "type": "function"
    },
    {
      "constant": false,
      "inputs": [
        {
          "internalType": "address",
          "name": "from",
          "type": "address"
        },
        {
          "internalType": "address",
          "name": "to",
          "type": "address"
        },
        {
          "internalType": "uint256",
          "name": "tokenId",
          "type": "uint256"
        }
      ],
      "name": "transferFrom",
      "outputs": [],
      "payable": false,
      "stateMutability": "nonpayable",
      "type": "function"
    },
    {
      "constant": true,
      "inputs": [
        {
          "internalType": "uint256",
          "name": "_tokenId",
          "type": "uint256"
        }
      ],
      "name": "fetchLiquor",
      "outputs": [
        {
          "internalType": "string[]",
          "name": "",
          "type": "string[]"
        }
      ],
      "payable": false,
      "stateMutability": "view",
      "type": "function"
    },
    {
      "constant": true,
      "inputs": [],
      "name": "fetchAllLiquors",
      "outputs": [
        {
          "internalType": "string[]",
          "name": "",
          "type": "string[]"
        }
      ],
      "payable": false,
      "stateMutability": "view",
      "type": "function"
    },
    {
      "constant": false,
      "inputs": [
        {
          "internalType": "string",
          "name": "liquorName",
          "type": "string"
        },
        {
          "internalType": "string",
          "name": "sellerName",
          "type": "string"
        },
        {
          "internalType": "string",
          "name": "isReservable",
          "type": "string"
        },
        {
          "internalType": "string",
          "name": "arrivalDay",
          "type": "string"
        },
        {
          "internalType": "string",
          "name": "reserveScore",
          "type": "string"
        }
      ],
      "name": "addBlockToRegister",
      "outputs": [
        {
          "internalType": "bool",
          "name": "",
          "type": "bool"
        }
      ],
      "payable": true,
      "stateMutability": "payable",
      "type": "function"
    }
  ],
  "bytecode": "0x60806040523480156200001157600080fd5b506040518060400160405280600681526020017f4c6971756f7200000000000000000000000000000000000000000000000000008152506040518060400160405280600381526020017f4c495100000000000000000000000000000000000000000000000000000000008152508181620000986301ffc9a760e01b6200015d60201b60201c565b620000b06380ac58cd60e01b6200015d60201b60201c565b620000c863780e9d6360e01b6200015d60201b60201c565b8160099080519060200190620000e092919062000235565b5080600a9080519060200190620000f992919062000235565b5062000112635b5e139f60e01b6200015d60201b60201c565b5050505033600e60006101000a81548173ffffffffffffffffffffffffffffffffffffffff021916908373ffffffffffffffffffffffffffffffffffffffff16021790555062000359565b63ffffffff60e01b817bffffffffffffffffffffffffffffffffffffffffffffffffffffffff19161415620001c9576040517f08c379a0000000000000000000000000000000000000000000000000000000008152600401620001c09062000326565b60405180910390fd5b6001600080837bffffffffffffffffffffffffffffffffffffffffffffffffffffffff19167bffffffffffffffffffffffffffffffffffffffffffffffffffffffff1916815260200190815260200160002060006101000a81548160ff02191690831515021790555050565b828054600181600116156101000203166002900490600052602060002090601f016020900481019282601f106200027857805160ff1916838001178555620002a9565b82800160010185558215620002a9579182015b82811115620002a85782518255916020019190600101906200028b565b5b509050620002b89190620002bc565b5090565b620002e191905b80821115620002dd576000816000905550600101620002c3565b5090565b90565b6000620002f3601c8362000348565b91507f4552433136353a20696e76616c696420696e74657266616365206964000000006000830152602082019050919050565b600060208201905081810360008301526200034181620002e4565b9050919050565b600082825260208201905092915050565b61379d80620003696000396000f3fe60806040526004361061011f5760003560e01c80636352211e116100a0578063a55a2abf11610064578063a55a2abf1461040d578063b88d4fde1461043d578063c87b56dd14610466578063dba124b4146104a3578063e985e9c5146104e05761011f565b80636352211e146103145780636c0360eb1461035157806370a082311461037c57806395d89b41146103b9578063a22cb465146103e45761011f565b806318160ddd116100e757806318160ddd1461021d57806323b872dd146102485780632f745c591461027157806342842e0e146102ae5780634f6ccce7146102d75761011f565b806301ffc9a71461012457806304f801ee1461016157806306fdde031461018c578063081812fc146101b7578063095ea7b3146101f4575b600080fd5b34801561013057600080fd5b5061014b600480360361014691908101906128d4565b61051d565b60405161015891906132d0565b60405180910390f35b34801561016d57600080fd5b50610176610584565b60405161018391906132ae565b60405180910390f35b34801561019857600080fd5b506101a1610a18565b6040516101ae91906132eb565b60405180910390f35b3480156101c357600080fd5b506101de60048036036101d99190810190612a15565b610aba565b6040516101eb9190613247565b60405180910390f35b34801561020057600080fd5b5061021b60048036036102169190810190612898565b610b3f565b005b34801561022957600080fd5b50610232610cfa565b60405161023f91906134cd565b60405180910390f35b34801561025457600080fd5b5061026f600480360361026a9190810190612792565b610d07565b005b34801561027d57600080fd5b5061029860048036036102939190810190612898565b610d67565b6040516102a591906134cd565b60405180910390f35b3480156102ba57600080fd5b506102d560048036036102d09190810190612792565b610e10565b005b3480156102e357600080fd5b506102fe60048036036102f99190810190612a15565b610e30565b60405161030b91906134cd565b60405180910390f35b34801561032057600080fd5b5061033b60048036036103369190810190612a15565b610e9a565b6040516103489190613247565b60405180910390f35b34801561035d57600080fd5b50610366610f4c565b60405161037391906132eb565b60405180910390f35b34801561038857600080fd5b506103a3600480360361039e919081019061272d565b610fee565b6040516103b091906134cd565b60405180910390f35b3480156103c557600080fd5b506103ce6110ad565b6040516103db91906132eb565b60405180910390f35b3480156103f057600080fd5b5061040b6004803603610406919081019061285c565b61114f565b005b61042760048036036104229190810190612926565b6112d0565b60405161043491906132d0565b60405180910390f35b34801561044957600080fd5b50610464600480360361045f91908101906127e1565b611463565b005b34801561047257600080fd5b5061048d60048036036104889190810190612a15565b6114c5565b60405161049a91906132eb565b60405180910390f35b3480156104af57600080fd5b506104ca60048036036104c59190810190612a15565b61160d565b6040516104d791906132ae565b60405180910390f35b3480156104ec57600080fd5b5061050760048036036105029190810190612756565b611a5c565b60405161051491906132d0565b60405180910390f35b6000806000837bffffffffffffffffffffffffffffffffffffffffffffffffffffffff19167bffffffffffffffffffffffffffffffffffffffffffffffffffffffff1916815260200190815260200160002060009054906101000a900460ff169050919050565b6060806005600d80549050026040519080825280602002602001820160405280156105c357816020015b60608152602001906001900390816105ae5790505b509050600080905060008090505b600d80549050811015610a0f57600d81815481106105eb57fe5b90600052602060002090600602016001018054600181600116156101000203166002900480601f0160208091040260200160405190810160405280929190818152602001828054600181600116156101000203166002900480156106905780601f1061066557610100808354040283529160200191610690565b820191906000526020600020905b81548152906001019060200180831161067357829003601f168201915b50505050508383815181106106a157fe5b6020026020010181905250600182019150600d81815481106106bf57fe5b90600052602060002090600602016002018054600181600116156101000203166002900480601f0160208091040260200160405190810160405280929190818152602001828054600181600116156101000203166002900480156107645780601f1061073957610100808354040283529160200191610764565b820191906000526020600020905b81548152906001019060200180831161074757829003601f168201915b505050505083838151811061077557fe5b6020026020010181905250600182019150600d818154811061079357fe5b90600052602060002090600602016003018054600181600116156101000203166002900480601f0160208091040260200160405190810160405280929190818152602001828054600181600116156101000203166002900480156108385780601f1061080d57610100808354040283529160200191610838565b820191906000526020600020905b81548152906001019060200180831161081b57829003601f168201915b505050505083838151811061084957fe5b6020026020010181905250600182019150600d818154811061086757fe5b90600052602060002090600602016004018054600181600116156101000203166002900480601f01602080910402602001604051908101604052809291908181526020018280546001816001161561010002031660029004801561090c5780601f106108e15761010080835404028352916020019161090c565b820191906000526020600020905b8154815290600101906020018083116108ef57829003601f168201915b505050505083838151811061091d57fe5b6020026020010181905250600182019150600d818154811061093b57fe5b90600052602060002090600602016005018054600181600116156101000203166002900480601f0160208091040260200160405190810160405280929190818152602001828054600181600116156101000203166002900480156109e05780601f106109b5576101008083540402835291602001916109e0565b820191906000526020600020905b8154815290600101906020018083116109c357829003601f168201915b50505050508383815181106109f157fe5b602002602001018190525060018201915080806001019150506105d1565b50819250505090565b606060098054600181600116156101000203166002900480601f016020809104026020016040519081016040528092919081815260200182805460018160011615610100020316600290048015610ab05780601f10610a8557610100808354040283529160200191610ab0565b820191906000526020600020905b815481529060010190602001808311610a9357829003601f168201915b5050505050905090565b6000610ac582611af0565b610b04576040517f08c379a0000000000000000000000000000000000000000000000000000000008152600401610afb9061340d565b60405180910390fd5b6002600083815260200190815260200160002060009054906101000a900473ffffffffffffffffffffffffffffffffffffffff169050919050565b6000610b4a82610e9a565b90508073ffffffffffffffffffffffffffffffffffffffff168373ffffffffffffffffffffffffffffffffffffffff161415610bbb576040517f08c379a0000000000000000000000000000000000000000000000000000000008152600401610bb29061346d565b60405180910390fd5b8073ffffffffffffffffffffffffffffffffffffffff16610bda611b62565b73ffffffffffffffffffffffffffffffffffffffff161480610c095750610c0881610c03611b62565b611a5c565b5b610c48576040517f08c379a0000000000000000000000000000000000000000000000000000000008152600401610c3f906133ad565b60405180910390fd5b826002600084815260200190815260200160002060006101000a81548173ffffffffffffffffffffffffffffffffffffffff021916908373ffffffffffffffffffffffffffffffffffffffff160217905550818373ffffffffffffffffffffffffffffffffffffffff168273ffffffffffffffffffffffffffffffffffffffff167f8c5be1e5ebec7d5bd14f71427d1e84f3dd0314c0f7b2291e5b200ac8c7c3b92560405160405180910390a4505050565b6000600780549050905090565b610d18610d12611b62565b82611b6a565b610d57576040517f08c379a0000000000000000000000000000000000000000000000000000000008152600401610d4e9061348d565b60405180910390fd5b610d62838383611c48565b505050565b6000610d7283610fee565b8210610db3576040517f08c379a0000000000000000000000000000000000000000000000000000000008152600401610daa9061330d565b60405180910390fd5b600560008473ffffffffffffffffffffffffffffffffffffffff1673ffffffffffffffffffffffffffffffffffffffff1681526020019081526020016000208281548110610dfd57fe5b9060005260206000200154905092915050565b610e2b83838360405180602001604052806000815250611463565b505050565b6000610e3a610cfa565b8210610e7b576040517f08c379a0000000000000000000000000000000000000000000000000000000008152600401610e72906134ad565b60405180910390fd5b60078281548110610e8857fe5b90600052602060002001549050919050565b6000806001600084815260200190815260200160002060009054906101000a900473ffffffffffffffffffffffffffffffffffffffff169050600073ffffffffffffffffffffffffffffffffffffffff168173ffffffffffffffffffffffffffffffffffffffff161415610f43576040517f08c379a0000000000000000000000000000000000000000000000000000000008152600401610f3a906133ed565b60405180910390fd5b80915050919050565b6060600b8054600181600116156101000203166002900480601f016020809104026020016040519081016040528092919081815260200182805460018160011615610100020316600290048015610fe45780601f10610fb957610100808354040283529160200191610fe4565b820191906000526020600020905b815481529060010190602001808311610fc757829003601f168201915b5050505050905090565b60008073ffffffffffffffffffffffffffffffffffffffff168273ffffffffffffffffffffffffffffffffffffffff16141561105f576040517f08c379a0000000000000000000000000000000000000000000000000000000008152600401611056906133cd565b60405180910390fd5b6110a6600360008473ffffffffffffffffffffffffffffffffffffffff1673ffffffffffffffffffffffffffffffffffffffff168152602001908152602001600020611c6c565b9050919050565b6060600a8054600181600116156101000203166002900480601f0160208091040260200160405190810160405280929190818152602001828054600181600116156101000203166002900480156111455780601f1061111a57610100808354040283529160200191611145565b820191906000526020600020905b81548152906001019060200180831161112857829003601f168201915b5050505050905090565b611157611b62565b73ffffffffffffffffffffffffffffffffffffffff168273ffffffffffffffffffffffffffffffffffffffff1614156111c5576040517f08c379a00000000000000000000000000000000000000000000000000000000081526004016111bc9061336d565b60405180910390fd5b80600460006111d2611b62565b73ffffffffffffffffffffffffffffffffffffffff1673ffffffffffffffffffffffffffffffffffffffff16815260200190815260200160002060008473ffffffffffffffffffffffffffffffffffffffff1673ffffffffffffffffffffffffffffffffffffffff16815260200190815260200160002060006101000a81548160ff0219169083151502179055508173ffffffffffffffffffffffffffffffffffffffff1661127f611b62565b73ffffffffffffffffffffffffffffffffffffffff167f17307eab39ab6107e8899845ad3d59bd9653f200f220920489ca2b5937696c31836040516112c491906132d0565b60405180910390a35050565b600080600d805490509050600d6040518060c00160405280838152602001898152602001888152602001878152602001868152602001858152509080600181540180825580915050906001820390600052602060002090600602016000909192909190915060008201518160000155602082015181600101908051906020019061135b92919061254b565b50604082015181600201908051906020019061137892919061254b565b50606082015181600301908051906020019061139592919061254b565b5060808201518160040190805190602001906113b292919061254b565b5060a08201518160050190805190602001906113cf92919061254b565b50505050600d80549050600e60009054906101000a900473ffffffffffffffffffffffffffffffffffffffff1673ffffffffffffffffffffffffffffffffffffffff163373ffffffffffffffffffffffffffffffffffffffff167fddf252ad1be2c89b69c2b068fc378daa952ba7f163c4a11628f55a4df523b3ef60405160405180910390a4600191505095945050505050565b61147461146e611b62565b83611b6a565b6114b3576040517f08c379a00000000000000000000000000000000000000000000000000000000081526004016114aa9061348d565b60405180910390fd5b6114bf84848484611c7a565b50505050565b60606114d082611af0565b61150f576040517f08c379a00000000000000000000000000000000000000000000000000000000081526004016115069061344d565b60405180910390fd5b6060600c60008481526020019081526020016000208054600181600116156101000203166002900480601f0160208091040260200160405190810160405280929190818152602001828054600181600116156101000203166002900480156115b85780601f1061158d576101008083540402835291602001916115b8565b820191906000526020600020905b81548152906001019060200180831161159b57829003601f168201915b505050505090506000815114156115e15760405180602001604052806000815250915050611608565b600b816040516020016115f5929190613223565b6040516020818303038152906040529150505b919050565b606080600560405190808252806020026020018201604052801561164557816020015b60608152602001906001900390816116305790505b509050600d838154811061165557fe5b90600052602060002090600602016001018054600181600116156101000203166002900480601f0160208091040260200160405190810160405280929190818152602001828054600181600116156101000203166002900480156116fa5780601f106116cf576101008083540402835291602001916116fa565b820191906000526020600020905b8154815290600101906020018083116116dd57829003601f168201915b50505050508160008151811061170c57fe5b6020026020010181905250600d838154811061172457fe5b90600052602060002090600602016002018054600181600116156101000203166002900480601f0160208091040260200160405190810160405280929190818152602001828054600181600116156101000203166002900480156117c95780601f1061179e576101008083540402835291602001916117c9565b820191906000526020600020905b8154815290600101906020018083116117ac57829003601f168201915b5050505050816001815181106117db57fe5b6020026020010181905250600d83815481106117f357fe5b90600052602060002090600602016003018054600181600116156101000203166002900480601f0160208091040260200160405190810160405280929190818152602001828054600181600116156101000203166002900480156118985780601f1061186d57610100808354040283529160200191611898565b820191906000526020600020905b81548152906001019060200180831161187b57829003601f168201915b5050505050816002815181106118aa57fe5b6020026020010181905250600d83815481106118c257fe5b90600052602060002090600602016004018054600181600116156101000203166002900480601f0160208091040260200160405190810160405280929190818152602001828054600181600116156101000203166002900480156119675780601f1061193c57610100808354040283529160200191611967565b820191906000526020600020905b81548152906001019060200180831161194a57829003601f168201915b50505050508160038151811061197957fe5b6020026020010181905250600d838154811061199157fe5b90600052602060002090600602016005018054600181600116156101000203166002900480601f016020809104026020016040519081016040528092919081815260200182805460018160011615610100020316600290048015611a365780601f10611a0b57610100808354040283529160200191611a36565b820191906000526020600020905b815481529060010190602001808311611a1957829003601f168201915b505050505081600481518110611a4857fe5b602002602001018190525080915050919050565b6000600460008473ffffffffffffffffffffffffffffffffffffffff1673ffffffffffffffffffffffffffffffffffffffff16815260200190815260200160002060008373ffffffffffffffffffffffffffffffffffffffff1673ffffffffffffffffffffffffffffffffffffffff16815260200190815260200160002060009054906101000a900460ff16905092915050565b6000806001600084815260200190815260200160002060009054906101000a900473ffffffffffffffffffffffffffffffffffffffff169050600073ffffffffffffffffffffffffffffffffffffffff168173ffffffffffffffffffffffffffffffffffffffff161415915050919050565b600033905090565b6000611b7582611af0565b611bb4576040517f08c379a0000000000000000000000000000000000000000000000000000000008152600401611bab9061338d565b60405180910390fd5b6000611bbf83610e9a565b90508073ffffffffffffffffffffffffffffffffffffffff168473ffffffffffffffffffffffffffffffffffffffff161480611c2e57508373ffffffffffffffffffffffffffffffffffffffff16611c1684610aba565b73ffffffffffffffffffffffffffffffffffffffff16145b80611c3f5750611c3e8185611a5c565b5b91505092915050565b611c53838383611cd6565b611c5d8382611f05565b611c6782826120a3565b505050565b600081600001549050919050565b611c85848484611c48565b611c918484848461216a565b611cd0576040517f08c379a0000000000000000000000000000000000000000000000000000000008152600401611cc79061332d565b60405180910390fd5b50505050565b8273ffffffffffffffffffffffffffffffffffffffff16611cf682610e9a565b73ffffffffffffffffffffffffffffffffffffffff1614611d4c576040517f08c379a0000000000000000000000000000000000000000000000000000000008152600401611d439061342d565b60405180910390fd5b600073ffffffffffffffffffffffffffffffffffffffff168273ffffffffffffffffffffffffffffffffffffffff161415611dbc576040517f08c379a0000000000000000000000000000000000000000000000000000000008152600401611db39061334d565b60405180910390fd5b611dc581612364565b611e0c600360008573ffffffffffffffffffffffffffffffffffffffff1673ffffffffffffffffffffffffffffffffffffffff168152602001908152602001600020612422565b611e53600360008473ffffffffffffffffffffffffffffffffffffffff1673ffffffffffffffffffffffffffffffffffffffff168152602001908152602001600020612445565b816001600083815260200190815260200160002060006101000a81548173ffffffffffffffffffffffffffffffffffffffff021916908373ffffffffffffffffffffffffffffffffffffffff160217905550808273ffffffffffffffffffffffffffffffffffffffff168473ffffffffffffffffffffffffffffffffffffffff167fddf252ad1be2c89b69c2b068fc378daa952ba7f163c4a11628f55a4df523b3ef60405160405180910390a4505050565b6000611f5d6001600560008673ffffffffffffffffffffffffffffffffffffffff1673ffffffffffffffffffffffffffffffffffffffff1681526020019081526020016000208054905061245b90919063ffffffff16565b905060006006600084815260200190815260200160002054905081811461204a576000600560008673ffffffffffffffffffffffffffffffffffffffff1673ffffffffffffffffffffffffffffffffffffffff1681526020019081526020016000208381548110611fca57fe5b9060005260206000200154905080600560008773ffffffffffffffffffffffffffffffffffffffff1673ffffffffffffffffffffffffffffffffffffffff168152602001908152602001600020838154811061202257fe5b9060005260206000200181905550816006600083815260200190815260200160002081905550505b600560008573ffffffffffffffffffffffffffffffffffffffff1673ffffffffffffffffffffffffffffffffffffffff16815260200190815260200160002080548091906001900361209c91906125cb565b5050505050565b600560008373ffffffffffffffffffffffffffffffffffffffff1673ffffffffffffffffffffffffffffffffffffffff168152602001908152602001600020805490506006600083815260200190815260200160002081905550600560008373ffffffffffffffffffffffffffffffffffffffff1673ffffffffffffffffffffffffffffffffffffffff1681526020019081526020016000208190806001815401808255809150509060018203906000526020600020016000909192909190915055505050565b600061218b8473ffffffffffffffffffffffffffffffffffffffff166124a5565b612198576001905061235c565b600060608573ffffffffffffffffffffffffffffffffffffffff168673ffffffffffffffffffffffffffffffffffffffff1663150b7a02905060e01b6121dc611b62565b8988886040516024016121f29493929190613262565b604051602081830303815290604052907bffffffffffffffffffffffffffffffffffffffffffffffffffffffff19166020820180517bffffffffffffffffffffffffffffffffffffffffffffffffffffffff838183161783525050505060405161225c919061320c565b6000604051808303816000865af19150503d8060008114612299576040519150601f19603f3d011682016040523d82523d6000602084013e61229e565b606091505b5091509150816122f6576000815111156122bb5780518082602001fd5b6040517f08c379a00000000000000000000000000000000000000000000000000000000081526004016122ed9061332d565b60405180910390fd5b60008180602001905161230c91908101906128fd565b905063150b7a0260e01b7bffffffffffffffffffffffffffffffffffffffffffffffffffffffff1916817bffffffffffffffffffffffffffffffffffffffffffffffffffffffff19161493505050505b949350505050565b600073ffffffffffffffffffffffffffffffffffffffff166002600083815260200190815260200160002060009054906101000a900473ffffffffffffffffffffffffffffffffffffffff1673ffffffffffffffffffffffffffffffffffffffff161461241f5760006002600083815260200190815260200160002060006101000a81548173ffffffffffffffffffffffffffffffffffffffff021916908373ffffffffffffffffffffffffffffffffffffffff1602179055505b50565b61243a6001826000015461245b90919063ffffffff16565b816000018190555050565b6001816000016000828254019250508190555050565b600061249d83836040518060400160405280601e81526020017f536166654d6174683a207375627472616374696f6e206f766572666c6f7700008152506124f0565b905092915050565b60008060007fc5d2460186f7233c927e7db2dcc703c0e500b653ca82273b7bfad8045d85a47060001b9050833f91508082141580156124e757506000801b8214155b92505050919050565b6000838311158290612538576040517f08c379a000000000000000000000000000000000000000000000000000000000815260040161252f91906132eb565b60405180910390fd5b5060008385039050809150509392505050565b828054600181600116156101000203166002900490600052602060002090601f016020900481019282601f1061258c57805160ff19168380011785556125ba565b828001600101855582156125ba579182015b828111156125b957825182559160200191906001019061259e565b5b5090506125c791906125f7565b5090565b8154818355818111156125f2578183600052602060002091820191016125f191906125f7565b5b505050565b61261991905b808211156126155760008160009055506001016125fd565b5090565b90565b60008135905061262b816136fe565b92915050565b60008135905061264081613715565b92915050565b6000813590506126558161372c565b92915050565b60008151905061266a8161372c565b92915050565b600082601f83011261268157600080fd5b813561269461268f82613515565b6134e8565b915080825260208301602083018583830111156126b057600080fd5b6126bb8382846136ab565b50505092915050565b600082601f8301126126d557600080fd5b81356126e86126e382613541565b6134e8565b9150808252602083016020830185838301111561270457600080fd5b61270f8382846136ab565b50505092915050565b60008135905061272781613743565b92915050565b60006020828403121561273f57600080fd5b600061274d8482850161261c565b91505092915050565b6000806040838503121561276957600080fd5b60006127778582860161261c565b92505060206127888582860161261c565b9150509250929050565b6000806000606084860312156127a757600080fd5b60006127b58682870161261c565b93505060206127c68682870161261c565b92505060406127d786828701612718565b9150509250925092565b600080600080608085870312156127f757600080fd5b60006128058782880161261c565b94505060206128168782880161261c565b935050604061282787828801612718565b925050606085013567ffffffffffffffff81111561284457600080fd5b61285087828801612670565b91505092959194509250565b6000806040838503121561286f57600080fd5b600061287d8582860161261c565b925050602061288e85828601612631565b9150509250929050565b600080604083850312156128ab57600080fd5b60006128b98582860161261c565b92505060206128ca85828601612718565b9150509250929050565b6000602082840312156128e657600080fd5b60006128f484828501612646565b91505092915050565b60006020828403121561290f57600080fd5b600061291d8482850161265b565b91505092915050565b600080600080600060a0868803121561293e57600080fd5b600086013567ffffffffffffffff81111561295857600080fd5b612964888289016126c4565b955050602086013567ffffffffffffffff81111561298157600080fd5b61298d888289016126c4565b945050604086013567ffffffffffffffff8111156129aa57600080fd5b6129b6888289016126c4565b935050606086013567ffffffffffffffff8111156129d357600080fd5b6129df888289016126c4565b925050608086013567ffffffffffffffff8111156129fc57600080fd5b612a08888289016126c4565b9150509295509295909350565b600060208284031215612a2757600080fd5b6000612a3584828501612718565b91505092915050565b6000612a4a8383612bc8565b905092915050565b612a5b81613637565b82525050565b612a6a81613625565b82525050565b6000612a7b82613592565b612a8581856135cb565b935083602082028501612a978561356d565b8060005b85811015612ad35784840389528151612ab48582612a3e565b9450612abf836135be565b925060208a01995050600181019050612a9b565b50829750879550505050505092915050565b612aee81613649565b82525050565b6000612aff8261359d565b612b0981856135dc565b9350612b198185602086016136ba565b612b22816136ed565b840191505092915050565b6000612b388261359d565b612b4281856135ed565b9350612b528185602086016136ba565b80840191505092915050565b6000612b69826135b3565b612b738185613609565b9350612b838185602086016136ba565b612b8c816136ed565b840191505092915050565b6000612ba2826135b3565b612bac818561361a565b9350612bbc8185602086016136ba565b80840191505092915050565b6000612bd3826135a8565b612bdd81856135f8565b9350612bed8185602086016136ba565b612bf6816136ed565b840191505092915050565b600081546001811660008114612c1e5760018114612c4357612c87565b607f6002830416612c2f818761361a565b955060ff1983168652808601935050612c87565b60028204612c51818761361a565b9550612c5c8561357d565b60005b82811015612c7e57815481890152600182019150602081019050612c5f565b82880195505050505b505092915050565b6000612c9c602b83613609565b91507f455243373231456e756d657261626c653a206f776e657220696e646578206f7560008301527f74206f6620626f756e64730000000000000000000000000000000000000000006020830152604082019050919050565b6000612d02603283613609565b91507f4552433732313a207472616e7366657220746f206e6f6e20455243373231526560008301527f63656976657220696d706c656d656e74657200000000000000000000000000006020830152604082019050919050565b6000612d68602483613609565b91507f4552433732313a207472616e7366657220746f20746865207a65726f2061646460008301527f72657373000000000000000000000000000000000000000000000000000000006020830152604082019050919050565b6000612dce601983613609565b91507f4552433732313a20617070726f766520746f2063616c6c6572000000000000006000830152602082019050919050565b6000612e0e602c83613609565b91507f4552433732313a206f70657261746f7220717565727920666f72206e6f6e657860008301527f697374656e7420746f6b656e00000000000000000000000000000000000000006020830152604082019050919050565b6000612e74603883613609565b91507f4552433732313a20617070726f76652063616c6c6572206973206e6f74206f7760008301527f6e6572206e6f7220617070726f76656420666f7220616c6c00000000000000006020830152604082019050919050565b6000612eda602a83613609565b91507f4552433732313a2062616c616e636520717565727920666f7220746865207a6560008301527f726f2061646472657373000000000000000000000000000000000000000000006020830152604082019050919050565b6000612f40602983613609565b91507f4552433732313a206f776e657220717565727920666f72206e6f6e657869737460008301527f656e7420746f6b656e00000000000000000000000000000000000000000000006020830152604082019050919050565b6000612fa6602c83613609565b91507f4552433732313a20617070726f76656420717565727920666f72206e6f6e657860008301527f697374656e7420746f6b656e00000000000000000000000000000000000000006020830152604082019050919050565b600061300c602983613609565b91507f4552433732313a207472616e73666572206f6620746f6b656e2074686174206960008301527f73206e6f74206f776e00000000000000000000000000000000000000000000006020830152604082019050919050565b6000613072602f83613609565b91507f4552433732314d657461646174613a2055524920717565727920666f72206e6f60008301527f6e6578697374656e7420746f6b656e00000000000000000000000000000000006020830152604082019050919050565b60006130d8602183613609565b91507f4552433732313a20617070726f76616c20746f2063757272656e74206f776e6560008301527f72000000000000000000000000000000000000000000000000000000000000006020830152604082019050919050565b600061313e603183613609565b91507f4552433732313a207472616e736665722063616c6c6572206973206e6f74206f60008301527f776e6572206e6f7220617070726f7665640000000000000000000000000000006020830152604082019050919050565b60006131a4602c83613609565b91507f455243373231456e756d657261626c653a20676c6f62616c20696e646578206f60008301527f7574206f6620626f756e647300000000000000000000000000000000000000006020830152604082019050919050565b613206816136a1565b82525050565b60006132188284612b2d565b915081905092915050565b600061322f8285612c01565b915061323b8284612b97565b91508190509392505050565b600060208201905061325c6000830184612a61565b92915050565b60006080820190506132776000830187612a52565b6132846020830186612a61565b61329160408301856131fd565b81810360608301526132a38184612af4565b905095945050505050565b600060208201905081810360008301526132c88184612a70565b905092915050565b60006020820190506132e56000830184612ae5565b92915050565b600060208201905081810360008301526133058184612b5e565b905092915050565b6000602082019050818103600083015261332681612c8f565b9050919050565b6000602082019050818103600083015261334681612cf5565b9050919050565b6000602082019050818103600083015261336681612d5b565b9050919050565b6000602082019050818103600083015261338681612dc1565b9050919050565b600060208201905081810360008301526133a681612e01565b9050919050565b600060208201905081810360008301526133c681612e67565b9050919050565b600060208201905081810360008301526133e681612ecd565b9050919050565b6000602082019050818103600083015261340681612f33565b9050919050565b6000602082019050818103600083015261342681612f99565b9050919050565b6000602082019050818103600083015261344681612fff565b9050919050565b6000602082019050818103600083015261346681613065565b9050919050565b60006020820190508181036000830152613486816130cb565b9050919050565b600060208201905081810360008301526134a681613131565b9050919050565b600060208201905081810360008301526134c681613197565b9050919050565b60006020820190506134e260008301846131fd565b92915050565b6000604051905081810181811067ffffffffffffffff8211171561350b57600080fd5b8060405250919050565b600067ffffffffffffffff82111561352c57600080fd5b601f19601f8301169050602081019050919050565b600067ffffffffffffffff82111561355857600080fd5b601f19601f8301169050602081019050919050565b6000819050602082019050919050565b60008190508160005260206000209050919050565b600081519050919050565b600081519050919050565b600081519050919050565b600081519050919050565b6000602082019050919050565b600082825260208201905092915050565b600082825260208201905092915050565b600081905092915050565b600082825260208201905092915050565b600082825260208201905092915050565b600081905092915050565b600061363082613681565b9050919050565b600061364282613681565b9050919050565b60008115159050919050565b60007fffffffff0000000000000000000000000000000000000000000000000000000082169050919050565b600073ffffffffffffffffffffffffffffffffffffffff82169050919050565b6000819050919050565b82818337600083830152505050565b60005b838110156136d85780820151818401526020810190506136bd565b838111156136e7576000848401525b50505050565b6000601f19601f8301169050919050565b61370781613625565b811461371257600080fd5b50565b61371e81613649565b811461372957600080fd5b50565b61373581613655565b811461374057600080fd5b50565b61374c816136a1565b811461375757600080fd5b5056fea365627a7a723158204daaf56111b1bd0fdb3d861560db14d8c9202ecf5e61012897bedc4209126abd6c6578706572696d656e74616cf564736f6c63430005100040",
  "source": "// SPDX-License-Identifier: MIT\r\npragma solidity >=0.4.22 <0.8.0;\r\npragma experimental ABIEncoderV2;\r\n\r\nimport \"../node_module/openzeppelin-solidity/contracts/token/ERC721/ERC721Full.sol\";\r\n\r\ncontract Liquor is ERC721Full {\r\n    struct Liquor {\r\n        uint256 tokenId;\r\n        string liquorName;\r\n        string sellerName;\r\n        string isReservable;\r\n        string arrivalDay;\r\n        string reserveScore;\r\n    }\r\n\r\n    Liquor[] private liquorCollection;\r\n    address private _contractOwner;\r\n\r\n    event Transfer(\r\n        address indexed _from,\r\n        address indexed _to,\r\n        uint256 indexed _tokenId\r\n    );\r\n\r\n    constructor() public ERC721Full(\"Liquor\", \"LIQ\") {\r\n        _contractOwner = msg.sender;\r\n    }\r\n\r\n    function fetchLiquor(uint256 _tokenId)\r\n        public\r\n        view\r\n        returns (string[] memory)\r\n    {\r\n        string[] memory liquorResult = new string[](5);\r\n        liquorResult[0] = liquorCollection[_tokenId].liquorName;\r\n        liquorResult[1] = liquorCollection[_tokenId].sellerName;\r\n        liquorResult[2] = liquorCollection[_tokenId].isReservable;\r\n        liquorResult[3] = liquorCollection[_tokenId].arrivalDay;\r\n        liquorResult[4] = liquorCollection[_tokenId].reserveScore;\r\n        return liquorResult;\r\n    }\r\n\r\n    function fetchAllLiquors() public view returns (string[] memory) {\r\n        string[] memory liquors = new string[](liquorCollection.length * 5);\r\n        uint256 contentNumber = 0;\r\n        for (uint256 i = 0; i < liquorCollection.length; i++) {\r\n            liquors[contentNumber] = liquorCollection[i].liquorName;\r\n            contentNumber = contentNumber + 1;\r\n\r\n            liquors[contentNumber] = liquorCollection[i].sellerName;\r\n            contentNumber = contentNumber + 1;\r\n\r\n            liquors[contentNumber] = liquorCollection[i].isReservable;\r\n            contentNumber = contentNumber + 1;\r\n\r\n            liquors[contentNumber] = liquorCollection[i].arrivalDay;\r\n            contentNumber = contentNumber + 1;\r\n\r\n            liquors[contentNumber] = liquorCollection[i].reserveScore;\r\n            contentNumber = contentNumber + 1;\r\n        }\r\n        return liquors;\r\n    }\r\n\r\n    // ToDo: \r\n    // function updateReservability(uint256 _tokenId) external {\r\n    //     if (stringToBool(liquorCollection[_tokenId].isReservable) == true) {\r\n    //         liquorCollection[_tokenId].isReservable = \"true\";\r\n    //     } else {\r\n    //         liquorCollection[_tokenId].isReservable = \"false\";\r\n    //     }\r\n    // }\r\n\r\n    function addBlockToRegister(\r\n        string memory liquorName,\r\n        string memory sellerName,\r\n        string memory isReservable,\r\n        string memory arrivalDay,\r\n        string memory reserveScore\r\n    ) public payable returns (bool) {\r\n        uint256 newTokenId = liquorCollection.length;\r\n        liquorCollection.push(\r\n            Liquor(\r\n                newTokenId,\r\n                liquorName,\r\n                sellerName,\r\n                isReservable,\r\n                arrivalDay,\r\n                reserveScore\r\n            )\r\n        );\r\n        emit Transfer(msg.sender, _contractOwner, liquorCollection.length);\r\n        return true;\r\n    }\r\n\r\n    // boolstring\r\n    function boolToString(bool boolean) internal pure returns (string memory) {\r\n        if (boolean == true) {\r\n            return \"true\";\r\n        } else {\r\n            return \"false\";\r\n        }\r\n    }\r\n\r\n    // string  bool \r\n    function stringToBool(string memory boolStr) internal pure returns (bool) {\r\n        if (keccak256(bytes(boolStr)) == keccak256(\"true\")) {\r\n            return true;\r\n        } else {\r\n            return false;\r\n        }\r\n    }\r\n}\r\n",
  "sourcePath": "C:/Users/jumpei.kuwata/Documents/BC_tutorial/BC_liquor/contracts/Liquor.sol",
  "compiler": {
    "name": "solc",
    "version": "0.5.16+commit.9c3226ce.Emscripten.clang"
  },
  "schemaVersion": "3.3.2",
  "updatedAt": "2020-12-24T02:41:55.195Z",
  "networkType": "ethereum",
  "devdoc": {
    "methods": {
      "approve(address,uint256)": {
        "details": "Approves another address to transfer the given token ID The zero address indicates there is no approved address. There can only be one approved address per token at a given time. Can only be called by the token owner or an approved operator.",
        "params": {
          "to": "address to be approved for the given token ID",
          "tokenId": "uint256 ID of the token to be approved"
        }
      },
      "balanceOf(address)": {
        "details": "Gets the balance of the specified address.",
        "params": {
          "owner": "address to query the balance of"
        },
        "return": "uint256 representing the amount owned by the passed address"
      },
      "baseURI()": {
        "details": "Returns the base URI set via {_setBaseURI}. This will be automatically added as a preffix in {tokenURI} to each token's URI, when they are non-empty.     * _Available since v2.5.0._"
      },
      "getApproved(uint256)": {
        "details": "Gets the approved address for a token ID, or zero if no address set Reverts if the token ID does not exist.",
        "params": {
          "tokenId": "uint256 ID of the token to query the approval of"
        },
        "return": "address currently approved for the given token ID"
      },
      "isApprovedForAll(address,address)": {
        "details": "Tells whether an operator is approved by a given owner.",
        "params": {
          "operator": "operator address which you want to query the approval of",
          "owner": "owner address which you want to query the approval of"
        },
        "return": "bool whether the given operator is approved by the given owner"
      },
      "name()": {
        "details": "Gets the token name.",
        "return": "string representing the token name"
      },
      "ownerOf(uint256)": {
        "details": "Gets the owner of the specified token ID.",
        "params": {
          "tokenId": "uint256 ID of the token to query the owner of"
        },
        "return": "address currently marked as the owner of the given token ID"
      },
      "safeTransferFrom(address,address,uint256)": {
        "details": "Safely transfers the ownership of a given token ID to another address If the target address is a contract, it must implement {IERC721Receiver-onERC721Received}, which is called upon a safe transfer, and return the magic value `bytes4(keccak256(\"onERC721Received(address,address,uint256,bytes)\"))`; otherwise, the transfer is reverted. Requires the msg.sender to be the owner, approved, or operator",
        "params": {
          "from": "current owner of the token",
          "to": "address to receive the ownership of the given token ID",
          "tokenId": "uint256 ID of the token to be transferred"
        }
      },
      "safeTransferFrom(address,address,uint256,bytes)": {
        "details": "Safely transfers the ownership of a given token ID to another address If the target address is a contract, it must implement {IERC721Receiver-onERC721Received}, which is called upon a safe transfer, and return the magic value `bytes4(keccak256(\"onERC721Received(address,address,uint256,bytes)\"))`; otherwise, the transfer is reverted. Requires the _msgSender() to be the owner, approved, or operator",
        "params": {
          "_data": "bytes data to send along with a safe transfer check",
          "from": "current owner of the token",
          "to": "address to receive the ownership of the given token ID",
          "tokenId": "uint256 ID of the token to be transferred"
        }
      },
      "setApprovalForAll(address,bool)": {
        "details": "Sets or unsets the approval of a given operator An operator is allowed to transfer all tokens of the sender on their behalf.",
        "params": {
          "approved": "representing the status of the approval to be set",
          "to": "operator address to set the approval"
        }
      },
      "supportsInterface(bytes4)": {
        "details": "See {IERC165-supportsInterface}.      * Time complexity O(1), guaranteed to always use less than 30 000 gas."
      },
      "symbol()": {
        "details": "Gets the token symbol.",
        "return": "string representing the token symbol"
      },
      "tokenByIndex(uint256)": {
        "details": "Gets the token ID at a given index of all the tokens in this contract Reverts if the index is greater or equal to the total number of tokens.",
        "params": {
          "index": "uint256 representing the index to be accessed of the tokens list"
        },
        "return": "uint256 token ID at the given index of the tokens list"
      },
      "tokenOfOwnerByIndex(address,uint256)": {
        "details": "Gets the token ID at a given index of the tokens list of the requested owner.",
        "params": {
          "index": "uint256 representing the index to be accessed of the requested tokens list",
          "owner": "address owning the tokens list to be accessed"
        },
        "return": "uint256 token ID at the given index of the tokens list owned by the requested address"
      },
      "tokenURI(uint256)": {
        "details": "Returns the URI for a given token ID. May return an empty string.      * If the token's URI is non-empty and a base URI was set (via {_setBaseURI}), it will be added to the token ID's URI as a prefix.      * Reverts if the token ID does not exist."
      },
      "totalSupply()": {
        "details": "Gets the total amount of tokens stored by the contract.",
        "return": "uint256 representing the total amount of tokens"
      },
      "transferFrom(address,address,uint256)": {
        "details": "Transfers the ownership of a given token ID to another address. Usage of this method is discouraged, use {safeTransferFrom} whenever possible. Requires the msg.sender to be the owner, approved, or operator.",
        "params": {
          "from": "current owner of the token",
          "to": "address to receive the ownership of the given token ID",
          "tokenId": "uint256 ID of the token to be transferred"
        }
      }
    }
  },
  "userdoc": {
    "methods": {}
  }
}