{
  "contractName": "Liquor",
  "abi": [
    {
      "inputs": [],
      "payable": false,
      "stateMutability": "nonpayable",
      "type": "constructor"
    },
    {
      "anonymous": false,
      "inputs": [
        {
          "indexed": true,
          "internalType": "address",
          "name": "owner",
          "type": "address"
        },
        {
          "indexed": true,
          "internalType": "address",
          "name": "approved",
          "type": "address"
        },
        {
          "indexed": true,
          "internalType": "uint256",
          "name": "tokenId",
          "type": "uint256"
        }
      ],
      "name": "Approval",
      "type": "event"
    },
    {
      "anonymous": false,
      "inputs": [
        {
          "indexed": true,
          "internalType": "address",
          "name": "owner",
          "type": "address"
        },
        {
          "indexed": true,
          "internalType": "address",
          "name": "operator",
          "type": "address"
        },
        {
          "indexed": false,
          "internalType": "bool",
          "name": "approved",
          "type": "bool"
        }
      ],
      "name": "ApprovalForAll",
      "type": "event"
    },
    {
      "anonymous": false,
      "inputs": [
        {
          "indexed": true,
          "internalType": "address",
          "name": "_from",
          "type": "address"
        },
        {
          "indexed": true,
          "internalType": "address",
          "name": "_to",
          "type": "address"
        },
        {
          "indexed": true,
          "internalType": "uint256",
          "name": "_tokenId",
          "type": "uint256"
        }
      ],
      "name": "Transfer",
      "type": "event"
    },
    {
      "constant": false,
      "inputs": [
        {
          "internalType": "address",
          "name": "to",
          "type": "address"
        },
        {
          "internalType": "uint256",
          "name": "tokenId",
          "type": "uint256"
        }
      ],
      "name": "approve",
      "outputs": [],
      "payable": false,
      "stateMutability": "nonpayable",
      "type": "function"
    },
    {
      "constant": true,
      "inputs": [
        {
          "internalType": "address",
          "name": "owner",
          "type": "address"
        }
      ],
      "name": "balanceOf",
      "outputs": [
        {
          "internalType": "uint256",
          "name": "",
          "type": "uint256"
        }
      ],
      "payable": false,
      "stateMutability": "view",
      "type": "function"
    },
    {
      "constant": true,
      "inputs": [],
      "name": "baseURI",
      "outputs": [
        {
          "internalType": "string",
          "name": "",
          "type": "string"
        }
      ],
      "payable": false,
      "stateMutability": "view",
      "type": "function"
    },
    {
      "constant": true,
      "inputs": [
        {
          "internalType": "uint256",
          "name": "tokenId",
          "type": "uint256"
        }
      ],
      "name": "getApproved",
      "outputs": [
        {
          "internalType": "address",
          "name": "",
          "type": "address"
        }
      ],
      "payable": false,
      "stateMutability": "view",
      "type": "function"
    },
    {
      "constant": true,
      "inputs": [
        {
          "internalType": "address",
          "name": "owner",
          "type": "address"
        },
        {
          "internalType": "address",
          "name": "operator",
          "type": "address"
        }
      ],
      "name": "isApprovedForAll",
      "outputs": [
        {
          "internalType": "bool",
          "name": "",
          "type": "bool"
        }
      ],
      "payable": false,
      "stateMutability": "view",
      "type": "function"
    },
    {
      "constant": true,
      "inputs": [],
      "name": "name",
      "outputs": [
        {
          "internalType": "string",
          "name": "",
          "type": "string"
        }
      ],
      "payable": false,
      "stateMutability": "view",
      "type": "function"
    },
    {
      "constant": true,
      "inputs": [
        {
          "internalType": "uint256",
          "name": "tokenId",
          "type": "uint256"
        }
      ],
      "name": "ownerOf",
      "outputs": [
        {
          "internalType": "address",
          "name": "",
          "type": "address"
        }
      ],
      "payable": false,
      "stateMutability": "view",
      "type": "function"
    },
    {
      "constant": false,
      "inputs": [
        {
          "internalType": "address",
          "name": "from",
          "type": "address"
        },
        {
          "internalType": "address",
          "name": "to",
          "type": "address"
        },
        {
          "internalType": "uint256",
          "name": "tokenId",
          "type": "uint256"
        }
      ],
      "name": "safeTransferFrom",
      "outputs": [],
      "payable": false,
      "stateMutability": "nonpayable",
      "type": "function"
    },
    {
      "constant": false,
      "inputs": [
        {
          "internalType": "address",
          "name": "from",
          "type": "address"
        },
        {
          "internalType": "address",
          "name": "to",
          "type": "address"
        },
        {
          "internalType": "uint256",
          "name": "tokenId",
          "type": "uint256"
        },
        {
          "internalType": "bytes",
          "name": "_data",
          "type": "bytes"
        }
      ],
      "name": "safeTransferFrom",
      "outputs": [],
      "payable": false,
      "stateMutability": "nonpayable",
      "type": "function"
    },
    {
      "constant": false,
      "inputs": [
        {
          "internalType": "address",
          "name": "to",
          "type": "address"
        },
        {
          "internalType": "bool",
          "name": "approved",
          "type": "bool"
        }
      ],
      "name": "setApprovalForAll",
      "outputs": [],
      "payable": false,
      "stateMutability": "nonpayable",
      "type": "function"
    },
    {
      "constant": true,
      "inputs": [
        {
          "internalType": "bytes4",
          "name": "interfaceId",
          "type": "bytes4"
        }
      ],
      "name": "supportsInterface",
      "outputs": [
        {
          "internalType": "bool",
          "name": "",
          "type": "bool"
        }
      ],
      "payable": false,
      "stateMutability": "view",
      "type": "function"
    },
    {
      "constant": true,
      "inputs": [],
      "name": "symbol",
      "outputs": [
        {
          "internalType": "string",
          "name": "",
          "type": "string"
        }
      ],
      "payable": false,
      "stateMutability": "view",
      "type": "function"
    },
    {
      "constant": true,
      "inputs": [
        {
          "internalType": "uint256",
          "name": "index",
          "type": "uint256"
        }
      ],
      "name": "tokenByIndex",
      "outputs": [
        {
          "internalType": "uint256",
          "name": "",
          "type": "uint256"
        }
      ],
      "payable": false,
      "stateMutability": "view",
      "type": "function"
    },
    {
      "constant": true,
      "inputs": [
        {
          "internalType": "address",
          "name": "owner",
          "type": "address"
        },
        {
          "internalType": "uint256",
          "name": "index",
          "type": "uint256"
        }
      ],
      "name": "tokenOfOwnerByIndex",
      "outputs": [
        {
          "internalType": "uint256",
          "name": "",
          "type": "uint256"
        }
      ],
      "payable": false,
      "stateMutability": "view",
      "type": "function"
    },
    {
      "constant": true,
      "inputs": [
        {
          "internalType": "uint256",
          "name": "tokenId",
          "type": "uint256"
        }
      ],
      "name": "tokenURI",
      "outputs": [
        {
          "internalType": "string",
          "name": "",
          "type": "string"
        }
      ],
      "payable": false,
      "stateMutability": "view",
      "type": "function"
    },
    {
      "constant": true,
      "inputs": [],
      "name": "totalSupply",
      "outputs": [
        {
          "internalType": "uint256",
          "name": "",
          "type": "uint256"
        }
      ],
      "payable": false,
      "stateMutability": "view",
      "type": "function"
    },
    {
      "constant": false,
      "inputs": [
        {
          "internalType": "address",
          "name": "from",
          "type": "address"
        },
        {
          "internalType": "address",
          "name": "to",
          "type": "address"
        },
        {
          "internalType": "uint256",
          "name": "tokenId",
          "type": "uint256"
        }
      ],
      "name": "transferFrom",
      "outputs": [],
      "payable": false,
      "stateMutability": "nonpayable",
      "type": "function"
    },
    {
      "constant": true,
      "inputs": [
        {
          "internalType": "uint256",
          "name": "_tokenId",
          "type": "uint256"
        }
      ],
      "name": "fetchLiquor",
      "outputs": [
        {
          "internalType": "string[]",
          "name": "",
          "type": "string[]"
        }
      ],
      "payable": false,
      "stateMutability": "view",
      "type": "function"
    },
    {
      "constant": true,
      "inputs": [],
      "name": "fetchAllLiquors",
      "outputs": [
        {
          "internalType": "string[]",
          "name": "",
          "type": "string[]"
        }
      ],
      "payable": false,
      "stateMutability": "view",
      "type": "function"
    },
    {
      "constant": false,
      "inputs": [
        {
          "internalType": "uint256",
          "name": "_tokenId",
          "type": "uint256"
        }
      ],
      "name": "updateReservability",
      "outputs": [],
      "payable": false,
      "stateMutability": "nonpayable",
      "type": "function"
    },
    {
      "constant": false,
      "inputs": [
        {
          "internalType": "string",
          "name": "liquorName",
          "type": "string"
        },
        {
          "internalType": "string",
          "name": "sellerName",
          "type": "string"
        },
        {
          "internalType": "string",
          "name": "isReservable",
          "type": "string"
        },
        {
          "internalType": "string",
          "name": "arrivalDay",
          "type": "string"
        },
        {
          "internalType": "string",
          "name": "reserveScore",
          "type": "string"
        }
      ],
      "name": "addBlockToRegister",
      "outputs": [
        {
          "internalType": "bool",
          "name": "",
          "type": "bool"
        }
      ],
      "payable": true,
      "stateMutability": "payable",
      "type": "function"
    }
  ],
  "bytecode": "0x60806040523480156200001157600080fd5b506040518060400160405280600681526020017f4c6971756f7200000000000000000000000000000000000000000000000000008152506040518060400160405280600381526020017f4c495100000000000000000000000000000000000000000000000000000000008152508181620000986301ffc9a760e01b6200015d60201b60201c565b620000b06380ac58cd60e01b6200015d60201b60201c565b620000c863780e9d6360e01b6200015d60201b60201c565b8160099080519060200190620000e092919062000235565b5080600a9080519060200190620000f992919062000235565b5062000112635b5e139f60e01b6200015d60201b60201c565b5050505033600e60006101000a81548173ffffffffffffffffffffffffffffffffffffffff021916908373ffffffffffffffffffffffffffffffffffffffff16021790555062000359565b63ffffffff60e01b817bffffffffffffffffffffffffffffffffffffffffffffffffffffffff19161415620001c9576040517f08c379a0000000000000000000000000000000000000000000000000000000008152600401620001c09062000326565b60405180910390fd5b6001600080837bffffffffffffffffffffffffffffffffffffffffffffffffffffffff19167bffffffffffffffffffffffffffffffffffffffffffffffffffffffff1916815260200190815260200160002060006101000a81548160ff02191690831515021790555050565b828054600181600116156101000203166002900490600052602060002090601f016020900481019282601f106200027857805160ff1916838001178555620002a9565b82800160010185558215620002a9579182015b82811115620002a85782518255916020019190600101906200028b565b5b509050620002b89190620002bc565b5090565b620002e191905b80821115620002dd576000816000905550600101620002c3565b5090565b90565b6000620002f3601c8362000348565b91507f4552433136353a20696e76616c696420696e74657266616365206964000000006000830152602082019050919050565b600060208201905081810360008301526200034181620002e4565b9050919050565b600082825260208201905092915050565b613a8180620003696000396000f3fe60806040526004361061012a5760003560e01c80634f6ccce7116100ab578063a22cb4651161006f578063a22cb46514610418578063a55a2abf14610441578063b88d4fde14610471578063c87b56dd1461049a578063dba124b4146104d7578063e985e9c5146105145761012a565b80634f6ccce71461030b5780636352211e146103485780636c0360eb1461038557806370a08231146103b057806395d89b41146103ed5761012a565b806313fcb5b1116100f257806313fcb5b11461022857806318160ddd1461025157806323b872dd1461027c5780632f745c59146102a557806342842e0e146102e25761012a565b806301ffc9a71461012f57806304f801ee1461016c57806306fdde0314610197578063081812fc146101c2578063095ea7b3146101ff575b600080fd5b34801561013b57600080fd5b5061015660048036036101519190810190612b63565b610551565b60405161016391906135b4565b60405180910390f35b34801561017857600080fd5b506101816105b8565b60405161018e9190613592565b60405180910390f35b3480156101a357600080fd5b506101ac610a4c565b6040516101b991906135cf565b60405180910390f35b3480156101ce57600080fd5b506101e960048036036101e49190810190612ca4565b610aee565b6040516101f6919061352b565b60405180910390f35b34801561020b57600080fd5b5061022660048036036102219190810190612b27565b610b73565b005b34801561023457600080fd5b5061024f600480360361024a9190810190612ca4565b610d2e565b005b34801561025d57600080fd5b50610266610ed2565b60405161027391906137b1565b60405180910390f35b34801561028857600080fd5b506102a3600480360361029e9190810190612a21565b610edf565b005b3480156102b157600080fd5b506102cc60048036036102c79190810190612b27565b610f3f565b6040516102d991906137b1565b60405180910390f35b3480156102ee57600080fd5b5061030960048036036103049190810190612a21565b610fe8565b005b34801561031757600080fd5b50610332600480360361032d9190810190612ca4565b611008565b60405161033f91906137b1565b60405180910390f35b34801561035457600080fd5b5061036f600480360361036a9190810190612ca4565b611072565b60405161037c919061352b565b60405180910390f35b34801561039157600080fd5b5061039a611124565b6040516103a791906135cf565b60405180910390f35b3480156103bc57600080fd5b506103d760048036036103d291908101906129bc565b6111c6565b6040516103e491906137b1565b60405180910390f35b3480156103f957600080fd5b50610402611285565b60405161040f91906135cf565b60405180910390f35b34801561042457600080fd5b5061043f600480360361043a9190810190612aeb565b611327565b005b61045b60048036036104569190810190612bb5565b6114a8565b60405161046891906135b4565b60405180910390f35b34801561047d57600080fd5b5061049860048036036104939190810190612a70565b61163b565b005b3480156104a657600080fd5b506104c160048036036104bc9190810190612ca4565b61169d565b6040516104ce91906135cf565b60405180910390f35b3480156104e357600080fd5b506104fe60048036036104f99190810190612ca4565b6117e5565b60405161050b9190613592565b60405180910390f35b34801561052057600080fd5b5061053b600480360361053691908101906129e5565b611c34565b60405161054891906135b4565b60405180910390f35b6000806000837bffffffffffffffffffffffffffffffffffffffffffffffffffffffff19167bffffffffffffffffffffffffffffffffffffffffffffffffffffffff1916815260200190815260200160002060009054906101000a900460ff169050919050565b6060806005600d80549050026040519080825280602002602001820160405280156105f757816020015b60608152602001906001900390816105e25790505b509050600080905060008090505b600d80549050811015610a4357600d818154811061061f57fe5b90600052602060002090600602016001018054600181600116156101000203166002900480601f0160208091040260200160405190810160405280929190818152602001828054600181600116156101000203166002900480156106c45780601f10610699576101008083540402835291602001916106c4565b820191906000526020600020905b8154815290600101906020018083116106a757829003601f168201915b50505050508383815181106106d557fe5b6020026020010181905250600182019150600d81815481106106f357fe5b90600052602060002090600602016002018054600181600116156101000203166002900480601f0160208091040260200160405190810160405280929190818152602001828054600181600116156101000203166002900480156107985780601f1061076d57610100808354040283529160200191610798565b820191906000526020600020905b81548152906001019060200180831161077b57829003601f168201915b50505050508383815181106107a957fe5b6020026020010181905250600182019150600d81815481106107c757fe5b90600052602060002090600602016003018054600181600116156101000203166002900480601f01602080910402602001604051908101604052809291908181526020018280546001816001161561010002031660029004801561086c5780601f106108415761010080835404028352916020019161086c565b820191906000526020600020905b81548152906001019060200180831161084f57829003601f168201915b505050505083838151811061087d57fe5b6020026020010181905250600182019150600d818154811061089b57fe5b90600052602060002090600602016004018054600181600116156101000203166002900480601f0160208091040260200160405190810160405280929190818152602001828054600181600116156101000203166002900480156109405780601f1061091557610100808354040283529160200191610940565b820191906000526020600020905b81548152906001019060200180831161092357829003601f168201915b505050505083838151811061095157fe5b6020026020010181905250600182019150600d818154811061096f57fe5b90600052602060002090600602016005018054600181600116156101000203166002900480601f016020809104026020016040519081016040528092919081815260200182805460018160011615610100020316600290048015610a145780601f106109e957610100808354040283529160200191610a14565b820191906000526020600020905b8154815290600101906020018083116109f757829003601f168201915b5050505050838381518110610a2557fe5b60200260200101819052506001820191508080600101915050610605565b50819250505090565b606060098054600181600116156101000203166002900480601f016020809104026020016040519081016040528092919081815260200182805460018160011615610100020316600290048015610ae45780601f10610ab957610100808354040283529160200191610ae4565b820191906000526020600020905b815481529060010190602001808311610ac757829003601f168201915b5050505050905090565b6000610af982611cc8565b610b38576040517f08c379a0000000000000000000000000000000000000000000000000000000008152600401610b2f906136f1565b60405180910390fd5b6002600083815260200190815260200160002060009054906101000a900473ffffffffffffffffffffffffffffffffffffffff169050919050565b6000610b7e82611072565b90508073ffffffffffffffffffffffffffffffffffffffff168373ffffffffffffffffffffffffffffffffffffffff161415610bef576040517f08c379a0000000000000000000000000000000000000000000000000000000008152600401610be690613751565b60405180910390fd5b8073ffffffffffffffffffffffffffffffffffffffff16610c0e611d3a565b73ffffffffffffffffffffffffffffffffffffffff161480610c3d5750610c3c81610c37611d3a565b611c34565b5b610c7c576040517f08c379a0000000000000000000000000000000000000000000000000000000008152600401610c7390613691565b60405180910390fd5b826002600084815260200190815260200160002060006101000a81548173ffffffffffffffffffffffffffffffffffffffff021916908373ffffffffffffffffffffffffffffffffffffffff160217905550818373ffffffffffffffffffffffffffffffffffffffff168273ffffffffffffffffffffffffffffffffffffffff167f8c5be1e5ebec7d5bd14f71427d1e84f3dd0314c0f7b2291e5b200ac8c7c3b92560405160405180910390a4505050565b60011515610df1600d8381548110610d4257fe5b90600052602060002090600602016003018054600181600116156101000203166002900480601f016020809104026020016040519081016040528092919081815260200182805460018160011615610100020316600290048015610de75780601f10610dbc57610100808354040283529160200191610de7565b820191906000526020600020905b815481529060010190602001808311610dca57829003601f168201915b5050505050611d42565b15151415610e66576040518060400160405280600481526020017f7472756500000000000000000000000000000000000000000000000000000000815250600d8281548110610e3c57fe5b90600052602060002090600602016003019080519060200190610e6092919061275a565b50610ecf565b6040518060400160405280600581526020017f66616c7365000000000000000000000000000000000000000000000000000000815250600d8281548110610ea957fe5b90600052602060002090600602016003019080519060200190610ecd92919061275a565b505b50565b6000600780549050905090565b610ef0610eea611d3a565b82611d79565b610f2f576040517f08c379a0000000000000000000000000000000000000000000000000000000008152600401610f2690613771565b60405180910390fd5b610f3a838383611e57565b505050565b6000610f4a836111c6565b8210610f8b576040517f08c379a0000000000000000000000000000000000000000000000000000000008152600401610f82906135f1565b60405180910390fd5b600560008473ffffffffffffffffffffffffffffffffffffffff1673ffffffffffffffffffffffffffffffffffffffff1681526020019081526020016000208281548110610fd557fe5b9060005260206000200154905092915050565b6110038383836040518060200160405280600081525061163b565b505050565b6000611012610ed2565b8210611053576040517f08c379a000000000000000000000000000000000000000000000000000000000815260040161104a90613791565b60405180910390fd5b6007828154811061106057fe5b90600052602060002001549050919050565b6000806001600084815260200190815260200160002060009054906101000a900473ffffffffffffffffffffffffffffffffffffffff169050600073ffffffffffffffffffffffffffffffffffffffff168173ffffffffffffffffffffffffffffffffffffffff16141561111b576040517f08c379a0000000000000000000000000000000000000000000000000000000008152600401611112906136d1565b60405180910390fd5b80915050919050565b6060600b8054600181600116156101000203166002900480601f0160208091040260200160405190810160405280929190818152602001828054600181600116156101000203166002900480156111bc5780601f10611191576101008083540402835291602001916111bc565b820191906000526020600020905b81548152906001019060200180831161119f57829003601f168201915b5050505050905090565b60008073ffffffffffffffffffffffffffffffffffffffff168273ffffffffffffffffffffffffffffffffffffffff161415611237576040517f08c379a000000000000000000000000000000000000000000000000000000000815260040161122e906136b1565b60405180910390fd5b61127e600360008473ffffffffffffffffffffffffffffffffffffffff1673ffffffffffffffffffffffffffffffffffffffff168152602001908152602001600020611e7b565b9050919050565b6060600a8054600181600116156101000203166002900480601f01602080910402602001604051908101604052809291908181526020018280546001816001161561010002031660029004801561131d5780601f106112f25761010080835404028352916020019161131d565b820191906000526020600020905b81548152906001019060200180831161130057829003601f168201915b5050505050905090565b61132f611d3a565b73ffffffffffffffffffffffffffffffffffffffff168273ffffffffffffffffffffffffffffffffffffffff16141561139d576040517f08c379a000000000000000000000000000000000000000000000000000000000815260040161139490613651565b60405180910390fd5b80600460006113aa611d3a565b73ffffffffffffffffffffffffffffffffffffffff1673ffffffffffffffffffffffffffffffffffffffff16815260200190815260200160002060008473ffffffffffffffffffffffffffffffffffffffff1673ffffffffffffffffffffffffffffffffffffffff16815260200190815260200160002060006101000a81548160ff0219169083151502179055508173ffffffffffffffffffffffffffffffffffffffff16611457611d3a565b73ffffffffffffffffffffffffffffffffffffffff167f17307eab39ab6107e8899845ad3d59bd9653f200f220920489ca2b5937696c318360405161149c91906135b4565b60405180910390a35050565b600080600d805490509050600d6040518060c0016040528083815260200189815260200188815260200187815260200186815260200185815250908060018154018082558091505090600182039060005260206000209060060201600090919290919091506000820151816000015560208201518160010190805190602001906115339291906127da565b5060408201518160020190805190602001906115509291906127da565b50606082015181600301908051906020019061156d9291906127da565b50608082015181600401908051906020019061158a9291906127da565b5060a08201518160050190805190602001906115a79291906127da565b50505050600d80549050600e60009054906101000a900473ffffffffffffffffffffffffffffffffffffffff1673ffffffffffffffffffffffffffffffffffffffff163373ffffffffffffffffffffffffffffffffffffffff167fddf252ad1be2c89b69c2b068fc378daa952ba7f163c4a11628f55a4df523b3ef60405160405180910390a4600191505095945050505050565b61164c611646611d3a565b83611d79565b61168b576040517f08c379a000000000000000000000000000000000000000000000000000000000815260040161168290613771565b60405180910390fd5b61169784848484611e89565b50505050565b60606116a882611cc8565b6116e7576040517f08c379a00000000000000000000000000000000000000000000000000000000081526004016116de90613731565b60405180910390fd5b6060600c60008481526020019081526020016000208054600181600116156101000203166002900480601f0160208091040260200160405190810160405280929190818152602001828054600181600116156101000203166002900480156117905780601f1061176557610100808354040283529160200191611790565b820191906000526020600020905b81548152906001019060200180831161177357829003601f168201915b505050505090506000815114156117b957604051806020016040528060008152509150506117e0565b600b816040516020016117cd9291906134f2565b6040516020818303038152906040529150505b919050565b606080600560405190808252806020026020018201604052801561181d57816020015b60608152602001906001900390816118085790505b509050600d838154811061182d57fe5b90600052602060002090600602016001018054600181600116156101000203166002900480601f0160208091040260200160405190810160405280929190818152602001828054600181600116156101000203166002900480156118d25780601f106118a7576101008083540402835291602001916118d2565b820191906000526020600020905b8154815290600101906020018083116118b557829003601f168201915b5050505050816000815181106118e457fe5b6020026020010181905250600d83815481106118fc57fe5b90600052602060002090600602016002018054600181600116156101000203166002900480601f0160208091040260200160405190810160405280929190818152602001828054600181600116156101000203166002900480156119a15780601f10611976576101008083540402835291602001916119a1565b820191906000526020600020905b81548152906001019060200180831161198457829003601f168201915b5050505050816001815181106119b357fe5b6020026020010181905250600d83815481106119cb57fe5b90600052602060002090600602016003018054600181600116156101000203166002900480601f016020809104026020016040519081016040528092919081815260200182805460018160011615610100020316600290048015611a705780601f10611a4557610100808354040283529160200191611a70565b820191906000526020600020905b815481529060010190602001808311611a5357829003601f168201915b505050505081600281518110611a8257fe5b6020026020010181905250600d8381548110611a9a57fe5b90600052602060002090600602016004018054600181600116156101000203166002900480601f016020809104026020016040519081016040528092919081815260200182805460018160011615610100020316600290048015611b3f5780601f10611b1457610100808354040283529160200191611b3f565b820191906000526020600020905b815481529060010190602001808311611b2257829003601f168201915b505050505081600381518110611b5157fe5b6020026020010181905250600d8381548110611b6957fe5b90600052602060002090600602016005018054600181600116156101000203166002900480601f016020809104026020016040519081016040528092919081815260200182805460018160011615610100020316600290048015611c0e5780601f10611be357610100808354040283529160200191611c0e565b820191906000526020600020905b815481529060010190602001808311611bf157829003601f168201915b505050505081600481518110611c2057fe5b602002602001018190525080915050919050565b6000600460008473ffffffffffffffffffffffffffffffffffffffff1673ffffffffffffffffffffffffffffffffffffffff16815260200190815260200160002060008373ffffffffffffffffffffffffffffffffffffffff1673ffffffffffffffffffffffffffffffffffffffff16815260200190815260200160002060009054906101000a900460ff16905092915050565b6000806001600084815260200190815260200160002060009054906101000a900473ffffffffffffffffffffffffffffffffffffffff169050600073ffffffffffffffffffffffffffffffffffffffff168173ffffffffffffffffffffffffffffffffffffffff161415915050919050565b600033905090565b6000604051611d5090613516565b604051809103902082805190602001201415611d6f5760019050611d74565b600090505b919050565b6000611d8482611cc8565b611dc3576040517f08c379a0000000000000000000000000000000000000000000000000000000008152600401611dba90613671565b60405180910390fd5b6000611dce83611072565b90508073ffffffffffffffffffffffffffffffffffffffff168473ffffffffffffffffffffffffffffffffffffffff161480611e3d57508373ffffffffffffffffffffffffffffffffffffffff16611e2584610aee565b73ffffffffffffffffffffffffffffffffffffffff16145b80611e4e5750611e4d8185611c34565b5b91505092915050565b611e62838383611ee5565b611e6c8382612114565b611e7682826122b2565b505050565b600081600001549050919050565b611e94848484611e57565b611ea084848484612379565b611edf576040517f08c379a0000000000000000000000000000000000000000000000000000000008152600401611ed690613611565b60405180910390fd5b50505050565b8273ffffffffffffffffffffffffffffffffffffffff16611f0582611072565b73ffffffffffffffffffffffffffffffffffffffff1614611f5b576040517f08c379a0000000000000000000000000000000000000000000000000000000008152600401611f5290613711565b60405180910390fd5b600073ffffffffffffffffffffffffffffffffffffffff168273ffffffffffffffffffffffffffffffffffffffff161415611fcb576040517f08c379a0000000000000000000000000000000000000000000000000000000008152600401611fc290613631565b60405180910390fd5b611fd481612573565b61201b600360008573ffffffffffffffffffffffffffffffffffffffff1673ffffffffffffffffffffffffffffffffffffffff168152602001908152602001600020612631565b612062600360008473ffffffffffffffffffffffffffffffffffffffff1673ffffffffffffffffffffffffffffffffffffffff168152602001908152602001600020612654565b816001600083815260200190815260200160002060006101000a81548173ffffffffffffffffffffffffffffffffffffffff021916908373ffffffffffffffffffffffffffffffffffffffff160217905550808273ffffffffffffffffffffffffffffffffffffffff168473ffffffffffffffffffffffffffffffffffffffff167fddf252ad1be2c89b69c2b068fc378daa952ba7f163c4a11628f55a4df523b3ef60405160405180910390a4505050565b600061216c6001600560008673ffffffffffffffffffffffffffffffffffffffff1673ffffffffffffffffffffffffffffffffffffffff1681526020019081526020016000208054905061266a90919063ffffffff16565b9050600060066000848152602001908152602001600020549050818114612259576000600560008673ffffffffffffffffffffffffffffffffffffffff1673ffffffffffffffffffffffffffffffffffffffff16815260200190815260200160002083815481106121d957fe5b9060005260206000200154905080600560008773ffffffffffffffffffffffffffffffffffffffff1673ffffffffffffffffffffffffffffffffffffffff168152602001908152602001600020838154811061223157fe5b9060005260206000200181905550816006600083815260200190815260200160002081905550505b600560008573ffffffffffffffffffffffffffffffffffffffff1673ffffffffffffffffffffffffffffffffffffffff1681526020019081526020016000208054809190600190036122ab919061285a565b5050505050565b600560008373ffffffffffffffffffffffffffffffffffffffff1673ffffffffffffffffffffffffffffffffffffffff168152602001908152602001600020805490506006600083815260200190815260200160002081905550600560008373ffffffffffffffffffffffffffffffffffffffff1673ffffffffffffffffffffffffffffffffffffffff1681526020019081526020016000208190806001815401808255809150509060018203906000526020600020016000909192909190915055505050565b600061239a8473ffffffffffffffffffffffffffffffffffffffff166126b4565b6123a7576001905061256b565b600060608573ffffffffffffffffffffffffffffffffffffffff168673ffffffffffffffffffffffffffffffffffffffff1663150b7a02905060e01b6123eb611d3a565b8988886040516024016124019493929190613546565b604051602081830303815290604052907bffffffffffffffffffffffffffffffffffffffffffffffffffffffff19166020820180517bffffffffffffffffffffffffffffffffffffffffffffffffffffffff838183161783525050505060405161246b91906134db565b6000604051808303816000865af19150503d80600081146124a8576040519150601f19603f3d011682016040523d82523d6000602084013e6124ad565b606091505b509150915081612505576000815111156124ca5780518082602001fd5b6040517f08c379a00000000000000000000000000000000000000000000000000000000081526004016124fc90613611565b60405180910390fd5b60008180602001905161251b9190810190612b8c565b905063150b7a0260e01b7bffffffffffffffffffffffffffffffffffffffffffffffffffffffff1916817bffffffffffffffffffffffffffffffffffffffffffffffffffffffff19161493505050505b949350505050565b600073ffffffffffffffffffffffffffffffffffffffff166002600083815260200190815260200160002060009054906101000a900473ffffffffffffffffffffffffffffffffffffffff1673ffffffffffffffffffffffffffffffffffffffff161461262e5760006002600083815260200190815260200160002060006101000a81548173ffffffffffffffffffffffffffffffffffffffff021916908373ffffffffffffffffffffffffffffffffffffffff1602179055505b50565b6126496001826000015461266a90919063ffffffff16565b816000018190555050565b6001816000016000828254019250508190555050565b60006126ac83836040518060400160405280601e81526020017f536166654d6174683a207375627472616374696f6e206f766572666c6f7700008152506126ff565b905092915050565b60008060007fc5d2460186f7233c927e7db2dcc703c0e500b653ca82273b7bfad8045d85a47060001b9050833f91508082141580156126f657506000801b8214155b92505050919050565b6000838311158290612747576040517f08c379a000000000000000000000000000000000000000000000000000000000815260040161273e91906135cf565b60405180910390fd5b5060008385039050809150509392505050565b828054600181600116156101000203166002900490600052602060002090601f016020900481019282601f1061279b57805160ff19168380011785556127c9565b828001600101855582156127c9579182015b828111156127c85782518255916020019190600101906127ad565b5b5090506127d69190612886565b5090565b828054600181600116156101000203166002900490600052602060002090601f016020900481019282601f1061281b57805160ff1916838001178555612849565b82800160010185558215612849579182015b8281111561284857825182559160200191906001019061282d565b5b5090506128569190612886565b5090565b815481835581811115612881578183600052602060002091820191016128809190612886565b5b505050565b6128a891905b808211156128a457600081600090555060010161288c565b5090565b90565b6000813590506128ba816139e2565b92915050565b6000813590506128cf816139f9565b92915050565b6000813590506128e481613a10565b92915050565b6000815190506128f981613a10565b92915050565b600082601f83011261291057600080fd5b813561292361291e826137f9565b6137cc565b9150808252602083016020830185838301111561293f57600080fd5b61294a83828461398f565b50505092915050565b600082601f83011261296457600080fd5b813561297761297282613825565b6137cc565b9150808252602083016020830185838301111561299357600080fd5b61299e83828461398f565b50505092915050565b6000813590506129b681613a27565b92915050565b6000602082840312156129ce57600080fd5b60006129dc848285016128ab565b91505092915050565b600080604083850312156129f857600080fd5b6000612a06858286016128ab565b9250506020612a17858286016128ab565b9150509250929050565b600080600060608486031215612a3657600080fd5b6000612a44868287016128ab565b9350506020612a55868287016128ab565b9250506040612a66868287016129a7565b9150509250925092565b60008060008060808587031215612a8657600080fd5b6000612a94878288016128ab565b9450506020612aa5878288016128ab565b9350506040612ab6878288016129a7565b925050606085013567ffffffffffffffff811115612ad357600080fd5b612adf878288016128ff565b91505092959194509250565b60008060408385031215612afe57600080fd5b6000612b0c858286016128ab565b9250506020612b1d858286016128c0565b9150509250929050565b60008060408385031215612b3a57600080fd5b6000612b48858286016128ab565b9250506020612b59858286016129a7565b9150509250929050565b600060208284031215612b7557600080fd5b6000612b83848285016128d5565b91505092915050565b600060208284031215612b9e57600080fd5b6000612bac848285016128ea565b91505092915050565b600080600080600060a08688031215612bcd57600080fd5b600086013567ffffffffffffffff811115612be757600080fd5b612bf388828901612953565b955050602086013567ffffffffffffffff811115612c1057600080fd5b612c1c88828901612953565b945050604086013567ffffffffffffffff811115612c3957600080fd5b612c4588828901612953565b935050606086013567ffffffffffffffff811115612c6257600080fd5b612c6e88828901612953565b925050608086013567ffffffffffffffff811115612c8b57600080fd5b612c9788828901612953565b9150509295509295909350565b600060208284031215612cb657600080fd5b6000612cc4848285016129a7565b91505092915050565b6000612cd98383612e57565b905092915050565b612cea8161391b565b82525050565b612cf981613909565b82525050565b6000612d0a82613876565b612d1481856138af565b935083602082028501612d2685613851565b8060005b85811015612d625784840389528151612d438582612ccd565b9450612d4e836138a2565b925060208a01995050600181019050612d2a565b50829750879550505050505092915050565b612d7d8161392d565b82525050565b6000612d8e82613881565b612d9881856138c0565b9350612da881856020860161399e565b612db1816139d1565b840191505092915050565b6000612dc782613881565b612dd181856138d1565b9350612de181856020860161399e565b80840191505092915050565b6000612df882613897565b612e0281856138ed565b9350612e1281856020860161399e565b612e1b816139d1565b840191505092915050565b6000612e3182613897565b612e3b81856138fe565b9350612e4b81856020860161399e565b80840191505092915050565b6000612e628261388c565b612e6c81856138dc565b9350612e7c81856020860161399e565b612e85816139d1565b840191505092915050565b600081546001811660008114612ead5760018114612ed257612f16565b607f6002830416612ebe81876138fe565b955060ff1983168652808601935050612f16565b60028204612ee081876138fe565b9550612eeb85613861565b60005b82811015612f0d57815481890152600182019150602081019050612eee565b82880195505050505b505092915050565b6000612f2b602b836138ed565b91507f455243373231456e756d657261626c653a206f776e657220696e646578206f7560008301527f74206f6620626f756e64730000000000000000000000000000000000000000006020830152604082019050919050565b6000612f916032836138ed565b91507f4552433732313a207472616e7366657220746f206e6f6e20455243373231526560008301527f63656976657220696d706c656d656e74657200000000000000000000000000006020830152604082019050919050565b6000612ff76024836138ed565b91507f4552433732313a207472616e7366657220746f20746865207a65726f2061646460008301527f72657373000000000000000000000000000000000000000000000000000000006020830152604082019050919050565b600061305d6019836138ed565b91507f4552433732313a20617070726f766520746f2063616c6c6572000000000000006000830152602082019050919050565b600061309d602c836138ed565b91507f4552433732313a206f70657261746f7220717565727920666f72206e6f6e657860008301527f697374656e7420746f6b656e00000000000000000000000000000000000000006020830152604082019050919050565b60006131036004836138fe565b91507f74727565000000000000000000000000000000000000000000000000000000006000830152600482019050919050565b60006131436038836138ed565b91507f4552433732313a20617070726f76652063616c6c6572206973206e6f74206f7760008301527f6e6572206e6f7220617070726f76656420666f7220616c6c00000000000000006020830152604082019050919050565b60006131a9602a836138ed565b91507f4552433732313a2062616c616e636520717565727920666f7220746865207a6560008301527f726f2061646472657373000000000000000000000000000000000000000000006020830152604082019050919050565b600061320f6029836138ed565b91507f4552433732313a206f776e657220717565727920666f72206e6f6e657869737460008301527f656e7420746f6b656e00000000000000000000000000000000000000000000006020830152604082019050919050565b6000613275602c836138ed565b91507f4552433732313a20617070726f76656420717565727920666f72206e6f6e657860008301527f697374656e7420746f6b656e00000000000000000000000000000000000000006020830152604082019050919050565b60006132db6029836138ed565b91507f4552433732313a207472616e73666572206f6620746f6b656e2074686174206960008301527f73206e6f74206f776e00000000000000000000000000000000000000000000006020830152604082019050919050565b6000613341602f836138ed565b91507f4552433732314d657461646174613a2055524920717565727920666f72206e6f60008301527f6e6578697374656e7420746f6b656e00000000000000000000000000000000006020830152604082019050919050565b60006133a76021836138ed565b91507f4552433732313a20617070726f76616c20746f2063757272656e74206f776e6560008301527f72000000000000000000000000000000000000000000000000000000000000006020830152604082019050919050565b600061340d6031836138ed565b91507f4552433732313a207472616e736665722063616c6c6572206973206e6f74206f60008301527f776e6572206e6f7220617070726f7665640000000000000000000000000000006020830152604082019050919050565b6000613473602c836138ed565b91507f455243373231456e756d657261626c653a20676c6f62616c20696e646578206f60008301527f7574206f6620626f756e647300000000000000000000000000000000000000006020830152604082019050919050565b6134d581613985565b82525050565b60006134e78284612dbc565b915081905092915050565b60006134fe8285612e90565b915061350a8284612e26565b91508190509392505050565b6000613521826130f6565b9150819050919050565b60006020820190506135406000830184612cf0565b92915050565b600060808201905061355b6000830187612ce1565b6135686020830186612cf0565b61357560408301856134cc565b81810360608301526135878184612d83565b905095945050505050565b600060208201905081810360008301526135ac8184612cff565b905092915050565b60006020820190506135c96000830184612d74565b92915050565b600060208201905081810360008301526135e98184612ded565b905092915050565b6000602082019050818103600083015261360a81612f1e565b9050919050565b6000602082019050818103600083015261362a81612f84565b9050919050565b6000602082019050818103600083015261364a81612fea565b9050919050565b6000602082019050818103600083015261366a81613050565b9050919050565b6000602082019050818103600083015261368a81613090565b9050919050565b600060208201905081810360008301526136aa81613136565b9050919050565b600060208201905081810360008301526136ca8161319c565b9050919050565b600060208201905081810360008301526136ea81613202565b9050919050565b6000602082019050818103600083015261370a81613268565b9050919050565b6000602082019050818103600083015261372a816132ce565b9050919050565b6000602082019050818103600083015261374a81613334565b9050919050565b6000602082019050818103600083015261376a8161339a565b9050919050565b6000602082019050818103600083015261378a81613400565b9050919050565b600060208201905081810360008301526137aa81613466565b9050919050565b60006020820190506137c660008301846134cc565b92915050565b6000604051905081810181811067ffffffffffffffff821117156137ef57600080fd5b8060405250919050565b600067ffffffffffffffff82111561381057600080fd5b601f19601f8301169050602081019050919050565b600067ffffffffffffffff82111561383c57600080fd5b601f19601f8301169050602081019050919050565b6000819050602082019050919050565b60008190508160005260206000209050919050565b600081519050919050565b600081519050919050565b600081519050919050565b600081519050919050565b6000602082019050919050565b600082825260208201905092915050565b600082825260208201905092915050565b600081905092915050565b600082825260208201905092915050565b600082825260208201905092915050565b600081905092915050565b600061391482613965565b9050919050565b600061392682613965565b9050919050565b60008115159050919050565b60007fffffffff0000000000000000000000000000000000000000000000000000000082169050919050565b600073ffffffffffffffffffffffffffffffffffffffff82169050919050565b6000819050919050565b82818337600083830152505050565b60005b838110156139bc5780820151818401526020810190506139a1565b838111156139cb576000848401525b50505050565b6000601f19601f8301169050919050565b6139eb81613909565b81146139f657600080fd5b50565b613a028161392d565b8114613a0d57600080fd5b50565b613a1981613939565b8114613a2457600080fd5b50565b613a3081613985565b8114613a3b57600080fd5b5056fea365627a7a723158205bbb013aba5d91f2cd21eac5fb77321f9c47a07872d7daeb608806eacbdbc1de6c6578706572696d656e74616cf564736f6c63430005100040",
  "source": "// SPDX-License-Identifier: MIT\r\npragma solidity >=0.4.22 <0.8.0;\r\npragma experimental ABIEncoderV2;\r\n\r\nimport \"../node_module/openzeppelin-solidity/contracts/token/ERC721/ERC721Full.sol\";\r\n\r\ncontract Liquor is ERC721Full {\r\n    struct Liquor {\r\n        uint256 tokenId;\r\n        string liquorName;\r\n        string sellerName;\r\n        string isReservable;\r\n        string arrivalDay;\r\n        string reserveScore;\r\n    }\r\n\r\n    Liquor[] private liquorCollection;\r\n    address private _contractOwner;\r\n\r\n    event Transfer(\r\n        address indexed _from,\r\n        address indexed _to,\r\n        uint256 indexed _tokenId\r\n    );\r\n\r\n    constructor() public ERC721Full(\"Liquor\", \"LIQ\") {\r\n        _contractOwner = msg.sender;\r\n    }\r\n\r\n    function fetchLiquor(uint256 _tokenId)\r\n        public\r\n        view\r\n        returns (string[] memory)\r\n    {\r\n        string[] memory liquorResult = new string[](5);\r\n        liquorResult[0] = liquorCollection[_tokenId].liquorName;\r\n        liquorResult[1] = liquorCollection[_tokenId].sellerName;\r\n        liquorResult[2] = liquorCollection[_tokenId].isReservable;\r\n        liquorResult[3] = liquorCollection[_tokenId].arrivalDay;\r\n        liquorResult[4] = liquorCollection[_tokenId].reserveScore;\r\n        return liquorResult;\r\n    }\r\n\r\n    function fetchAllLiquors() public view returns (string[] memory) {\r\n        string[] memory liquors = new string[](liquorCollection.length * 5);\r\n        uint256 contentNumber = 0;\r\n        for (uint256 i = 0; i < liquorCollection.length; i++) {\r\n            liquors[contentNumber] = liquorCollection[i].liquorName;\r\n            contentNumber = contentNumber + 1;\r\n\r\n            liquors[contentNumber] = liquorCollection[i].sellerName;\r\n            contentNumber = contentNumber + 1;\r\n\r\n            liquors[contentNumber] = liquorCollection[i].isReservable;\r\n            contentNumber = contentNumber + 1;\r\n\r\n            liquors[contentNumber] = liquorCollection[i].arrivalDay;\r\n            contentNumber = contentNumber + 1;\r\n\r\n            liquors[contentNumber] = liquorCollection[i].reserveScore;\r\n            contentNumber = contentNumber + 1;\r\n        }\r\n        return liquors;\r\n    }\r\n\r\n    // \r\n    function updateReservability(uint256 _tokenId) external {\r\n        if (stringToBool(liquorCollection[_tokenId].isReservable) == true) {\r\n            liquorCollection[_tokenId].isReservable = \"true\";\r\n        } else {\r\n            liquorCollection[_tokenId].isReservable = \"false\";\r\n        }\r\n    }\r\n\r\n    function addBlockToRegister(\r\n        string memory liquorName,\r\n        string memory sellerName,\r\n        string memory isReservable,\r\n        string memory arrivalDay,\r\n        string memory reserveScore\r\n    ) public payable returns (bool) {\r\n        uint256 newTokenId = liquorCollection.length;\r\n        liquorCollection.push(\r\n            Liquor(\r\n                newTokenId,\r\n                liquorName,\r\n                sellerName,\r\n                isReservable,\r\n                arrivalDay,\r\n                reserveScore\r\n            )\r\n        );\r\n        emit Transfer(msg.sender, _contractOwner, liquorCollection.length);\r\n        return true;\r\n    }\r\n\r\n    // boolstring\r\n    function boolToString(bool boolean) internal pure returns (string memory) {\r\n        if (boolean == true) {\r\n            return \"true\";\r\n        } else {\r\n            return \"false\";\r\n        }\r\n    }\r\n\r\n    // string  bool \r\n    function stringToBool(string memory boolStr) internal pure returns (bool) {\r\n        if (keccak256(bytes(boolStr)) == keccak256(\"true\")) {\r\n            return true;\r\n        } else {\r\n            return false;\r\n        }\r\n    }\r\n}\r\n",
  "sourcePath": "C:/Users/jumpei.kuwata/Documents/BC_tutorial/BC_liquor/contracts/Liquor.sol",
  "compiler": {
    "name": "solc",
    "version": "0.5.16+commit.9c3226ce.Emscripten.clang"
  },
  "schemaVersion": "3.3.2",
  "updatedAt": "2020-12-24T04:26:49.537Z",
  "networkType": "ethereum",
  "devdoc": {
    "methods": {
      "approve(address,uint256)": {
        "details": "Approves another address to transfer the given token ID The zero address indicates there is no approved address. There can only be one approved address per token at a given time. Can only be called by the token owner or an approved operator.",
        "params": {
          "to": "address to be approved for the given token ID",
          "tokenId": "uint256 ID of the token to be approved"
        }
      },
      "balanceOf(address)": {
        "details": "Gets the balance of the specified address.",
        "params": {
          "owner": "address to query the balance of"
        },
        "return": "uint256 representing the amount owned by the passed address"
      },
      "baseURI()": {
        "details": "Returns the base URI set via {_setBaseURI}. This will be automatically added as a preffix in {tokenURI} to each token's URI, when they are non-empty.     * _Available since v2.5.0._"
      },
      "getApproved(uint256)": {
        "details": "Gets the approved address for a token ID, or zero if no address set Reverts if the token ID does not exist.",
        "params": {
          "tokenId": "uint256 ID of the token to query the approval of"
        },
        "return": "address currently approved for the given token ID"
      },
      "isApprovedForAll(address,address)": {
        "details": "Tells whether an operator is approved by a given owner.",
        "params": {
          "operator": "operator address which you want to query the approval of",
          "owner": "owner address which you want to query the approval of"
        },
        "return": "bool whether the given operator is approved by the given owner"
      },
      "name()": {
        "details": "Gets the token name.",
        "return": "string representing the token name"
      },
      "ownerOf(uint256)": {
        "details": "Gets the owner of the specified token ID.",
        "params": {
          "tokenId": "uint256 ID of the token to query the owner of"
        },
        "return": "address currently marked as the owner of the given token ID"
      },
      "safeTransferFrom(address,address,uint256)": {
        "details": "Safely transfers the ownership of a given token ID to another address If the target address is a contract, it must implement {IERC721Receiver-onERC721Received}, which is called upon a safe transfer, and return the magic value `bytes4(keccak256(\"onERC721Received(address,address,uint256,bytes)\"))`; otherwise, the transfer is reverted. Requires the msg.sender to be the owner, approved, or operator",
        "params": {
          "from": "current owner of the token",
          "to": "address to receive the ownership of the given token ID",
          "tokenId": "uint256 ID of the token to be transferred"
        }
      },
      "safeTransferFrom(address,address,uint256,bytes)": {
        "details": "Safely transfers the ownership of a given token ID to another address If the target address is a contract, it must implement {IERC721Receiver-onERC721Received}, which is called upon a safe transfer, and return the magic value `bytes4(keccak256(\"onERC721Received(address,address,uint256,bytes)\"))`; otherwise, the transfer is reverted. Requires the _msgSender() to be the owner, approved, or operator",
        "params": {
          "_data": "bytes data to send along with a safe transfer check",
          "from": "current owner of the token",
          "to": "address to receive the ownership of the given token ID",
          "tokenId": "uint256 ID of the token to be transferred"
        }
      },
      "setApprovalForAll(address,bool)": {
        "details": "Sets or unsets the approval of a given operator An operator is allowed to transfer all tokens of the sender on their behalf.",
        "params": {
          "approved": "representing the status of the approval to be set",
          "to": "operator address to set the approval"
        }
      },
      "supportsInterface(bytes4)": {
        "details": "See {IERC165-supportsInterface}.      * Time complexity O(1), guaranteed to always use less than 30 000 gas."
      },
      "symbol()": {
        "details": "Gets the token symbol.",
        "return": "string representing the token symbol"
      },
      "tokenByIndex(uint256)": {
        "details": "Gets the token ID at a given index of all the tokens in this contract Reverts if the index is greater or equal to the total number of tokens.",
        "params": {
          "index": "uint256 representing the index to be accessed of the tokens list"
        },
        "return": "uint256 token ID at the given index of the tokens list"
      },
      "tokenOfOwnerByIndex(address,uint256)": {
        "details": "Gets the token ID at a given index of the tokens list of the requested owner.",
        "params": {
          "index": "uint256 representing the index to be accessed of the requested tokens list",
          "owner": "address owning the tokens list to be accessed"
        },
        "return": "uint256 token ID at the given index of the tokens list owned by the requested address"
      },
      "tokenURI(uint256)": {
        "details": "Returns the URI for a given token ID. May return an empty string.      * If the token's URI is non-empty and a base URI was set (via {_setBaseURI}), it will be added to the token ID's URI as a prefix.      * Reverts if the token ID does not exist."
      },
      "totalSupply()": {
        "details": "Gets the total amount of tokens stored by the contract.",
        "return": "uint256 representing the total amount of tokens"
      },
      "transferFrom(address,address,uint256)": {
        "details": "Transfers the ownership of a given token ID to another address. Usage of this method is discouraged, use {safeTransferFrom} whenever possible. Requires the msg.sender to be the owner, approved, or operator.",
        "params": {
          "from": "current owner of the token",
          "to": "address to receive the ownership of the given token ID",
          "tokenId": "uint256 ID of the token to be transferred"
        }
      }
    }
  },
  "userdoc": {
    "methods": {}
  }
}