{
  "contractName": "Liquor",
  "abi": [
    {
      "inputs": [],
      "payable": false,
      "stateMutability": "nonpayable",
      "type": "constructor"
    },
    {
      "anonymous": false,
      "inputs": [
        {
          "indexed": true,
          "internalType": "address",
          "name": "owner",
          "type": "address"
        },
        {
          "indexed": true,
          "internalType": "address",
          "name": "approved",
          "type": "address"
        },
        {
          "indexed": true,
          "internalType": "uint256",
          "name": "tokenId",
          "type": "uint256"
        }
      ],
      "name": "Approval",
      "type": "event"
    },
    {
      "anonymous": false,
      "inputs": [
        {
          "indexed": true,
          "internalType": "address",
          "name": "owner",
          "type": "address"
        },
        {
          "indexed": true,
          "internalType": "address",
          "name": "operator",
          "type": "address"
        },
        {
          "indexed": false,
          "internalType": "bool",
          "name": "approved",
          "type": "bool"
        }
      ],
      "name": "ApprovalForAll",
      "type": "event"
    },
    {
      "anonymous": false,
      "inputs": [
        {
          "indexed": true,
          "internalType": "address",
          "name": "from",
          "type": "address"
        },
        {
          "indexed": true,
          "internalType": "address",
          "name": "to",
          "type": "address"
        },
        {
          "indexed": true,
          "internalType": "uint256",
          "name": "tokenId",
          "type": "uint256"
        }
      ],
      "name": "Transfer",
      "type": "event"
    },
    {
      "constant": false,
      "inputs": [
        {
          "internalType": "address",
          "name": "to",
          "type": "address"
        },
        {
          "internalType": "uint256",
          "name": "tokenId",
          "type": "uint256"
        }
      ],
      "name": "approve",
      "outputs": [],
      "payable": false,
      "stateMutability": "nonpayable",
      "type": "function"
    },
    {
      "constant": true,
      "inputs": [
        {
          "internalType": "address",
          "name": "owner",
          "type": "address"
        }
      ],
      "name": "balanceOf",
      "outputs": [
        {
          "internalType": "uint256",
          "name": "",
          "type": "uint256"
        }
      ],
      "payable": false,
      "stateMutability": "view",
      "type": "function"
    },
    {
      "constant": true,
      "inputs": [],
      "name": "baseURI",
      "outputs": [
        {
          "internalType": "string",
          "name": "",
          "type": "string"
        }
      ],
      "payable": false,
      "stateMutability": "view",
      "type": "function"
    },
    {
      "constant": true,
      "inputs": [
        {
          "internalType": "uint256",
          "name": "tokenId",
          "type": "uint256"
        }
      ],
      "name": "getApproved",
      "outputs": [
        {
          "internalType": "address",
          "name": "",
          "type": "address"
        }
      ],
      "payable": false,
      "stateMutability": "view",
      "type": "function"
    },
    {
      "constant": true,
      "inputs": [
        {
          "internalType": "address",
          "name": "owner",
          "type": "address"
        },
        {
          "internalType": "address",
          "name": "operator",
          "type": "address"
        }
      ],
      "name": "isApprovedForAll",
      "outputs": [
        {
          "internalType": "bool",
          "name": "",
          "type": "bool"
        }
      ],
      "payable": false,
      "stateMutability": "view",
      "type": "function"
    },
    {
      "constant": true,
      "inputs": [],
      "name": "name",
      "outputs": [
        {
          "internalType": "string",
          "name": "",
          "type": "string"
        }
      ],
      "payable": false,
      "stateMutability": "view",
      "type": "function"
    },
    {
      "constant": true,
      "inputs": [
        {
          "internalType": "uint256",
          "name": "tokenId",
          "type": "uint256"
        }
      ],
      "name": "ownerOf",
      "outputs": [
        {
          "internalType": "address",
          "name": "",
          "type": "address"
        }
      ],
      "payable": false,
      "stateMutability": "view",
      "type": "function"
    },
    {
      "constant": false,
      "inputs": [
        {
          "internalType": "address",
          "name": "from",
          "type": "address"
        },
        {
          "internalType": "address",
          "name": "to",
          "type": "address"
        },
        {
          "internalType": "uint256",
          "name": "tokenId",
          "type": "uint256"
        }
      ],
      "name": "safeTransferFrom",
      "outputs": [],
      "payable": false,
      "stateMutability": "nonpayable",
      "type": "function"
    },
    {
      "constant": false,
      "inputs": [
        {
          "internalType": "address",
          "name": "from",
          "type": "address"
        },
        {
          "internalType": "address",
          "name": "to",
          "type": "address"
        },
        {
          "internalType": "uint256",
          "name": "tokenId",
          "type": "uint256"
        },
        {
          "internalType": "bytes",
          "name": "_data",
          "type": "bytes"
        }
      ],
      "name": "safeTransferFrom",
      "outputs": [],
      "payable": false,
      "stateMutability": "nonpayable",
      "type": "function"
    },
    {
      "constant": false,
      "inputs": [
        {
          "internalType": "address",
          "name": "to",
          "type": "address"
        },
        {
          "internalType": "bool",
          "name": "approved",
          "type": "bool"
        }
      ],
      "name": "setApprovalForAll",
      "outputs": [],
      "payable": false,
      "stateMutability": "nonpayable",
      "type": "function"
    },
    {
      "constant": true,
      "inputs": [
        {
          "internalType": "bytes4",
          "name": "interfaceId",
          "type": "bytes4"
        }
      ],
      "name": "supportsInterface",
      "outputs": [
        {
          "internalType": "bool",
          "name": "",
          "type": "bool"
        }
      ],
      "payable": false,
      "stateMutability": "view",
      "type": "function"
    },
    {
      "constant": true,
      "inputs": [],
      "name": "symbol",
      "outputs": [
        {
          "internalType": "string",
          "name": "",
          "type": "string"
        }
      ],
      "payable": false,
      "stateMutability": "view",
      "type": "function"
    },
    {
      "constant": true,
      "inputs": [
        {
          "internalType": "uint256",
          "name": "index",
          "type": "uint256"
        }
      ],
      "name": "tokenByIndex",
      "outputs": [
        {
          "internalType": "uint256",
          "name": "",
          "type": "uint256"
        }
      ],
      "payable": false,
      "stateMutability": "view",
      "type": "function"
    },
    {
      "constant": true,
      "inputs": [
        {
          "internalType": "address",
          "name": "owner",
          "type": "address"
        },
        {
          "internalType": "uint256",
          "name": "index",
          "type": "uint256"
        }
      ],
      "name": "tokenOfOwnerByIndex",
      "outputs": [
        {
          "internalType": "uint256",
          "name": "",
          "type": "uint256"
        }
      ],
      "payable": false,
      "stateMutability": "view",
      "type": "function"
    },
    {
      "constant": true,
      "inputs": [
        {
          "internalType": "uint256",
          "name": "tokenId",
          "type": "uint256"
        }
      ],
      "name": "tokenURI",
      "outputs": [
        {
          "internalType": "string",
          "name": "",
          "type": "string"
        }
      ],
      "payable": false,
      "stateMutability": "view",
      "type": "function"
    },
    {
      "constant": true,
      "inputs": [],
      "name": "totalSupply",
      "outputs": [
        {
          "internalType": "uint256",
          "name": "",
          "type": "uint256"
        }
      ],
      "payable": false,
      "stateMutability": "view",
      "type": "function"
    },
    {
      "constant": false,
      "inputs": [
        {
          "internalType": "address",
          "name": "from",
          "type": "address"
        },
        {
          "internalType": "address",
          "name": "to",
          "type": "address"
        },
        {
          "internalType": "uint256",
          "name": "tokenId",
          "type": "uint256"
        }
      ],
      "name": "transferFrom",
      "outputs": [],
      "payable": false,
      "stateMutability": "nonpayable",
      "type": "function"
    },
    {
      "constant": false,
      "inputs": [
        {
          "internalType": "uint256",
          "name": "_tokenId",
          "type": "uint256"
        }
      ],
      "name": "updateReservability",
      "outputs": [],
      "payable": false,
      "stateMutability": "nonpayable",
      "type": "function"
    },
    {
      "constant": false,
      "inputs": [
        {
          "internalType": "string",
          "name": "liquorName",
          "type": "string"
        },
        {
          "internalType": "string",
          "name": "sellerName",
          "type": "string"
        },
        {
          "internalType": "bool",
          "name": "isReservable",
          "type": "bool"
        },
        {
          "internalType": "string",
          "name": "arrivalDay",
          "type": "string"
        },
        {
          "internalType": "uint256",
          "name": "reserveScore",
          "type": "uint256"
        }
      ],
      "name": "addBlockToRegister",
      "outputs": [],
      "payable": false,
      "stateMutability": "nonpayable",
      "type": "function"
    },
    {
      "constant": false,
      "inputs": [
        {
          "internalType": "string",
          "name": "str1",
          "type": "string"
        },
        {
          "internalType": "string",
          "name": "str2",
          "type": "string"
        },
        {
          "internalType": "string",
          "name": "str3",
          "type": "string"
        },
        {
          "internalType": "string",
          "name": "str4",
          "type": "string"
        },
        {
          "internalType": "string",
          "name": "str5",
          "type": "string"
        },
        {
          "internalType": "string",
          "name": "str6",
          "type": "string"
        },
        {
          "internalType": "string",
          "name": "str7",
          "type": "string"
        },
        {
          "internalType": "string",
          "name": "str8",
          "type": "string"
        },
        {
          "internalType": "string",
          "name": "str9",
          "type": "string"
        },
        {
          "internalType": "string",
          "name": "str10",
          "type": "string"
        },
        {
          "internalType": "string",
          "name": "str11",
          "type": "string"
        }
      ],
      "name": "strConnect",
      "outputs": [
        {
          "internalType": "string",
          "name": "",
          "type": "string"
        }
      ],
      "payable": false,
      "stateMutability": "nonpayable",
      "type": "function"
    }
  ],
  "bytecode": "0x60806040523480156200001157600080fd5b506040518060400160405280600681526020017f4c6971756f7200000000000000000000000000000000000000000000000000008152506040518060400160405280600381526020017f4c495100000000000000000000000000000000000000000000000000000000008152508181620000986301ffc9a760e01b6200015d60201b60201c565b620000b06380ac58cd60e01b6200015d60201b60201c565b620000c863780e9d6360e01b6200015d60201b60201c565b8160099080519060200190620000e092919062000266565b5080600a9080519060200190620000f992919062000266565b5062000112635b5e139f60e01b6200015d60201b60201c565b5050505033600e60006101000a81548173ffffffffffffffffffffffffffffffffffffffff021916908373ffffffffffffffffffffffffffffffffffffffff16021790555062000315565b63ffffffff60e01b817bffffffffffffffffffffffffffffffffffffffffffffffffffffffff19161415620001fa576040517f08c379a000000000000000000000000000000000000000000000000000000000815260040180806020018281038252601c8152602001807f4552433136353a20696e76616c696420696e746572666163652069640000000081525060200191505060405180910390fd5b6001600080837bffffffffffffffffffffffffffffffffffffffffffffffffffffffff19167bffffffffffffffffffffffffffffffffffffffffffffffffffffffff1916815260200190815260200160002060006101000a81548160ff02191690831515021790555050565b828054600181600116156101000203166002900490600052602060002090601f016020900481019282601f10620002a957805160ff1916838001178555620002da565b82800160010185558215620002da579182015b82811115620002d9578251825591602001919060010190620002bc565b5b509050620002e99190620002ed565b5090565b6200031291905b808211156200030e576000816000905550600101620002f4565b5090565b90565b61367380620003256000396000f3fe608060405234801561001057600080fd5b506004361061012c5760003560e01c80636352211e116100ad57806395d89b411161007157806395d89b4114610f04578063a22cb46514610f87578063b88d4fde14610fd7578063c87b56dd146110dc578063e985e9c5146111835761012c565b80636352211e146104a15780636c0360eb1461050f57806370a082311461059257806377063183146105ea5780637888032114610d055761012c565b806318160ddd116100f457806318160ddd1461030357806323b872dd146103215780632f745c591461038f57806342842e0e146103f15780634f6ccce71461045f5761012c565b806301ffc9a71461013157806306fdde0314610196578063081812fc14610219578063095ea7b31461028757806313fcb5b1146102d5575b600080fd5b61017c6004803603602081101561014757600080fd5b8101908080357bffffffffffffffffffffffffffffffffffffffffffffffffffffffff191690602001909291905050506111ff565b604051808215151515815260200191505060405180910390f35b61019e611266565b6040518080602001828103825283818151815260200191508051906020019080838360005b838110156101de5780820151818401526020810190506101c3565b50505050905090810190601f16801561020b5780820380516001836020036101000a031916815260200191505b509250505060405180910390f35b6102456004803603602081101561022f57600080fd5b8101908080359060200190929190505050611308565b604051808273ffffffffffffffffffffffffffffffffffffffff1673ffffffffffffffffffffffffffffffffffffffff16815260200191505060405180910390f35b6102d36004803603604081101561029d57600080fd5b81019080803573ffffffffffffffffffffffffffffffffffffffff169060200190929190803590602001909291905050506113a3565b005b610301600480360360208110156102eb57600080fd5b810190808035906020019092919050505061158a565b005b61030b611639565b6040518082815260200191505060405180910390f35b61038d6004803603606081101561033757600080fd5b81019080803573ffffffffffffffffffffffffffffffffffffffff169060200190929190803573ffffffffffffffffffffffffffffffffffffffff16906020019092919080359060200190929190505050611646565b005b6103db600480360360408110156103a557600080fd5b81019080803573ffffffffffffffffffffffffffffffffffffffff169060200190929190803590602001909291905050506116bc565b6040518082815260200191505060405180910390f35b61045d6004803603606081101561040757600080fd5b81019080803573ffffffffffffffffffffffffffffffffffffffff169060200190929190803573ffffffffffffffffffffffffffffffffffffffff1690602001909291908035906020019092919050505061177b565b005b61048b6004803603602081101561047557600080fd5b810190808035906020019092919050505061179b565b6040518082815260200191505060405180910390f35b6104cd600480360360208110156104b757600080fd5b810190808035906020019092919050505061181b565b604051808273ffffffffffffffffffffffffffffffffffffffff1673ffffffffffffffffffffffffffffffffffffffff16815260200191505060405180910390f35b6105176118e3565b6040518080602001828103825283818151815260200191508051906020019080838360005b8381101561055757808201518184015260208101905061053c565b50505050905090810190601f1680156105845780820380516001836020036101000a031916815260200191505b509250505060405180910390f35b6105d4600480360360208110156105a857600080fd5b81019080803573ffffffffffffffffffffffffffffffffffffffff169060200190929190505050611985565b6040518082815260200191505060405180910390f35b610c8a600480360361016081101561060157600080fd5b810190808035906020019064010000000081111561061e57600080fd5b82018360208201111561063057600080fd5b8035906020019184600183028401116401000000008311171561065257600080fd5b91908080601f016020809104026020016040519081016040528093929190818152602001838380828437600081840152601f19601f820116905080830192505050505050509192919290803590602001906401000000008111156106b557600080fd5b8201836020820111156106c757600080fd5b803590602001918460018302840111640100000000831117156106e957600080fd5b91908080601f016020809104026020016040519081016040528093929190818152602001838380828437600081840152601f19601f8201169050808301925050505050505091929192908035906020019064010000000081111561074c57600080fd5b82018360208201111561075e57600080fd5b8035906020019184600183028401116401000000008311171561078057600080fd5b91908080601f016020809104026020016040519081016040528093929190818152602001838380828437600081840152601f19601f820116905080830192505050505050509192919290803590602001906401000000008111156107e357600080fd5b8201836020820111156107f557600080fd5b8035906020019184600183028401116401000000008311171561081757600080fd5b91908080601f016020809104026020016040519081016040528093929190818152602001838380828437600081840152601f19601f8201169050808301925050505050505091929192908035906020019064010000000081111561087a57600080fd5b82018360208201111561088c57600080fd5b803590602001918460018302840111640100000000831117156108ae57600080fd5b91908080601f016020809104026020016040519081016040528093929190818152602001838380828437600081840152601f19601f8201169050808301925050505050505091929192908035906020019064010000000081111561091157600080fd5b82018360208201111561092357600080fd5b8035906020019184600183028401116401000000008311171561094557600080fd5b91908080601f016020809104026020016040519081016040528093929190818152602001838380828437600081840152601f19601f820116905080830192505050505050509192919290803590602001906401000000008111156109a857600080fd5b8201836020820111156109ba57600080fd5b803590602001918460018302840111640100000000831117156109dc57600080fd5b91908080601f016020809104026020016040519081016040528093929190818152602001838380828437600081840152601f19601f82011690508083019250505050505050919291929080359060200190640100000000811115610a3f57600080fd5b820183602082011115610a5157600080fd5b80359060200191846001830284011164010000000083111715610a7357600080fd5b91908080601f016020809104026020016040519081016040528093929190818152602001838380828437600081840152601f19601f82011690508083019250505050505050919291929080359060200190640100000000811115610ad657600080fd5b820183602082011115610ae857600080fd5b80359060200191846001830284011164010000000083111715610b0a57600080fd5b91908080601f016020809104026020016040519081016040528093929190818152602001838380828437600081840152601f19601f82011690508083019250505050505050919291929080359060200190640100000000811115610b6d57600080fd5b820183602082011115610b7f57600080fd5b80359060200191846001830284011164010000000083111715610ba157600080fd5b91908080601f016020809104026020016040519081016040528093929190818152602001838380828437600081840152601f19601f82011690508083019250505050505050919291929080359060200190640100000000811115610c0457600080fd5b820183602082011115610c1657600080fd5b80359060200191846001830284011164010000000083111715610c3857600080fd5b91908080601f016020809104026020016040519081016040528093929190818152602001838380828437600081840152601f19601f820116905080830192505050505050509192919290505050611a5a565b6040518080602001828103825283818151815260200191508051906020019080838360005b83811015610cca578082015181840152602081019050610caf565b50505050905090810190601f168015610cf75780820380516001836020036101000a031916815260200191505b509250505060405180910390f35b610f02600480360360a0811015610d1b57600080fd5b8101908080359060200190640100000000811115610d3857600080fd5b820183602082011115610d4a57600080fd5b80359060200191846001830284011164010000000083111715610d6c57600080fd5b91908080601f016020809104026020016040519081016040528093929190818152602001838380828437600081840152601f19601f82011690508083019250505050505050919291929080359060200190640100000000811115610dcf57600080fd5b820183602082011115610de157600080fd5b80359060200191846001830284011164010000000083111715610e0357600080fd5b91908080601f016020809104026020016040519081016040528093929190818152602001838380828437600081840152601f19601f82011690508083019250505050505050919291929080351515906020019092919080359060200190640100000000811115610e7257600080fd5b820183602082011115610e8457600080fd5b80359060200191846001830284011164010000000083111715610ea657600080fd5b91908080601f016020809104026020016040519081016040528093929190818152602001838380828437600081840152601f19601f82011690508083019250505050505050919291929080359060200190929190505050612072565b005b610f0c612171565b6040518080602001828103825283818151815260200191508051906020019080838360005b83811015610f4c578082015181840152602081019050610f31565b50505050905090810190601f168015610f795780820380516001836020036101000a031916815260200191505b509250505060405180910390f35b610fd560048036036040811015610f9d57600080fd5b81019080803573ffffffffffffffffffffffffffffffffffffffff169060200190929190803515159060200190929190505050612213565b005b6110da60048036036080811015610fed57600080fd5b81019080803573ffffffffffffffffffffffffffffffffffffffff169060200190929190803573ffffffffffffffffffffffffffffffffffffffff169060200190929190803590602001909291908035906020019064010000000081111561105457600080fd5b82018360208201111561106657600080fd5b8035906020019184600183028401116401000000008311171561108857600080fd5b91908080601f016020809104026020016040519081016040528093929190818152602001838380828437600081840152601f19601f8201169050808301925050505050505091929192905050506123cb565b005b611108600480360360208110156110f257600080fd5b8101908080359060200190929190505050612443565b6040518080602001828103825283818151815260200191508051906020019080838360005b8381101561114857808201518184015260208101905061112d565b50505050905090810190601f1680156111755780820380516001836020036101000a031916815260200191505b509250505060405180910390f35b6111e56004803603604081101561119957600080fd5b81019080803573ffffffffffffffffffffffffffffffffffffffff169060200190929190803573ffffffffffffffffffffffffffffffffffffffff169060200190929190505050612645565b604051808215151515815260200191505060405180910390f35b6000806000837bffffffffffffffffffffffffffffffffffffffffffffffffffffffff19167bffffffffffffffffffffffffffffffffffffffffffffffffffffffff1916815260200190815260200160002060009054906101000a900460ff169050919050565b606060098054600181600116156101000203166002900480601f0160208091040260200160405190810160405280929190818152602001828054600181600116156101000203166002900480156112fe5780601f106112d3576101008083540402835291602001916112fe565b820191906000526020600020905b8154815290600101906020018083116112e157829003601f168201915b5050505050905090565b6000611313826126d9565b611368576040517f08c379a000000000000000000000000000000000000000000000000000000000815260040180806020018281038252602c81526020018061353d602c913960400191505060405180910390fd5b6002600083815260200190815260200160002060009054906101000a900473ffffffffffffffffffffffffffffffffffffffff169050919050565b60006113ae8261181b565b90508073ffffffffffffffffffffffffffffffffffffffff168373ffffffffffffffffffffffffffffffffffffffff161415611435576040517f08c379a00000000000000000000000000000000000000000000000000000000081526004018080602001828103825260218152602001806135c16021913960400191505060405180910390fd5b8073ffffffffffffffffffffffffffffffffffffffff1661145461274b565b73ffffffffffffffffffffffffffffffffffffffff16148061148357506114828161147d61274b565b612645565b5b6114d8576040517f08c379a00000000000000000000000000000000000000000000000000000000081526004018080602001828103825260388152602001806134b26038913960400191505060405180910390fd5b826002600084815260200190815260200160002060006101000a81548173ffffffffffffffffffffffffffffffffffffffff021916908373ffffffffffffffffffffffffffffffffffffffff160217905550818373ffffffffffffffffffffffffffffffffffffffff168273ffffffffffffffffffffffffffffffffffffffff167f8c5be1e5ebec7d5bd14f71427d1e84f3dd0314c0f7b2291e5b200ac8c7c3b92560405160405180910390a4505050565b60011515600d828154811061159b57fe5b906000526020600020906006020160030160009054906101000a900460ff16151514156115fe576000600d82815481106115d157fe5b906000526020600020906006020160030160006101000a81548160ff021916908315150217905550611636565b6001600d828154811061160d57fe5b906000526020600020906006020160030160006101000a81548160ff0219169083151502179055505b50565b6000600780549050905090565b61165761165161274b565b82612753565b6116ac576040517f08c379a00000000000000000000000000000000000000000000000000000000081526004018080602001828103825260318152602001806135e26031913960400191505060405180910390fd5b6116b7838383612847565b505050565b60006116c783611985565b821061171e576040517f08c379a000000000000000000000000000000000000000000000000000000000815260040180806020018281038252602b815260200180613405602b913960400191505060405180910390fd5b600560008473ffffffffffffffffffffffffffffffffffffffff1673ffffffffffffffffffffffffffffffffffffffff168152602001908152602001600020828154811061176857fe5b9060005260206000200154905092915050565b611796838383604051806020016040528060008152506123cb565b505050565b60006117a5611639565b82106117fc576040517f08c379a000000000000000000000000000000000000000000000000000000000815260040180806020018281038252602c815260200180613613602c913960400191505060405180910390fd5b6007828154811061180957fe5b90600052602060002001549050919050565b6000806001600084815260200190815260200160002060009054906101000a900473ffffffffffffffffffffffffffffffffffffffff169050600073ffffffffffffffffffffffffffffffffffffffff168173ffffffffffffffffffffffffffffffffffffffff1614156118da576040517f08c379a00000000000000000000000000000000000000000000000000000000081526004018080602001828103825260298152602001806135146029913960400191505060405180910390fd5b80915050919050565b6060600b8054600181600116156101000203166002900480601f01602080910402602001604051908101604052809291908181526020018280546001816001161561010002031660029004801561197b5780601f106119505761010080835404028352916020019161197b565b820191906000526020600020905b81548152906001019060200180831161195e57829003601f168201915b5050505050905090565b60008073ffffffffffffffffffffffffffffffffffffffff168273ffffffffffffffffffffffffffffffffffffffff161415611a0c576040517f08c379a000000000000000000000000000000000000000000000000000000000815260040180806020018281038252602a8152602001806134ea602a913960400191505060405180910390fd5b611a53600360008473ffffffffffffffffffffffffffffffffffffffff1673ffffffffffffffffffffffffffffffffffffffff16815260200190815260200160002061286b565b9050919050565b6060808c905060608c905060608c905060608c905060608c905060608c905060608c905060608c905060608c905060608c905060608c905060608a518c51016040519080825280601f01601f191660200182016040528015611acb5781602001600182028038833980820191505090505b509050600080905060008090505b8d518160ff161015611b52578d8160ff1681518110611af457fe5b602001015160f81c60f81b838360ff1681518110611b0e57fe5b60200101907effffffffffffffffffffffffffffffffffffffffffffffffffffffffffffff1916908160001a90535081806001019250508080600101915050611ad9565b5060008090505b8c518160ff161015611bd2578c8160ff1681518110611b7457fe5b602001015160f81c60f81b838360ff1681518110611b8e57fe5b60200101907effffffffffffffffffffffffffffffffffffffffffffffffffffffffffffff1916908160001a90535081806001019250508080600101915050611b59565b5060008090505b8b518160ff161015611c52578b8160ff1681518110611bf457fe5b602001015160f81c60f81b838360ff1681518110611c0e57fe5b60200101907effffffffffffffffffffffffffffffffffffffffffffffffffffffffffffff1916908160001a90535081806001019250508080600101915050611bd9565b5060008090505b8a518160ff161015611cd2578a8160ff1681518110611c7457fe5b602001015160f81c60f81b838360ff1681518110611c8e57fe5b60200101907effffffffffffffffffffffffffffffffffffffffffffffffffffffffffffff1916908160001a90535081806001019250508080600101915050611c59565b5060008090505b89518160ff161015611d5257898160ff1681518110611cf457fe5b602001015160f81c60f81b838360ff1681518110611d0e57fe5b60200101907effffffffffffffffffffffffffffffffffffffffffffffffffffffffffffff1916908160001a90535081806001019250508080600101915050611cd9565b5060008090505b88518160ff161015611dd257888160ff1681518110611d7457fe5b602001015160f81c60f81b838360ff1681518110611d8e57fe5b60200101907effffffffffffffffffffffffffffffffffffffffffffffffffffffffffffff1916908160001a90535081806001019250508080600101915050611d59565b5060008090505b87518160ff161015611e5257878160ff1681518110611df457fe5b602001015160f81c60f81b838360ff1681518110611e0e57fe5b60200101907effffffffffffffffffffffffffffffffffffffffffffffffffffffffffffff1916908160001a90535081806001019250508080600101915050611dd9565b5060008090505b86518160ff161015611ed257868160ff1681518110611e7457fe5b602001015160f81c60f81b838360ff1681518110611e8e57fe5b60200101907effffffffffffffffffffffffffffffffffffffffffffffffffffffffffffff1916908160001a90535081806001019250508080600101915050611e59565b5060008090505b85518160ff161015611f5257858160ff1681518110611ef457fe5b602001015160f81c60f81b838360ff1681518110611f0e57fe5b60200101907effffffffffffffffffffffffffffffffffffffffffffffffffffffffffffff1916908160001a90535081806001019250508080600101915050611ed9565b5060008090505b84518160ff161015611fd257848160ff1681518110611f7457fe5b602001015160f81c60f81b838360ff1681518110611f8e57fe5b60200101907effffffffffffffffffffffffffffffffffffffffffffffffffffffffffffff1916908160001a90535081806001019250508080600101915050611f59565b5060008090505b83518160ff16101561205257838160ff1681518110611ff457fe5b602001015160f81c60f81b838360ff168151811061200e57fe5b60200101907effffffffffffffffffffffffffffffffffffffffffffffffffffffffffffff1916908160001a90535081806001019250508080600101915050611fd9565b50819d50505050505050505050505050509b9a5050505050505050505050565b60006001600d80549050019050600d6040518060c0016040528083815260200188815260200187815260200186151581526020018581526020018481525090806001815401808255809150509060018203906000526020600020906006020160009091929091909150600082015181600001556020820151816001019080519060200190612101929190613333565b50604082015181600201908051906020019061211e929190613333565b5060608201518160030160006101000a81548160ff021916908315150217905550608082015181600401908051906020019061215b929190613333565b5060a08201518160050155505050505050505050565b6060600a8054600181600116156101000203166002900480601f0160208091040260200160405190810160405280929190818152602001828054600181600116156101000203166002900480156122095780601f106121de57610100808354040283529160200191612209565b820191906000526020600020905b8154815290600101906020018083116121ec57829003601f168201915b5050505050905090565b61221b61274b565b73ffffffffffffffffffffffffffffffffffffffff168273ffffffffffffffffffffffffffffffffffffffff1614156122bc576040517f08c379a00000000000000000000000000000000000000000000000000000000081526004018080602001828103825260198152602001807f4552433732313a20617070726f766520746f2063616c6c65720000000000000081525060200191505060405180910390fd5b80600460006122c961274b565b73ffffffffffffffffffffffffffffffffffffffff1673ffffffffffffffffffffffffffffffffffffffff16815260200190815260200160002060008473ffffffffffffffffffffffffffffffffffffffff1673ffffffffffffffffffffffffffffffffffffffff16815260200190815260200160002060006101000a81548160ff0219169083151502179055508173ffffffffffffffffffffffffffffffffffffffff1661237661274b565b73ffffffffffffffffffffffffffffffffffffffff167f17307eab39ab6107e8899845ad3d59bd9653f200f220920489ca2b5937696c3183604051808215151515815260200191505060405180910390a35050565b6123dc6123d661274b565b83612753565b612431576040517f08c379a00000000000000000000000000000000000000000000000000000000081526004018080602001828103825260318152602001806135e26031913960400191505060405180910390fd5b61243d84848484612879565b50505050565b606061244e826126d9565b6124a3576040517f08c379a000000000000000000000000000000000000000000000000000000000815260040180806020018281038252602f815260200180613592602f913960400191505060405180910390fd5b6060600c60008481526020019081526020016000208054600181600116156101000203166002900480601f01602080910402602001604051908101604052809291908181526020018280546001816001161561010002031660029004801561254c5780601f106125215761010080835404028352916020019161254c565b820191906000526020600020905b81548152906001019060200180831161252f57829003601f168201915b505050505090506000815114156125755760405180602001604052806000815250915050612640565b600b8160405160200180838054600181600116156101000203166002900480156125d65780601f106125b45761010080835404028352918201916125d6565b820191906000526020600020905b8154815290600101906020018083116125c2575b505082805190602001908083835b6020831061260757805182526020820191506020810190506020830392506125e4565b6001836020036101000a038019825116818451168082178552505050505050905001925050506040516020818303038152906040529150505b919050565b6000600460008473ffffffffffffffffffffffffffffffffffffffff1673ffffffffffffffffffffffffffffffffffffffff16815260200190815260200160002060008373ffffffffffffffffffffffffffffffffffffffff1673ffffffffffffffffffffffffffffffffffffffff16815260200190815260200160002060009054906101000a900460ff16905092915050565b6000806001600084815260200190815260200160002060009054906101000a900473ffffffffffffffffffffffffffffffffffffffff169050600073ffffffffffffffffffffffffffffffffffffffff168173ffffffffffffffffffffffffffffffffffffffff161415915050919050565b600033905090565b600061275e826126d9565b6127b3576040517f08c379a000000000000000000000000000000000000000000000000000000000815260040180806020018281038252602c815260200180613486602c913960400191505060405180910390fd5b60006127be8361181b565b90508073ffffffffffffffffffffffffffffffffffffffff168473ffffffffffffffffffffffffffffffffffffffff16148061282d57508373ffffffffffffffffffffffffffffffffffffffff1661281584611308565b73ffffffffffffffffffffffffffffffffffffffff16145b8061283e575061283d8185612645565b5b91505092915050565b6128528383836128eb565b61285c8382612b46565b6128668282612ce4565b505050565b600081600001549050919050565b612884848484612847565b61289084848484612dab565b6128e5576040517f08c379a00000000000000000000000000000000000000000000000000000000081526004018080602001828103825260328152602001806134306032913960400191505060405180910390fd5b50505050565b8273ffffffffffffffffffffffffffffffffffffffff1661290b8261181b565b73ffffffffffffffffffffffffffffffffffffffff1614612977576040517f08c379a00000000000000000000000000000000000000000000000000000000081526004018080602001828103825260298152602001806135696029913960400191505060405180910390fd5b600073ffffffffffffffffffffffffffffffffffffffff168273ffffffffffffffffffffffffffffffffffffffff1614156129fd576040517f08c379a00000000000000000000000000000000000000000000000000000000081526004018080602001828103825260248152602001806134626024913960400191505060405180910390fd5b612a06816130e7565b612a4d600360008573ffffffffffffffffffffffffffffffffffffffff1673ffffffffffffffffffffffffffffffffffffffff1681526020019081526020016000206131a5565b612a94600360008473ffffffffffffffffffffffffffffffffffffffff1673ffffffffffffffffffffffffffffffffffffffff1681526020019081526020016000206131c8565b816001600083815260200190815260200160002060006101000a81548173ffffffffffffffffffffffffffffffffffffffff021916908373ffffffffffffffffffffffffffffffffffffffff160217905550808273ffffffffffffffffffffffffffffffffffffffff168473ffffffffffffffffffffffffffffffffffffffff167fddf252ad1be2c89b69c2b068fc378daa952ba7f163c4a11628f55a4df523b3ef60405160405180910390a4505050565b6000612b9e6001600560008673ffffffffffffffffffffffffffffffffffffffff1673ffffffffffffffffffffffffffffffffffffffff168152602001908152602001600020805490506131de90919063ffffffff16565b9050600060066000848152602001908152602001600020549050818114612c8b576000600560008673ffffffffffffffffffffffffffffffffffffffff1673ffffffffffffffffffffffffffffffffffffffff1681526020019081526020016000208381548110612c0b57fe5b9060005260206000200154905080600560008773ffffffffffffffffffffffffffffffffffffffff1673ffffffffffffffffffffffffffffffffffffffff1681526020019081526020016000208381548110612c6357fe5b9060005260206000200181905550816006600083815260200190815260200160002081905550505b600560008573ffffffffffffffffffffffffffffffffffffffff1673ffffffffffffffffffffffffffffffffffffffff168152602001908152602001600020805480919060019003612cdd91906133b3565b5050505050565b600560008373ffffffffffffffffffffffffffffffffffffffff1673ffffffffffffffffffffffffffffffffffffffff168152602001908152602001600020805490506006600083815260200190815260200160002081905550600560008373ffffffffffffffffffffffffffffffffffffffff1673ffffffffffffffffffffffffffffffffffffffff1681526020019081526020016000208190806001815401808255809150509060018203906000526020600020016000909192909190915055505050565b6000612dcc8473ffffffffffffffffffffffffffffffffffffffff16613228565b612dd957600190506130df565b600060608573ffffffffffffffffffffffffffffffffffffffff168673ffffffffffffffffffffffffffffffffffffffff1663150b7a02905060e01b612e1d61274b565b898888604051602401808573ffffffffffffffffffffffffffffffffffffffff1673ffffffffffffffffffffffffffffffffffffffff1681526020018473ffffffffffffffffffffffffffffffffffffffff1673ffffffffffffffffffffffffffffffffffffffff16815260200183815260200180602001828103825283818151815260200191508051906020019080838360005b83811015612ecd578082015181840152602081019050612eb2565b50505050905090810190601f168015612efa5780820380516001836020036101000a031916815260200191505b5095505050505050604051602081830303815290604052907bffffffffffffffffffffffffffffffffffffffffffffffffffffffff19166020820180517bffffffffffffffffffffffffffffffffffffffffffffffffffffffff83818316178352505050506040518082805190602001908083835b60208310612f925780518252602082019150602081019050602083039250612f6f565b6001836020036101000a0380198251168184511680821785525050505050509050019150506000604051808303816000865af19150503d8060008114612ff4576040519150601f19603f3d011682016040523d82523d6000602084013e612ff9565b606091505b509150915081613067576000815111156130165780518082602001fd5b6040517f08c379a00000000000000000000000000000000000000000000000000000000081526004018080602001828103825260328152602001806134306032913960400191505060405180910390fd5b600081806020019051602081101561307e57600080fd5b8101908080519060200190929190505050905063150b7a0260e01b7bffffffffffffffffffffffffffffffffffffffffffffffffffffffff1916817bffffffffffffffffffffffffffffffffffffffffffffffffffffffff19161493505050505b949350505050565b600073ffffffffffffffffffffffffffffffffffffffff166002600083815260200190815260200160002060009054906101000a900473ffffffffffffffffffffffffffffffffffffffff1673ffffffffffffffffffffffffffffffffffffffff16146131a25760006002600083815260200190815260200160002060006101000a81548173ffffffffffffffffffffffffffffffffffffffff021916908373ffffffffffffffffffffffffffffffffffffffff1602179055505b50565b6131bd600182600001546131de90919063ffffffff16565b816000018190555050565b6001816000016000828254019250508190555050565b600061322083836040518060400160405280601e81526020017f536166654d6174683a207375627472616374696f6e206f766572666c6f770000815250613273565b905092915050565b60008060007fc5d2460186f7233c927e7db2dcc703c0e500b653ca82273b7bfad8045d85a47060001b9050833f915080821415801561326a57506000801b8214155b92505050919050565b6000838311158290613320576040517f08c379a00000000000000000000000000000000000000000000000000000000081526004018080602001828103825283818151815260200191508051906020019080838360005b838110156132e55780820151818401526020810190506132ca565b50505050905090810190601f1680156133125780820380516001836020036101000a031916815260200191505b509250505060405180910390fd5b5060008385039050809150509392505050565b828054600181600116156101000203166002900490600052602060002090601f016020900481019282601f1061337457805160ff19168380011785556133a2565b828001600101855582156133a2579182015b828111156133a1578251825591602001919060010190613386565b5b5090506133af91906133df565b5090565b8154818355818111156133da578183600052602060002091820191016133d991906133df565b5b505050565b61340191905b808211156133fd5760008160009055506001016133e5565b5090565b9056fe455243373231456e756d657261626c653a206f776e657220696e646578206f7574206f6620626f756e64734552433732313a207472616e7366657220746f206e6f6e20455243373231526563656976657220696d706c656d656e7465724552433732313a207472616e7366657220746f20746865207a65726f20616464726573734552433732313a206f70657261746f7220717565727920666f72206e6f6e6578697374656e7420746f6b656e4552433732313a20617070726f76652063616c6c6572206973206e6f74206f776e6572206e6f7220617070726f76656420666f7220616c6c4552433732313a2062616c616e636520717565727920666f7220746865207a65726f20616464726573734552433732313a206f776e657220717565727920666f72206e6f6e6578697374656e7420746f6b656e4552433732313a20617070726f76656420717565727920666f72206e6f6e6578697374656e7420746f6b656e4552433732313a207472616e73666572206f6620746f6b656e2074686174206973206e6f74206f776e4552433732314d657461646174613a2055524920717565727920666f72206e6f6e6578697374656e7420746f6b656e4552433732313a20617070726f76616c20746f2063757272656e74206f776e65724552433732313a207472616e736665722063616c6c6572206973206e6f74206f776e6572206e6f7220617070726f766564455243373231456e756d657261626c653a20676c6f62616c20696e646578206f7574206f6620626f756e6473a265627a7a723158201ad585e65038c1462b3a4a60a612e0e5fab66b29ea2eaedeb706d3a7c5cb7f1864736f6c63430005100032",
  "source": "// SPDX-License-Identifier: MIT\r\npragma solidity >=0.4.22 <0.8.0;\r\n\r\nimport \"../node_module/openzeppelin-solidity/contracts/token/ERC721/ERC721Full.sol\";\r\n\r\ncontract Liquor is ERC721Full {\r\n    struct Liquor {\r\n        uint256 tokenId;\r\n        string liquorName;\r\n        string sellerName;\r\n        bool isReservable;\r\n        string arrivalDay;\r\n        uint256 reserveScore;\r\n    }\r\n\r\n    Liquor[] private liquorCollection;\r\n    address private _contractOwner;\r\n\r\n    constructor() public ERC721Full(\"Liquor\", \"LIQ\") {\r\n        _contractOwner = msg.sender;\r\n    }\r\n\r\n    // function fetchLiquor(uint256 _tokenId) public view returns (string memory) {\r\n    //     string memory liquor = strConnect(\r\n    //         \"{liquorName:\",\r\n    //         liquorCollection[_tokenId].liquorName,\r\n    //         \"sellerName:\",\r\n    //         liquorCollection[_tokenId].sellerName,\r\n    //         \"isReservable:\",\r\n    //         liquorCollection[_tokenId].isReservable,\r\n    //         \"arrivalDay:\",\r\n    //         liquorCollection[_tokenId].arrivalDay,\r\n    //         \"reserveScore:\",\r\n    //         liquorCollection[_tokenId].reserveScore,\r\n    //         \"}\"\r\n    //     );\r\n    //     return liquor;\r\n    // }\r\n\r\n    // function fetchAllLiquors() public view returns (string[] memory) {\r\n    //     string[] memory liquors = new string[](liquorCollection.length);\r\n    //     for (int256 i = 0; i < liquorCollection.length; i++) {\r\n    //         liquors[i] = strConnect(\r\n    //             \"{liquorName:\",\r\n    //             liquorCollection[i].liquorName,\r\n    //             \"sellerName:\",\r\n    //             liquorCollection[i].sellerName,\r\n    //             \"isReservable:\",\r\n    //             liquorCollection[i].isReservable,\r\n    //             \"arrivalDay:\",\r\n    //             liquorCollection[i].arrivalDay,\r\n    //             \"reserveScore:\",\r\n    //             uintToString(liquorCollection[i].reserveScore),\r\n    //             \"}\"\r\n    //         );\r\n    //     }\r\n    //     return liquors;\r\n    // }\r\n\r\n    function updateReservability(uint256 _tokenId) external {\r\n        if (liquorCollection[_tokenId].isReservable == true) {\r\n            liquorCollection[_tokenId].isReservable = false;\r\n        } else {\r\n            liquorCollection[_tokenId].isReservable = true;\r\n        }\r\n    }\r\n\r\n    function addBlockToRegister(\r\n        string memory liquorName,\r\n        string memory sellerName,\r\n        bool isReservable,\r\n        string memory arrivalDay,\r\n        uint256 reserveScore\r\n    ) public {\r\n        uint256 newTokenId = liquorCollection.length + 1;\r\n        liquorCollection.push(\r\n            Liquor(\r\n                newTokenId,\r\n                liquorName,\r\n                sellerName,\r\n                isReservable,\r\n                arrivalDay,\r\n                reserveScore\r\n            )\r\n        );\r\n    }\r\n\r\n    // \r\n    function strConnect(\r\n        string memory str1,\r\n        string memory str2,\r\n        string memory str3,\r\n        string memory str4,\r\n        string memory str5,\r\n        string memory str6,\r\n        string memory str7,\r\n        string memory str8,\r\n        string memory str9,\r\n        string memory str10,\r\n        string memory str11\r\n    ) public returns (string memory) {\r\n        bytes memory strbyte1 = bytes(str1);\r\n        bytes memory strbyte2 = bytes(str2);\r\n        bytes memory strbyte3 = bytes(str3);\r\n        bytes memory strbyte4 = bytes(str4);\r\n        bytes memory strbyte5 = bytes(str5);\r\n        bytes memory strbyte6 = bytes(str6);\r\n        bytes memory strbyte7 = bytes(str7);\r\n        bytes memory strbyte8 = bytes(str8);\r\n        bytes memory strbyte9 = bytes(str9);\r\n        bytes memory strbyte10 = bytes(str10);\r\n        bytes memory strbyte11 = bytes(str11);\r\n\r\n        bytes memory str = new bytes(strbyte1.length + strbyte2.length);\r\n\r\n        uint8 point = 0;\r\n\r\n        for (uint8 j = 0; j < strbyte1.length; j++) {\r\n            str[point] = strbyte1[j];\r\n            point++;\r\n        }\r\n        for (uint8 k = 0; k < strbyte2.length; k++) {\r\n            str[point] = strbyte2[k];\r\n            point++;\r\n        }\r\n        for (uint8 k = 0; k < strbyte3.length; k++) {\r\n            str[point] = strbyte3[k];\r\n            point++;\r\n        }\r\n        for (uint8 k = 0; k < strbyte4.length; k++) {\r\n            str[point] = strbyte4[k];\r\n            point++;\r\n        }\r\n        for (uint8 k = 0; k < strbyte5.length; k++) {\r\n            str[point] = strbyte5[k];\r\n            point++;\r\n        }\r\n        for (uint8 k = 0; k < strbyte6.length; k++) {\r\n            str[point] = strbyte6[k];\r\n            point++;\r\n        }\r\n        for (uint8 k = 0; k < strbyte7.length; k++) {\r\n            str[point] = strbyte7[k];\r\n            point++;\r\n        }\r\n        for (uint8 k = 0; k < strbyte8.length; k++) {\r\n            str[point] = strbyte8[k];\r\n            point++;\r\n        }\r\n        for (uint8 k = 0; k < strbyte9.length; k++) {\r\n            str[point] = strbyte9[k];\r\n            point++;\r\n        }\r\n        for (uint8 k = 0; k < strbyte10.length; k++) {\r\n            str[point] = strbyte10[k];\r\n            point++;\r\n        }\r\n        for (uint8 k = 0; k < strbyte11.length; k++) {\r\n            str[point] = strbyte11[k];\r\n            point++;\r\n        }\r\n        return string(str);\r\n    }\r\n\r\n    //uint  string \r\n    // function uintToString(uint256 v) returns (string memory) {\r\n    //     uint256 maxlength = 100;\r\n    //     bytes memory reversed = new bytes(maxlength);\r\n    //     uint256 i = 0;\r\n    //     while (v != 0) {\r\n    //         uint256 remainder = v % 10;\r\n    //         v = v / 10;\r\n    //         reversed[i++] = bytes1(48 + remainder);\r\n    //     }\r\n    //     bytes memory s = new bytes(i + 1);\r\n    //     for (uint256 j = 0; j <= i; j++) {\r\n    //         s[j] = reversed[i - j];\r\n    //     }\r\n    //     string memory str = string(s);\r\n\r\n    //     return str;\r\n    // }\r\n}\r\n",
  "sourcePath": "C:/Users/jumpei.kuwata/Documents/BC_tutorial/BC_liquor/contracts/Liquor.sol",
  "compiler": {
    "name": "solc",
    "version": "0.5.16+commit.9c3226ce.Emscripten.clang"
  },
  "schemaVersion": "3.3.2",
  "updatedAt": "2020-12-15T08:09:53.289Z",
  "devdoc": {
    "methods": {
      "approve(address,uint256)": {
        "details": "Approves another address to transfer the given token ID The zero address indicates there is no approved address. There can only be one approved address per token at a given time. Can only be called by the token owner or an approved operator.",
        "params": {
          "to": "address to be approved for the given token ID",
          "tokenId": "uint256 ID of the token to be approved"
        }
      },
      "balanceOf(address)": {
        "details": "Gets the balance of the specified address.",
        "params": {
          "owner": "address to query the balance of"
        },
        "return": "uint256 representing the amount owned by the passed address"
      },
      "baseURI()": {
        "details": "Returns the base URI set via {_setBaseURI}. This will be automatically added as a preffix in {tokenURI} to each token's URI, when they are non-empty.     * _Available since v2.5.0._"
      },
      "getApproved(uint256)": {
        "details": "Gets the approved address for a token ID, or zero if no address set Reverts if the token ID does not exist.",
        "params": {
          "tokenId": "uint256 ID of the token to query the approval of"
        },
        "return": "address currently approved for the given token ID"
      },
      "isApprovedForAll(address,address)": {
        "details": "Tells whether an operator is approved by a given owner.",
        "params": {
          "operator": "operator address which you want to query the approval of",
          "owner": "owner address which you want to query the approval of"
        },
        "return": "bool whether the given operator is approved by the given owner"
      },
      "name()": {
        "details": "Gets the token name.",
        "return": "string representing the token name"
      },
      "ownerOf(uint256)": {
        "details": "Gets the owner of the specified token ID.",
        "params": {
          "tokenId": "uint256 ID of the token to query the owner of"
        },
        "return": "address currently marked as the owner of the given token ID"
      },
      "safeTransferFrom(address,address,uint256)": {
        "details": "Safely transfers the ownership of a given token ID to another address If the target address is a contract, it must implement {IERC721Receiver-onERC721Received}, which is called upon a safe transfer, and return the magic value `bytes4(keccak256(\"onERC721Received(address,address,uint256,bytes)\"))`; otherwise, the transfer is reverted. Requires the msg.sender to be the owner, approved, or operator",
        "params": {
          "from": "current owner of the token",
          "to": "address to receive the ownership of the given token ID",
          "tokenId": "uint256 ID of the token to be transferred"
        }
      },
      "safeTransferFrom(address,address,uint256,bytes)": {
        "details": "Safely transfers the ownership of a given token ID to another address If the target address is a contract, it must implement {IERC721Receiver-onERC721Received}, which is called upon a safe transfer, and return the magic value `bytes4(keccak256(\"onERC721Received(address,address,uint256,bytes)\"))`; otherwise, the transfer is reverted. Requires the _msgSender() to be the owner, approved, or operator",
        "params": {
          "_data": "bytes data to send along with a safe transfer check",
          "from": "current owner of the token",
          "to": "address to receive the ownership of the given token ID",
          "tokenId": "uint256 ID of the token to be transferred"
        }
      },
      "setApprovalForAll(address,bool)": {
        "details": "Sets or unsets the approval of a given operator An operator is allowed to transfer all tokens of the sender on their behalf.",
        "params": {
          "approved": "representing the status of the approval to be set",
          "to": "operator address to set the approval"
        }
      },
      "supportsInterface(bytes4)": {
        "details": "See {IERC165-supportsInterface}.      * Time complexity O(1), guaranteed to always use less than 30 000 gas."
      },
      "symbol()": {
        "details": "Gets the token symbol.",
        "return": "string representing the token symbol"
      },
      "tokenByIndex(uint256)": {
        "details": "Gets the token ID at a given index of all the tokens in this contract Reverts if the index is greater or equal to the total number of tokens.",
        "params": {
          "index": "uint256 representing the index to be accessed of the tokens list"
        },
        "return": "uint256 token ID at the given index of the tokens list"
      },
      "tokenOfOwnerByIndex(address,uint256)": {
        "details": "Gets the token ID at a given index of the tokens list of the requested owner.",
        "params": {
          "index": "uint256 representing the index to be accessed of the requested tokens list",
          "owner": "address owning the tokens list to be accessed"
        },
        "return": "uint256 token ID at the given index of the tokens list owned by the requested address"
      },
      "tokenURI(uint256)": {
        "details": "Returns the URI for a given token ID. May return an empty string.      * If the token's URI is non-empty and a base URI was set (via {_setBaseURI}), it will be added to the token ID's URI as a prefix.      * Reverts if the token ID does not exist."
      },
      "totalSupply()": {
        "details": "Gets the total amount of tokens stored by the contract.",
        "return": "uint256 representing the total amount of tokens"
      },
      "transferFrom(address,address,uint256)": {
        "details": "Transfers the ownership of a given token ID to another address. Usage of this method is discouraged, use {safeTransferFrom} whenever possible. Requires the msg.sender to be the owner, approved, or operator.",
        "params": {
          "from": "current owner of the token",
          "to": "address to receive the ownership of the given token ID",
          "tokenId": "uint256 ID of the token to be transferred"
        }
      }
    }
  },
  "userdoc": {
    "methods": {}
  }
}