{
  "contractName": "Liquor",
  "abi": [
    {
      "inputs": [],
      "payable": false,
      "stateMutability": "nonpayable",
      "type": "constructor"
    },
    {
      "anonymous": false,
      "inputs": [
        {
          "indexed": true,
          "internalType": "address",
          "name": "owner",
          "type": "address"
        },
        {
          "indexed": true,
          "internalType": "address",
          "name": "approved",
          "type": "address"
        },
        {
          "indexed": true,
          "internalType": "uint256",
          "name": "tokenId",
          "type": "uint256"
        }
      ],
      "name": "Approval",
      "type": "event"
    },
    {
      "anonymous": false,
      "inputs": [
        {
          "indexed": true,
          "internalType": "address",
          "name": "owner",
          "type": "address"
        },
        {
          "indexed": true,
          "internalType": "address",
          "name": "operator",
          "type": "address"
        },
        {
          "indexed": false,
          "internalType": "bool",
          "name": "approved",
          "type": "bool"
        }
      ],
      "name": "ApprovalForAll",
      "type": "event"
    },
    {
      "anonymous": false,
      "inputs": [
        {
          "indexed": true,
          "internalType": "address",
          "name": "from",
          "type": "address"
        },
        {
          "indexed": true,
          "internalType": "address",
          "name": "to",
          "type": "address"
        },
        {
          "indexed": true,
          "internalType": "uint256",
          "name": "tokenId",
          "type": "uint256"
        }
      ],
      "name": "Transfer",
      "type": "event"
    },
    {
      "constant": false,
      "inputs": [
        {
          "internalType": "address",
          "name": "to",
          "type": "address"
        },
        {
          "internalType": "uint256",
          "name": "tokenId",
          "type": "uint256"
        }
      ],
      "name": "approve",
      "outputs": [],
      "payable": false,
      "stateMutability": "nonpayable",
      "type": "function"
    },
    {
      "constant": true,
      "inputs": [
        {
          "internalType": "address",
          "name": "owner",
          "type": "address"
        }
      ],
      "name": "balanceOf",
      "outputs": [
        {
          "internalType": "uint256",
          "name": "",
          "type": "uint256"
        }
      ],
      "payable": false,
      "stateMutability": "view",
      "type": "function"
    },
    {
      "constant": true,
      "inputs": [],
      "name": "baseURI",
      "outputs": [
        {
          "internalType": "string",
          "name": "",
          "type": "string"
        }
      ],
      "payable": false,
      "stateMutability": "view",
      "type": "function"
    },
    {
      "constant": true,
      "inputs": [
        {
          "internalType": "uint256",
          "name": "tokenId",
          "type": "uint256"
        }
      ],
      "name": "getApproved",
      "outputs": [
        {
          "internalType": "address",
          "name": "",
          "type": "address"
        }
      ],
      "payable": false,
      "stateMutability": "view",
      "type": "function"
    },
    {
      "constant": true,
      "inputs": [
        {
          "internalType": "address",
          "name": "owner",
          "type": "address"
        },
        {
          "internalType": "address",
          "name": "operator",
          "type": "address"
        }
      ],
      "name": "isApprovedForAll",
      "outputs": [
        {
          "internalType": "bool",
          "name": "",
          "type": "bool"
        }
      ],
      "payable": false,
      "stateMutability": "view",
      "type": "function"
    },
    {
      "constant": true,
      "inputs": [],
      "name": "name",
      "outputs": [
        {
          "internalType": "string",
          "name": "",
          "type": "string"
        }
      ],
      "payable": false,
      "stateMutability": "view",
      "type": "function"
    },
    {
      "constant": true,
      "inputs": [
        {
          "internalType": "uint256",
          "name": "tokenId",
          "type": "uint256"
        }
      ],
      "name": "ownerOf",
      "outputs": [
        {
          "internalType": "address",
          "name": "",
          "type": "address"
        }
      ],
      "payable": false,
      "stateMutability": "view",
      "type": "function"
    },
    {
      "constant": false,
      "inputs": [
        {
          "internalType": "address",
          "name": "from",
          "type": "address"
        },
        {
          "internalType": "address",
          "name": "to",
          "type": "address"
        },
        {
          "internalType": "uint256",
          "name": "tokenId",
          "type": "uint256"
        }
      ],
      "name": "safeTransferFrom",
      "outputs": [],
      "payable": false,
      "stateMutability": "nonpayable",
      "type": "function"
    },
    {
      "constant": false,
      "inputs": [
        {
          "internalType": "address",
          "name": "from",
          "type": "address"
        },
        {
          "internalType": "address",
          "name": "to",
          "type": "address"
        },
        {
          "internalType": "uint256",
          "name": "tokenId",
          "type": "uint256"
        },
        {
          "internalType": "bytes",
          "name": "_data",
          "type": "bytes"
        }
      ],
      "name": "safeTransferFrom",
      "outputs": [],
      "payable": false,
      "stateMutability": "nonpayable",
      "type": "function"
    },
    {
      "constant": false,
      "inputs": [
        {
          "internalType": "address",
          "name": "to",
          "type": "address"
        },
        {
          "internalType": "bool",
          "name": "approved",
          "type": "bool"
        }
      ],
      "name": "setApprovalForAll",
      "outputs": [],
      "payable": false,
      "stateMutability": "nonpayable",
      "type": "function"
    },
    {
      "constant": true,
      "inputs": [
        {
          "internalType": "bytes4",
          "name": "interfaceId",
          "type": "bytes4"
        }
      ],
      "name": "supportsInterface",
      "outputs": [
        {
          "internalType": "bool",
          "name": "",
          "type": "bool"
        }
      ],
      "payable": false,
      "stateMutability": "view",
      "type": "function"
    },
    {
      "constant": true,
      "inputs": [],
      "name": "symbol",
      "outputs": [
        {
          "internalType": "string",
          "name": "",
          "type": "string"
        }
      ],
      "payable": false,
      "stateMutability": "view",
      "type": "function"
    },
    {
      "constant": true,
      "inputs": [
        {
          "internalType": "uint256",
          "name": "index",
          "type": "uint256"
        }
      ],
      "name": "tokenByIndex",
      "outputs": [
        {
          "internalType": "uint256",
          "name": "",
          "type": "uint256"
        }
      ],
      "payable": false,
      "stateMutability": "view",
      "type": "function"
    },
    {
      "constant": true,
      "inputs": [
        {
          "internalType": "address",
          "name": "owner",
          "type": "address"
        },
        {
          "internalType": "uint256",
          "name": "index",
          "type": "uint256"
        }
      ],
      "name": "tokenOfOwnerByIndex",
      "outputs": [
        {
          "internalType": "uint256",
          "name": "",
          "type": "uint256"
        }
      ],
      "payable": false,
      "stateMutability": "view",
      "type": "function"
    },
    {
      "constant": true,
      "inputs": [
        {
          "internalType": "uint256",
          "name": "tokenId",
          "type": "uint256"
        }
      ],
      "name": "tokenURI",
      "outputs": [
        {
          "internalType": "string",
          "name": "",
          "type": "string"
        }
      ],
      "payable": false,
      "stateMutability": "view",
      "type": "function"
    },
    {
      "constant": true,
      "inputs": [],
      "name": "totalSupply",
      "outputs": [
        {
          "internalType": "uint256",
          "name": "",
          "type": "uint256"
        }
      ],
      "payable": false,
      "stateMutability": "view",
      "type": "function"
    },
    {
      "constant": false,
      "inputs": [
        {
          "internalType": "address",
          "name": "from",
          "type": "address"
        },
        {
          "internalType": "address",
          "name": "to",
          "type": "address"
        },
        {
          "internalType": "uint256",
          "name": "tokenId",
          "type": "uint256"
        }
      ],
      "name": "transferFrom",
      "outputs": [],
      "payable": false,
      "stateMutability": "nonpayable",
      "type": "function"
    },
    {
      "constant": false,
      "inputs": [
        {
          "internalType": "uint256",
          "name": "_tokenId",
          "type": "uint256"
        }
      ],
      "name": "fetchLiquor",
      "outputs": [
        {
          "internalType": "string",
          "name": "",
          "type": "string"
        }
      ],
      "payable": false,
      "stateMutability": "nonpayable",
      "type": "function"
    },
    {
      "constant": false,
      "inputs": [],
      "name": "fetchAllLiquors",
      "outputs": [
        {
          "internalType": "string",
          "name": "",
          "type": "string"
        }
      ],
      "payable": false,
      "stateMutability": "nonpayable",
      "type": "function"
    },
    {
      "constant": false,
      "inputs": [
        {
          "internalType": "uint256",
          "name": "_tokenId",
          "type": "uint256"
        }
      ],
      "name": "updateReservability",
      "outputs": [],
      "payable": false,
      "stateMutability": "nonpayable",
      "type": "function"
    },
    {
      "constant": false,
      "inputs": [
        {
          "internalType": "string",
          "name": "liquorName",
          "type": "string"
        },
        {
          "internalType": "string",
          "name": "sellerName",
          "type": "string"
        },
        {
          "internalType": "bool",
          "name": "isReservable",
          "type": "bool"
        },
        {
          "internalType": "string",
          "name": "arrivalDay",
          "type": "string"
        },
        {
          "internalType": "string",
          "name": "reserveScore",
          "type": "string"
        }
      ],
      "name": "addBlockToRegister",
      "outputs": [],
      "payable": false,
      "stateMutability": "nonpayable",
      "type": "function"
    },
    {
      "constant": false,
      "inputs": [
        {
          "internalType": "string",
          "name": "str1",
          "type": "string"
        },
        {
          "internalType": "string",
          "name": "str2",
          "type": "string"
        },
        {
          "internalType": "string",
          "name": "str3",
          "type": "string"
        },
        {
          "internalType": "string",
          "name": "str4",
          "type": "string"
        },
        {
          "internalType": "string",
          "name": "str5",
          "type": "string"
        },
        {
          "internalType": "string",
          "name": "str6",
          "type": "string"
        },
        {
          "internalType": "string",
          "name": "str7",
          "type": "string"
        },
        {
          "internalType": "string",
          "name": "str8",
          "type": "string"
        },
        {
          "internalType": "string",
          "name": "str9",
          "type": "string"
        },
        {
          "internalType": "string",
          "name": "str10",
          "type": "string"
        },
        {
          "internalType": "string",
          "name": "str11",
          "type": "string"
        }
      ],
      "name": "strConnect",
      "outputs": [
        {
          "internalType": "string",
          "name": "",
          "type": "string"
        }
      ],
      "payable": false,
      "stateMutability": "nonpayable",
      "type": "function"
    }
  ],
  "bytecode": "0x60806040523480156200001157600080fd5b506040518060400160405280600681526020017f4c6971756f7200000000000000000000000000000000000000000000000000008152506040518060400160405280600381526020017f4c495100000000000000000000000000000000000000000000000000000000008152508181620000986301ffc9a760e01b6200015d60201b60201c565b620000b06380ac58cd60e01b6200015d60201b60201c565b620000c863780e9d6360e01b6200015d60201b60201c565b8160099080519060200190620000e092919062000235565b5080600a9080519060200190620000f992919062000235565b5062000112635b5e139f60e01b6200015d60201b60201c565b5050505033600e60006101000a81548173ffffffffffffffffffffffffffffffffffffffff021916908373ffffffffffffffffffffffffffffffffffffffff16021790555062000359565b63ffffffff60e01b817bffffffffffffffffffffffffffffffffffffffffffffffffffffffff19161415620001c9576040517f08c379a0000000000000000000000000000000000000000000000000000000008152600401620001c09062000326565b60405180910390fd5b6001600080837bffffffffffffffffffffffffffffffffffffffffffffffffffffffff19167bffffffffffffffffffffffffffffffffffffffffffffffffffffffff1916815260200190815260200160002060006101000a81548160ff02191690831515021790555050565b828054600181600116156101000203166002900490600052602060002090601f016020900481019282601f106200027857805160ff1916838001178555620002a9565b82800160010185558215620002a9579182015b82811115620002a85782518255916020019190600101906200028b565b5b509050620002b89190620002bc565b5090565b620002e191905b80821115620002dd576000816000905550600101620002c3565b5090565b90565b6000620002f3601c8362000348565b91507f4552433136353a20696e76616c696420696e74657266616365206964000000006000830152602082019050919050565b600060208201905081810360008301526200034181620002e4565b9050919050565b600082825260208201905092915050565b61358780620003696000396000f3fe608060405234801561001057600080fd5b50600436106101425760003560e01c8063511cf498116100b857806395d89b411161007c57806395d89b411461039b578063a22cb465146103b9578063b88d4fde146103d5578063c87b56dd146103f1578063dba124b414610421578063e985e9c51461045157610142565b8063511cf498146102d15780636352211e146102ed5780636c0360eb1461031d57806370a082311461033b578063770631831461036b57610142565b806313fcb5b11161010a57806313fcb5b1146101ff57806318160ddd1461021b57806323b872dd146102395780632f745c591461025557806342842e0e146102855780634f6ccce7146102a157610142565b806301ffc9a71461014757806304f801ee1461017757806306fdde0314610195578063081812fc146101b3578063095ea7b3146101e3575b600080fd5b610161600480360361015c9190810190612617565b610481565b60405161016e919061310f565b60405180910390f35b61017f6104e8565b60405161018c919061312a565b60405180910390f35b61019d610525565b6040516101aa919061312a565b60405180910390f35b6101cd60048036036101c89190810190612938565b6105c7565b6040516101da91906130a8565b60405180910390f35b6101fd60048036036101f891908101906125db565b61064c565b005b61021960048036036102149190810190612938565b610807565b005b6102236108b6565b604051610230919061330c565b60405180910390f35b610253600480360361024e91908101906124d5565b6108c3565b005b61026f600480360361026a91908101906125db565b610923565b60405161027c919061330c565b60405180910390f35b61029f600480360361029a91908101906124d5565b6109cc565b005b6102bb60048036036102b69190810190612938565b6109ec565b6040516102c8919061330c565b60405180910390f35b6102eb60048036036102e69190810190612669565b610a56565b005b61030760048036036103029190810190612938565b610b68565b60405161031491906130a8565b60405180910390f35b610325610c1a565b604051610332919061312a565b60405180910390f35b61035560048036036103509190810190612470565b610cbc565b604051610362919061330c565b60405180910390f35b61038560048036036103809190810190612740565b610d7b565b604051610392919061312a565b60405180910390f35b6103a3611393565b6040516103b0919061312a565b60405180910390f35b6103d360048036036103ce919081019061259f565b611435565b005b6103ef60048036036103ea9190810190612524565b6115b6565b005b61040b60048036036104069190810190612938565b611618565b604051610418919061312a565b60405180910390f35b61043b60048036036104369190810190612938565b611760565b604051610448919061312a565b60405180910390f35b61046b60048036036104669190810190612499565b61179f565b604051610478919061310f565b60405180910390f35b6000806000837bffffffffffffffffffffffffffffffffffffffffffffffffffffffff19167bffffffffffffffffffffffffffffffffffffffffffffffffffffffff1916815260200190815260200160002060009054906101000a900460ff169050919050565b60606040518060400160405280601581526020017f48656c6c6f2c206974277320736f6c69646974792e0000000000000000000000815250905090565b606060098054600181600116156101000203166002900480601f0160208091040260200160405190810160405280929190818152602001828054600181600116156101000203166002900480156105bd5780601f10610592576101008083540402835291602001916105bd565b820191906000526020600020905b8154815290600101906020018083116105a057829003601f168201915b5050505050905090565b60006105d282611833565b610611576040517f08c379a00000000000000000000000000000000000000000000000000000000081526004016106089061324c565b60405180910390fd5b6002600083815260200190815260200160002060009054906101000a900473ffffffffffffffffffffffffffffffffffffffff169050919050565b600061065782610b68565b90508073ffffffffffffffffffffffffffffffffffffffff168373ffffffffffffffffffffffffffffffffffffffff1614156106c8576040517f08c379a00000000000000000000000000000000000000000000000000000000081526004016106bf906132ac565b60405180910390fd5b8073ffffffffffffffffffffffffffffffffffffffff166106e76118a5565b73ffffffffffffffffffffffffffffffffffffffff1614806107165750610715816107106118a5565b61179f565b5b610755576040517f08c379a000000000000000000000000000000000000000000000000000000000815260040161074c906131ec565b60405180910390fd5b826002600084815260200190815260200160002060006101000a81548173ffffffffffffffffffffffffffffffffffffffff021916908373ffffffffffffffffffffffffffffffffffffffff160217905550818373ffffffffffffffffffffffffffffffffffffffff168273ffffffffffffffffffffffffffffffffffffffff167f8c5be1e5ebec7d5bd14f71427d1e84f3dd0314c0f7b2291e5b200ac8c7c3b92560405160405180910390a4505050565b60011515600d828154811061081857fe5b906000526020600020906006020160030160009054906101000a900460ff161515141561087b576000600d828154811061084e57fe5b906000526020600020906006020160030160006101000a81548160ff0219169083151502179055506108b3565b6001600d828154811061088a57fe5b906000526020600020906006020160030160006101000a81548160ff0219169083151502179055505b50565b6000600780549050905090565b6108d46108ce6118a5565b826118ad565b610913576040517f08c379a000000000000000000000000000000000000000000000000000000000815260040161090a906132cc565b60405180910390fd5b61091e83838361198b565b505050565b600061092e83610cbc565b821061096f576040517f08c379a00000000000000000000000000000000000000000000000000000000081526004016109669061314c565b60405180910390fd5b600560008473ffffffffffffffffffffffffffffffffffffffff1673ffffffffffffffffffffffffffffffffffffffff16815260200190815260200160002082815481106109b957fe5b9060005260206000200154905092915050565b6109e7838383604051806020016040528060008152506115b6565b505050565b60006109f66108b6565b8210610a37576040517f08c379a0000000000000000000000000000000000000000000000000000000008152600401610a2e906132ec565b60405180910390fd5b60078281548110610a4457fe5b90600052602060002001549050919050565b60006001600d80549050019050600d6040518060c0016040528083815260200188815260200187815260200186151581526020018581526020018481525090806001815401808255809150509060018203906000526020600020906006020160009091929091909150600082015181600001556020820151816001019080519060200190610ae592919061228e565b506040820151816002019080519060200190610b0292919061228e565b5060608201518160030160006101000a81548160ff0219169083151502179055506080820151816004019080519060200190610b3f92919061228e565b5060a0820151816005019080519060200190610b5c92919061228e565b50505050505050505050565b6000806001600084815260200190815260200160002060009054906101000a900473ffffffffffffffffffffffffffffffffffffffff169050600073ffffffffffffffffffffffffffffffffffffffff168173ffffffffffffffffffffffffffffffffffffffff161415610c11576040517f08c379a0000000000000000000000000000000000000000000000000000000008152600401610c089061322c565b60405180910390fd5b80915050919050565b6060600b8054600181600116156101000203166002900480601f016020809104026020016040519081016040528092919081815260200182805460018160011615610100020316600290048015610cb25780601f10610c8757610100808354040283529160200191610cb2565b820191906000526020600020905b815481529060010190602001808311610c9557829003601f168201915b5050505050905090565b60008073ffffffffffffffffffffffffffffffffffffffff168273ffffffffffffffffffffffffffffffffffffffff161415610d2d576040517f08c379a0000000000000000000000000000000000000000000000000000000008152600401610d249061320c565b60405180910390fd5b610d74600360008473ffffffffffffffffffffffffffffffffffffffff1673ffffffffffffffffffffffffffffffffffffffff1681526020019081526020016000206119af565b9050919050565b6060808c905060608c905060608c905060608c905060608c905060608c905060608c905060608c905060608c905060608c905060608c905060608a518c51016040519080825280601f01601f191660200182016040528015610dec5781602001600182028038833980820191505090505b509050600080905060008090505b8d518160ff161015610e73578d8160ff1681518110610e1557fe5b602001015160f81c60f81b838360ff1681518110610e2f57fe5b60200101907effffffffffffffffffffffffffffffffffffffffffffffffffffffffffffff1916908160001a90535081806001019250508080600101915050610dfa565b5060008090505b8c518160ff161015610ef3578c8160ff1681518110610e9557fe5b602001015160f81c60f81b838360ff1681518110610eaf57fe5b60200101907effffffffffffffffffffffffffffffffffffffffffffffffffffffffffffff1916908160001a90535081806001019250508080600101915050610e7a565b5060008090505b8b518160ff161015610f73578b8160ff1681518110610f1557fe5b602001015160f81c60f81b838360ff1681518110610f2f57fe5b60200101907effffffffffffffffffffffffffffffffffffffffffffffffffffffffffffff1916908160001a90535081806001019250508080600101915050610efa565b5060008090505b8a518160ff161015610ff3578a8160ff1681518110610f9557fe5b602001015160f81c60f81b838360ff1681518110610faf57fe5b60200101907effffffffffffffffffffffffffffffffffffffffffffffffffffffffffffff1916908160001a90535081806001019250508080600101915050610f7a565b5060008090505b89518160ff16101561107357898160ff168151811061101557fe5b602001015160f81c60f81b838360ff168151811061102f57fe5b60200101907effffffffffffffffffffffffffffffffffffffffffffffffffffffffffffff1916908160001a90535081806001019250508080600101915050610ffa565b5060008090505b88518160ff1610156110f357888160ff168151811061109557fe5b602001015160f81c60f81b838360ff16815181106110af57fe5b60200101907effffffffffffffffffffffffffffffffffffffffffffffffffffffffffffff1916908160001a9053508180600101925050808060010191505061107a565b5060008090505b87518160ff16101561117357878160ff168151811061111557fe5b602001015160f81c60f81b838360ff168151811061112f57fe5b60200101907effffffffffffffffffffffffffffffffffffffffffffffffffffffffffffff1916908160001a905350818060010192505080806001019150506110fa565b5060008090505b86518160ff1610156111f357868160ff168151811061119557fe5b602001015160f81c60f81b838360ff16815181106111af57fe5b60200101907effffffffffffffffffffffffffffffffffffffffffffffffffffffffffffff1916908160001a9053508180600101925050808060010191505061117a565b5060008090505b85518160ff16101561127357858160ff168151811061121557fe5b602001015160f81c60f81b838360ff168151811061122f57fe5b60200101907effffffffffffffffffffffffffffffffffffffffffffffffffffffffffffff1916908160001a905350818060010192505080806001019150506111fa565b5060008090505b84518160ff1610156112f357848160ff168151811061129557fe5b602001015160f81c60f81b838360ff16815181106112af57fe5b60200101907effffffffffffffffffffffffffffffffffffffffffffffffffffffffffffff1916908160001a9053508180600101925050808060010191505061127a565b5060008090505b83518160ff16101561137357838160ff168151811061131557fe5b602001015160f81c60f81b838360ff168151811061132f57fe5b60200101907effffffffffffffffffffffffffffffffffffffffffffffffffffffffffffff1916908160001a905350818060010192505080806001019150506112fa565b50819d50505050505050505050505050509b9a5050505050505050505050565b6060600a8054600181600116156101000203166002900480601f01602080910402602001604051908101604052809291908181526020018280546001816001161561010002031660029004801561142b5780601f106114005761010080835404028352916020019161142b565b820191906000526020600020905b81548152906001019060200180831161140e57829003601f168201915b5050505050905090565b61143d6118a5565b73ffffffffffffffffffffffffffffffffffffffff168273ffffffffffffffffffffffffffffffffffffffff1614156114ab576040517f08c379a00000000000000000000000000000000000000000000000000000000081526004016114a2906131ac565b60405180910390fd5b80600460006114b86118a5565b73ffffffffffffffffffffffffffffffffffffffff1673ffffffffffffffffffffffffffffffffffffffff16815260200190815260200160002060008473ffffffffffffffffffffffffffffffffffffffff1673ffffffffffffffffffffffffffffffffffffffff16815260200190815260200160002060006101000a81548160ff0219169083151502179055508173ffffffffffffffffffffffffffffffffffffffff166115656118a5565b73ffffffffffffffffffffffffffffffffffffffff167f17307eab39ab6107e8899845ad3d59bd9653f200f220920489ca2b5937696c31836040516115aa919061310f565b60405180910390a35050565b6115c76115c16118a5565b836118ad565b611606576040517f08c379a00000000000000000000000000000000000000000000000000000000081526004016115fd906132cc565b60405180910390fd5b611612848484846119bd565b50505050565b606061162382611833565b611662576040517f08c379a00000000000000000000000000000000000000000000000000000000081526004016116599061328c565b60405180910390fd5b6060600c60008481526020019081526020016000208054600181600116156101000203166002900480601f01602080910402602001604051908101604052809291908181526020018280546001816001161561010002031660029004801561170b5780601f106116e05761010080835404028352916020019161170b565b820191906000526020600020905b8154815290600101906020018083116116ee57829003601f168201915b50505050509050600081511415611734576040518060200160405280600081525091505061175b565b600b81604051602001611748929190613084565b6040516020818303038152906040529150505b919050565b60606040518060400160405280601581526020017f48656c6c6f2c206974277320736f6c69646974792e00000000000000000000008152509050919050565b6000600460008473ffffffffffffffffffffffffffffffffffffffff1673ffffffffffffffffffffffffffffffffffffffff16815260200190815260200160002060008373ffffffffffffffffffffffffffffffffffffffff1673ffffffffffffffffffffffffffffffffffffffff16815260200190815260200160002060009054906101000a900460ff16905092915050565b6000806001600084815260200190815260200160002060009054906101000a900473ffffffffffffffffffffffffffffffffffffffff169050600073ffffffffffffffffffffffffffffffffffffffff168173ffffffffffffffffffffffffffffffffffffffff161415915050919050565b600033905090565b60006118b882611833565b6118f7576040517f08c379a00000000000000000000000000000000000000000000000000000000081526004016118ee906131cc565b60405180910390fd5b600061190283610b68565b90508073ffffffffffffffffffffffffffffffffffffffff168473ffffffffffffffffffffffffffffffffffffffff16148061197157508373ffffffffffffffffffffffffffffffffffffffff16611959846105c7565b73ffffffffffffffffffffffffffffffffffffffff16145b806119825750611981818561179f565b5b91505092915050565b611996838383611a19565b6119a08382611c48565b6119aa8282611de6565b505050565b600081600001549050919050565b6119c884848461198b565b6119d484848484611ead565b611a13576040517f08c379a0000000000000000000000000000000000000000000000000000000008152600401611a0a9061316c565b60405180910390fd5b50505050565b8273ffffffffffffffffffffffffffffffffffffffff16611a3982610b68565b73ffffffffffffffffffffffffffffffffffffffff1614611a8f576040517f08c379a0000000000000000000000000000000000000000000000000000000008152600401611a869061326c565b60405180910390fd5b600073ffffffffffffffffffffffffffffffffffffffff168273ffffffffffffffffffffffffffffffffffffffff161415611aff576040517f08c379a0000000000000000000000000000000000000000000000000000000008152600401611af69061318c565b60405180910390fd5b611b08816120a7565b611b4f600360008573ffffffffffffffffffffffffffffffffffffffff1673ffffffffffffffffffffffffffffffffffffffff168152602001908152602001600020612165565b611b96600360008473ffffffffffffffffffffffffffffffffffffffff1673ffffffffffffffffffffffffffffffffffffffff168152602001908152602001600020612188565b816001600083815260200190815260200160002060006101000a81548173ffffffffffffffffffffffffffffffffffffffff021916908373ffffffffffffffffffffffffffffffffffffffff160217905550808273ffffffffffffffffffffffffffffffffffffffff168473ffffffffffffffffffffffffffffffffffffffff167fddf252ad1be2c89b69c2b068fc378daa952ba7f163c4a11628f55a4df523b3ef60405160405180910390a4505050565b6000611ca06001600560008673ffffffffffffffffffffffffffffffffffffffff1673ffffffffffffffffffffffffffffffffffffffff1681526020019081526020016000208054905061219e90919063ffffffff16565b9050600060066000848152602001908152602001600020549050818114611d8d576000600560008673ffffffffffffffffffffffffffffffffffffffff1673ffffffffffffffffffffffffffffffffffffffff1681526020019081526020016000208381548110611d0d57fe5b9060005260206000200154905080600560008773ffffffffffffffffffffffffffffffffffffffff1673ffffffffffffffffffffffffffffffffffffffff1681526020019081526020016000208381548110611d6557fe5b9060005260206000200181905550816006600083815260200190815260200160002081905550505b600560008573ffffffffffffffffffffffffffffffffffffffff1673ffffffffffffffffffffffffffffffffffffffff168152602001908152602001600020805480919060019003611ddf919061230e565b5050505050565b600560008373ffffffffffffffffffffffffffffffffffffffff1673ffffffffffffffffffffffffffffffffffffffff168152602001908152602001600020805490506006600083815260200190815260200160002081905550600560008373ffffffffffffffffffffffffffffffffffffffff1673ffffffffffffffffffffffffffffffffffffffff1681526020019081526020016000208190806001815401808255809150509060018203906000526020600020016000909192909190915055505050565b6000611ece8473ffffffffffffffffffffffffffffffffffffffff166121e8565b611edb576001905061209f565b600060608573ffffffffffffffffffffffffffffffffffffffff168673ffffffffffffffffffffffffffffffffffffffff1663150b7a02905060e01b611f1f6118a5565b898888604051602401611f3594939291906130c3565b604051602081830303815290604052907bffffffffffffffffffffffffffffffffffffffffffffffffffffffff19166020820180517bffffffffffffffffffffffffffffffffffffffffffffffffffffffff8381831617835250505050604051611f9f919061306d565b6000604051808303816000865af19150503d8060008114611fdc576040519150601f19603f3d011682016040523d82523d6000602084013e611fe1565b606091505b50915091508161203957600081511115611ffe5780518082602001fd5b6040517f08c379a00000000000000000000000000000000000000000000000000000000081526004016120309061316c565b60405180910390fd5b60008180602001905161204f9190810190612640565b905063150b7a0260e01b7bffffffffffffffffffffffffffffffffffffffffffffffffffffffff1916817bffffffffffffffffffffffffffffffffffffffffffffffffffffffff19161493505050505b949350505050565b600073ffffffffffffffffffffffffffffffffffffffff166002600083815260200190815260200160002060009054906101000a900473ffffffffffffffffffffffffffffffffffffffff1673ffffffffffffffffffffffffffffffffffffffff16146121625760006002600083815260200190815260200160002060006101000a81548173ffffffffffffffffffffffffffffffffffffffff021916908373ffffffffffffffffffffffffffffffffffffffff1602179055505b50565b61217d6001826000015461219e90919063ffffffff16565b816000018190555050565b6001816000016000828254019250508190555050565b60006121e083836040518060400160405280601e81526020017f536166654d6174683a207375627472616374696f6e206f766572666c6f770000815250612233565b905092915050565b60008060007fc5d2460186f7233c927e7db2dcc703c0e500b653ca82273b7bfad8045d85a47060001b9050833f915080821415801561222a57506000801b8214155b92505050919050565b600083831115829061227b576040517f08c379a0000000000000000000000000000000000000000000000000000000008152600401612272919061312a565b60405180910390fd5b5060008385039050809150509392505050565b828054600181600116156101000203166002900490600052602060002090601f016020900481019282601f106122cf57805160ff19168380011785556122fd565b828001600101855582156122fd579182015b828111156122fc5782518255916020019190600101906122e1565b5b50905061230a919061233a565b5090565b81548183558181111561233557818360005260206000209182019101612334919061233a565b5b505050565b61235c91905b80821115612358576000816000905550600101612340565b5090565b90565b60008135905061236e816134e8565b92915050565b600081359050612383816134ff565b92915050565b60008135905061239881613516565b92915050565b6000815190506123ad81613516565b92915050565b600082601f8301126123c457600080fd5b81356123d76123d282613354565b613327565b915080825260208301602083018583830111156123f357600080fd5b6123fe838284613495565b50505092915050565b600082601f83011261241857600080fd5b813561242b61242682613380565b613327565b9150808252602083016020830185838301111561244757600080fd5b612452838284613495565b50505092915050565b60008135905061246a8161352d565b92915050565b60006020828403121561248257600080fd5b60006124908482850161235f565b91505092915050565b600080604083850312156124ac57600080fd5b60006124ba8582860161235f565b92505060206124cb8582860161235f565b9150509250929050565b6000806000606084860312156124ea57600080fd5b60006124f88682870161235f565b93505060206125098682870161235f565b925050604061251a8682870161245b565b9150509250925092565b6000806000806080858703121561253a57600080fd5b60006125488782880161235f565b94505060206125598782880161235f565b935050604061256a8782880161245b565b925050606085013567ffffffffffffffff81111561258757600080fd5b612593878288016123b3565b91505092959194509250565b600080604083850312156125b257600080fd5b60006125c08582860161235f565b92505060206125d185828601612374565b9150509250929050565b600080604083850312156125ee57600080fd5b60006125fc8582860161235f565b925050602061260d8582860161245b565b9150509250929050565b60006020828403121561262957600080fd5b600061263784828501612389565b91505092915050565b60006020828403121561265257600080fd5b60006126608482850161239e565b91505092915050565b600080600080600060a0868803121561268157600080fd5b600086013567ffffffffffffffff81111561269b57600080fd5b6126a788828901612407565b955050602086013567ffffffffffffffff8111156126c457600080fd5b6126d088828901612407565b94505060406126e188828901612374565b935050606086013567ffffffffffffffff8111156126fe57600080fd5b61270a88828901612407565b925050608086013567ffffffffffffffff81111561272757600080fd5b61273388828901612407565b9150509295509295909350565b60008060008060008060008060008060006101608c8e03121561276257600080fd5b60008c013567ffffffffffffffff81111561277c57600080fd5b6127888e828f01612407565b9b505060208c013567ffffffffffffffff8111156127a557600080fd5b6127b18e828f01612407565b9a505060408c013567ffffffffffffffff8111156127ce57600080fd5b6127da8e828f01612407565b99505060608c013567ffffffffffffffff8111156127f757600080fd5b6128038e828f01612407565b98505060808c013567ffffffffffffffff81111561282057600080fd5b61282c8e828f01612407565b97505060a08c013567ffffffffffffffff81111561284957600080fd5b6128558e828f01612407565b96505060c08c013567ffffffffffffffff81111561287257600080fd5b61287e8e828f01612407565b95505060e08c013567ffffffffffffffff81111561289b57600080fd5b6128a78e828f01612407565b9450506101008c013567ffffffffffffffff8111156128c557600080fd5b6128d18e828f01612407565b9350506101208c013567ffffffffffffffff8111156128ef57600080fd5b6128fb8e828f01612407565b9250506101408c013567ffffffffffffffff81111561291957600080fd5b6129258e828f01612407565b9150509295989b509295989b9093969950565b60006020828403121561294a57600080fd5b60006129588482850161245b565b91505092915050565b61296a81613421565b82525050565b6129798161340f565b82525050565b61298881613433565b82525050565b6000612999826133c1565b6129a381856133d7565b93506129b38185602086016134a4565b6129bc816134d7565b840191505092915050565b60006129d2826133c1565b6129dc81856133e8565b93506129ec8185602086016134a4565b80840191505092915050565b6000612a03826133cc565b612a0d81856133f3565b9350612a1d8185602086016134a4565b612a26816134d7565b840191505092915050565b6000612a3c826133cc565b612a468185613404565b9350612a568185602086016134a4565b80840191505092915050565b600081546001811660008114612a7f5760018114612aa457612ae8565b607f6002830416612a908187613404565b955060ff1983168652808601935050612ae8565b60028204612ab28187613404565b9550612abd856133ac565b60005b82811015612adf57815481890152600182019150602081019050612ac0565b82880195505050505b505092915050565b6000612afd602b836133f3565b91507f455243373231456e756d657261626c653a206f776e657220696e646578206f7560008301527f74206f6620626f756e64730000000000000000000000000000000000000000006020830152604082019050919050565b6000612b636032836133f3565b91507f4552433732313a207472616e7366657220746f206e6f6e20455243373231526560008301527f63656976657220696d706c656d656e74657200000000000000000000000000006020830152604082019050919050565b6000612bc96024836133f3565b91507f4552433732313a207472616e7366657220746f20746865207a65726f2061646460008301527f72657373000000000000000000000000000000000000000000000000000000006020830152604082019050919050565b6000612c2f6019836133f3565b91507f4552433732313a20617070726f766520746f2063616c6c6572000000000000006000830152602082019050919050565b6000612c6f602c836133f3565b91507f4552433732313a206f70657261746f7220717565727920666f72206e6f6e657860008301527f697374656e7420746f6b656e00000000000000000000000000000000000000006020830152604082019050919050565b6000612cd56038836133f3565b91507f4552433732313a20617070726f76652063616c6c6572206973206e6f74206f7760008301527f6e6572206e6f7220617070726f76656420666f7220616c6c00000000000000006020830152604082019050919050565b6000612d3b602a836133f3565b91507f4552433732313a2062616c616e636520717565727920666f7220746865207a6560008301527f726f2061646472657373000000000000000000000000000000000000000000006020830152604082019050919050565b6000612da16029836133f3565b91507f4552433732313a206f776e657220717565727920666f72206e6f6e657869737460008301527f656e7420746f6b656e00000000000000000000000000000000000000000000006020830152604082019050919050565b6000612e07602c836133f3565b91507f4552433732313a20617070726f76656420717565727920666f72206e6f6e657860008301527f697374656e7420746f6b656e00000000000000000000000000000000000000006020830152604082019050919050565b6000612e6d6029836133f3565b91507f4552433732313a207472616e73666572206f6620746f6b656e2074686174206960008301527f73206e6f74206f776e00000000000000000000000000000000000000000000006020830152604082019050919050565b6000612ed3602f836133f3565b91507f4552433732314d657461646174613a2055524920717565727920666f72206e6f60008301527f6e6578697374656e7420746f6b656e00000000000000000000000000000000006020830152604082019050919050565b6000612f396021836133f3565b91507f4552433732313a20617070726f76616c20746f2063757272656e74206f776e6560008301527f72000000000000000000000000000000000000000000000000000000000000006020830152604082019050919050565b6000612f9f6031836133f3565b91507f4552433732313a207472616e736665722063616c6c6572206973206e6f74206f60008301527f776e6572206e6f7220617070726f7665640000000000000000000000000000006020830152604082019050919050565b6000613005602c836133f3565b91507f455243373231456e756d657261626c653a20676c6f62616c20696e646578206f60008301527f7574206f6620626f756e647300000000000000000000000000000000000000006020830152604082019050919050565b6130678161348b565b82525050565b600061307982846129c7565b915081905092915050565b60006130908285612a62565b915061309c8284612a31565b91508190509392505050565b60006020820190506130bd6000830184612970565b92915050565b60006080820190506130d86000830187612961565b6130e56020830186612970565b6130f2604083018561305e565b8181036060830152613104818461298e565b905095945050505050565b6000602082019050613124600083018461297f565b92915050565b6000602082019050818103600083015261314481846129f8565b905092915050565b6000602082019050818103600083015261316581612af0565b9050919050565b6000602082019050818103600083015261318581612b56565b9050919050565b600060208201905081810360008301526131a581612bbc565b9050919050565b600060208201905081810360008301526131c581612c22565b9050919050565b600060208201905081810360008301526131e581612c62565b9050919050565b6000602082019050818103600083015261320581612cc8565b9050919050565b6000602082019050818103600083015261322581612d2e565b9050919050565b6000602082019050818103600083015261324581612d94565b9050919050565b6000602082019050818103600083015261326581612dfa565b9050919050565b6000602082019050818103600083015261328581612e60565b9050919050565b600060208201905081810360008301526132a581612ec6565b9050919050565b600060208201905081810360008301526132c581612f2c565b9050919050565b600060208201905081810360008301526132e581612f92565b9050919050565b6000602082019050818103600083015261330581612ff8565b9050919050565b6000602082019050613321600083018461305e565b92915050565b6000604051905081810181811067ffffffffffffffff8211171561334a57600080fd5b8060405250919050565b600067ffffffffffffffff82111561336b57600080fd5b601f19601f8301169050602081019050919050565b600067ffffffffffffffff82111561339757600080fd5b601f19601f8301169050602081019050919050565b60008190508160005260206000209050919050565b600081519050919050565b600081519050919050565b600082825260208201905092915050565b600081905092915050565b600082825260208201905092915050565b600081905092915050565b600061341a8261346b565b9050919050565b600061342c8261346b565b9050919050565b60008115159050919050565b60007fffffffff0000000000000000000000000000000000000000000000000000000082169050919050565b600073ffffffffffffffffffffffffffffffffffffffff82169050919050565b6000819050919050565b82818337600083830152505050565b60005b838110156134c25780820151818401526020810190506134a7565b838111156134d1576000848401525b50505050565b6000601f19601f8301169050919050565b6134f18161340f565b81146134fc57600080fd5b50565b61350881613433565b811461351357600080fd5b50565b61351f8161343f565b811461352a57600080fd5b50565b6135368161348b565b811461354157600080fd5b5056fea365627a7a7231582037ac57442e981bcd2a067d38b1107855a23d871e77bb1120369ccb1ea7791e436c6578706572696d656e74616cf564736f6c63430005100040",
  "source": "// SPDX-License-Identifier: MIT\r\npragma solidity >=0.4.22 <0.8.0;\r\npragma experimental ABIEncoderV2;\r\n\r\nimport \"../node_module/openzeppelin-solidity/contracts/token/ERC721/ERC721Full.sol\";\r\n\r\ncontract Liquor is ERC721Full {\r\n    struct Liquor {\r\n        uint256 tokenId;\r\n        string liquorName;\r\n        string sellerName;\r\n        bool isReservable;\r\n        string arrivalDay;\r\n        string reserveScore;\r\n    }\r\n\r\n    Liquor[] private liquorCollection;\r\n    address private _contractOwner;\r\n\r\n    constructor() public ERC721Full(\"Liquor\", \"LIQ\") {\r\n        _contractOwner = msg.sender;\r\n    }\r\n\r\n    function fetchLiquor(uint256 _tokenId) public returns (string memory) {\r\n        // string memory liquor = strConnect(\r\n        //     \"{liquorName:\",\r\n        //     liquorCollection[_tokenId].liquorName,\r\n        //     \"sellerName:\",\r\n        //     liquorCollection[_tokenId].sellerName,\r\n        //     \"isReservable:\",\r\n        //     boolToString(liquorCollection[_tokenId].isReservable),\r\n        //     \"arrivalDay:\",\r\n        //     liquorCollection[_tokenId].arrivalDay,\r\n        //     \"reserveScore:\",\r\n        //     liquorCollection[_tokenId].reserveScore,\r\n        //     \"}\"\r\n        // );\r\n\r\n        return \"Hello, it's solidity.\";\r\n    }\r\n\r\n    function fetchAllLiquors() public returns (string memory) {\r\n        // string[] memory liquors = new string[](liquorCollection.length);\r\n        // for (uint256 i = 0; i < liquorCollection.length; i++) {\r\n        //     liquors[i] = strConnect(\r\n        //         \"{liquorName:\",\r\n        //         liquorCollection[i].liquorName,\r\n        //         \"sellerName:\",\r\n        //         liquorCollection[i].sellerName,\r\n        //         \"isReservable:\",\r\n        //         boolToString(liquorCollection[i].isReservable),\r\n        //         \"arrivalDay:\",\r\n        //         liquorCollection[i].arrivalDay,\r\n        //         \"reserveScore:\",\r\n        //         liquorCollection[i].reserveScore,\r\n        //         \"}\"\r\n        //     );\r\n        // }\r\n        // return liquors;\r\n\r\n        // string[] memory liquor = new string[](5);\r\n        // liquor[0] = liquorCollection[0].liquorName;\r\n        // liquor[1] = liquorCollection[0].sellerName;\r\n        // liquor[2] = boolToString(liquorCollection[0].isReservable);\r\n        // liquor[3] = liquorCollection[0].arrivalDay;\r\n        // liquor[4] = liquorCollection[0].reserveScore;\r\n        // return liquor;\r\n\r\n        return \"Hello, it's solidity.\";\r\n    }\r\n\r\n    function updateReservability(uint256 _tokenId) external {\r\n        if (liquorCollection[_tokenId].isReservable == true) {\r\n            liquorCollection[_tokenId].isReservable = false;\r\n        } else {\r\n            liquorCollection[_tokenId].isReservable = true;\r\n        }\r\n    }\r\n\r\n    function addBlockToRegister(\r\n        string memory liquorName,\r\n        string memory sellerName,\r\n        bool isReservable,\r\n        string memory arrivalDay,\r\n        string memory reserveScore\r\n    ) public {\r\n        uint256 newTokenId = liquorCollection.length + 1;\r\n        liquorCollection.push(\r\n            Liquor(\r\n                newTokenId,\r\n                liquorName,\r\n                sellerName,\r\n                isReservable,\r\n                arrivalDay,\r\n                reserveScore\r\n            )\r\n        );\r\n    }\r\n\r\n    // 11\r\n    function strConnect(\r\n        string memory str1,\r\n        string memory str2,\r\n        string memory str3,\r\n        string memory str4,\r\n        string memory str5,\r\n        string memory str6,\r\n        string memory str7,\r\n        string memory str8,\r\n        string memory str9,\r\n        string memory str10,\r\n        string memory str11\r\n    ) public returns (string memory) {\r\n        bytes memory strbyte1 = bytes(str1);\r\n        bytes memory strbyte2 = bytes(str2);\r\n        bytes memory strbyte3 = bytes(str3);\r\n        bytes memory strbyte4 = bytes(str4);\r\n        bytes memory strbyte5 = bytes(str5);\r\n        bytes memory strbyte6 = bytes(str6);\r\n        bytes memory strbyte7 = bytes(str7);\r\n        bytes memory strbyte8 = bytes(str8);\r\n        bytes memory strbyte9 = bytes(str9);\r\n        bytes memory strbyte10 = bytes(str10);\r\n        bytes memory strbyte11 = bytes(str11);\r\n\r\n        bytes memory str = new bytes(strbyte1.length + strbyte2.length);\r\n\r\n        uint8 point = 0;\r\n\r\n        for (uint8 j = 0; j < strbyte1.length; j++) {\r\n            str[point] = strbyte1[j];\r\n            point++;\r\n        }\r\n        for (uint8 k = 0; k < strbyte2.length; k++) {\r\n            str[point] = strbyte2[k];\r\n            point++;\r\n        }\r\n        for (uint8 k = 0; k < strbyte3.length; k++) {\r\n            str[point] = strbyte3[k];\r\n            point++;\r\n        }\r\n        for (uint8 k = 0; k < strbyte4.length; k++) {\r\n            str[point] = strbyte4[k];\r\n            point++;\r\n        }\r\n        for (uint8 k = 0; k < strbyte5.length; k++) {\r\n            str[point] = strbyte5[k];\r\n            point++;\r\n        }\r\n        for (uint8 k = 0; k < strbyte6.length; k++) {\r\n            str[point] = strbyte6[k];\r\n            point++;\r\n        }\r\n        for (uint8 k = 0; k < strbyte7.length; k++) {\r\n            str[point] = strbyte7[k];\r\n            point++;\r\n        }\r\n        for (uint8 k = 0; k < strbyte8.length; k++) {\r\n            str[point] = strbyte8[k];\r\n            point++;\r\n        }\r\n        for (uint8 k = 0; k < strbyte9.length; k++) {\r\n            str[point] = strbyte9[k];\r\n            point++;\r\n        }\r\n        for (uint8 k = 0; k < strbyte10.length; k++) {\r\n            str[point] = strbyte10[k];\r\n            point++;\r\n        }\r\n        for (uint8 k = 0; k < strbyte11.length; k++) {\r\n            str[point] = strbyte11[k];\r\n            point++;\r\n        }\r\n        return string(str);\r\n    }\r\n\r\n    // boolstring\r\n    function boolToString(bool boolean) internal pure returns (string memory) {\r\n        if (boolean == true) {\r\n            return \"true\";\r\n        } else {\r\n            return \"false\";\r\n        }\r\n    }\r\n\r\n    //uint  string \r\n    // function uintToString(uint256 v) returns (string memory) {\r\n    //     uint256 maxlength = 100;\r\n    //     bytes reversed = new bytes(maxlength);\r\n    //     uint256 i = 0;\r\n    //     while (v != 0) {\r\n    //         // 1\r\n    //         uint256 remainder = v % 10;\r\n\r\n    //         // \r\n    //         v = v / 10;\r\n\r\n    //         reversed[i++] = bytes(48 + remainder);\r\n    //     }\r\n    //     bytes memory s = new bytes(i + 1);\r\n    //     for (uint256 j = 0; j <= i; j++) {\r\n    //         s[j] = reversed[i - j];\r\n    //     }\r\n    //     string memory str = string(s);\r\n\r\n    //     return str;\r\n    // }\r\n}\r\n",
  "sourcePath": "C:/Users/jumpei.kuwata/Documents/BC_tutorial/BC_liquor/contracts/Liquor.sol",
  "compiler": {
    "name": "solc",
    "version": "0.5.16+commit.9c3226ce.Emscripten.clang"
  },
  "schemaVersion": "3.3.2",
  "updatedAt": "2020-12-17T02:33:31.414Z",
  "devdoc": {
    "methods": {
      "approve(address,uint256)": {
        "details": "Approves another address to transfer the given token ID The zero address indicates there is no approved address. There can only be one approved address per token at a given time. Can only be called by the token owner or an approved operator.",
        "params": {
          "to": "address to be approved for the given token ID",
          "tokenId": "uint256 ID of the token to be approved"
        }
      },
      "balanceOf(address)": {
        "details": "Gets the balance of the specified address.",
        "params": {
          "owner": "address to query the balance of"
        },
        "return": "uint256 representing the amount owned by the passed address"
      },
      "baseURI()": {
        "details": "Returns the base URI set via {_setBaseURI}. This will be automatically added as a preffix in {tokenURI} to each token's URI, when they are non-empty.     * _Available since v2.5.0._"
      },
      "getApproved(uint256)": {
        "details": "Gets the approved address for a token ID, or zero if no address set Reverts if the token ID does not exist.",
        "params": {
          "tokenId": "uint256 ID of the token to query the approval of"
        },
        "return": "address currently approved for the given token ID"
      },
      "isApprovedForAll(address,address)": {
        "details": "Tells whether an operator is approved by a given owner.",
        "params": {
          "operator": "operator address which you want to query the approval of",
          "owner": "owner address which you want to query the approval of"
        },
        "return": "bool whether the given operator is approved by the given owner"
      },
      "name()": {
        "details": "Gets the token name.",
        "return": "string representing the token name"
      },
      "ownerOf(uint256)": {
        "details": "Gets the owner of the specified token ID.",
        "params": {
          "tokenId": "uint256 ID of the token to query the owner of"
        },
        "return": "address currently marked as the owner of the given token ID"
      },
      "safeTransferFrom(address,address,uint256)": {
        "details": "Safely transfers the ownership of a given token ID to another address If the target address is a contract, it must implement {IERC721Receiver-onERC721Received}, which is called upon a safe transfer, and return the magic value `bytes4(keccak256(\"onERC721Received(address,address,uint256,bytes)\"))`; otherwise, the transfer is reverted. Requires the msg.sender to be the owner, approved, or operator",
        "params": {
          "from": "current owner of the token",
          "to": "address to receive the ownership of the given token ID",
          "tokenId": "uint256 ID of the token to be transferred"
        }
      },
      "safeTransferFrom(address,address,uint256,bytes)": {
        "details": "Safely transfers the ownership of a given token ID to another address If the target address is a contract, it must implement {IERC721Receiver-onERC721Received}, which is called upon a safe transfer, and return the magic value `bytes4(keccak256(\"onERC721Received(address,address,uint256,bytes)\"))`; otherwise, the transfer is reverted. Requires the _msgSender() to be the owner, approved, or operator",
        "params": {
          "_data": "bytes data to send along with a safe transfer check",
          "from": "current owner of the token",
          "to": "address to receive the ownership of the given token ID",
          "tokenId": "uint256 ID of the token to be transferred"
        }
      },
      "setApprovalForAll(address,bool)": {
        "details": "Sets or unsets the approval of a given operator An operator is allowed to transfer all tokens of the sender on their behalf.",
        "params": {
          "approved": "representing the status of the approval to be set",
          "to": "operator address to set the approval"
        }
      },
      "supportsInterface(bytes4)": {
        "details": "See {IERC165-supportsInterface}.      * Time complexity O(1), guaranteed to always use less than 30 000 gas."
      },
      "symbol()": {
        "details": "Gets the token symbol.",
        "return": "string representing the token symbol"
      },
      "tokenByIndex(uint256)": {
        "details": "Gets the token ID at a given index of all the tokens in this contract Reverts if the index is greater or equal to the total number of tokens.",
        "params": {
          "index": "uint256 representing the index to be accessed of the tokens list"
        },
        "return": "uint256 token ID at the given index of the tokens list"
      },
      "tokenOfOwnerByIndex(address,uint256)": {
        "details": "Gets the token ID at a given index of the tokens list of the requested owner.",
        "params": {
          "index": "uint256 representing the index to be accessed of the requested tokens list",
          "owner": "address owning the tokens list to be accessed"
        },
        "return": "uint256 token ID at the given index of the tokens list owned by the requested address"
      },
      "tokenURI(uint256)": {
        "details": "Returns the URI for a given token ID. May return an empty string.      * If the token's URI is non-empty and a base URI was set (via {_setBaseURI}), it will be added to the token ID's URI as a prefix.      * Reverts if the token ID does not exist."
      },
      "totalSupply()": {
        "details": "Gets the total amount of tokens stored by the contract.",
        "return": "uint256 representing the total amount of tokens"
      },
      "transferFrom(address,address,uint256)": {
        "details": "Transfers the ownership of a given token ID to another address. Usage of this method is discouraged, use {safeTransferFrom} whenever possible. Requires the msg.sender to be the owner, approved, or operator.",
        "params": {
          "from": "current owner of the token",
          "to": "address to receive the ownership of the given token ID",
          "tokenId": "uint256 ID of the token to be transferred"
        }
      }
    }
  },
  "userdoc": {
    "methods": {}
  }
}